:020000040002F8
:1070000070760020E1730200E9730200EB73020066
:10701000ED730200EF730200F17302000000000044
:10702000000000000000000000000000F3730200F8
:10703000F573020000000000F7730200F97302000C
:107040006D760200FB73020069790200FB73020097
:10705000FB730200FB730200C9750200FB730200A0
:10706000FB730200FB730200FB730200FB73020060
:10707000FB730200FB730200FB730200FB73020050
:10708000FB730200C5760200FB730200FB73020073
:10709000FB730200FB73020035770200FB730200F2
:1070A000FB730200FB730200FB730200FB73020020
:1070B000FB730200FB7302000000000000000000F0
:1070C000FB730200FB730200FB730200FB73020000
:1070D000FB730200FB730200FB730200FB730200F0
:1070E000FB730200FB730200FB7302000000000050
:1070F00000000000FB73020000000000FB730200B0
:10710000000000000000000000000000000000007F
:10711000000000000000000000000000000000006F
:10712000000000000000000000000000000000005F
:10713000000000000000000000000000000000004F
:10714000000000000000000000000000000000003F
:10715000000000000000000000000000000000002F
:10716000000000000000000000000000000000001F
:10717000000000000000000000000000000000000F
:1071800000000000000000000000000000000000FF
:1071900000000000000000000000000000000000EF
:1071A00000000000000000000000000000000000DF
:1071B00000000000000000000000000000000000CF
:1071C00000000000000000000000000000000000BF
:1071D00000000000000000000000000000000000AF
:1071E000000000000000000000000000000000009F
:1071F000000000000000000000000000000000008F
:10720000DFF810D000F0A2F900480047C9B802002A
:10721000AFF300807076002000B583B0029000913B
:10722000019244F2010071466A4600F043FE03B049
:1072300000BD000030B450E8012F93B2C48923444C
:107240008489A34228BF1B1B0489A34202BFBFF34A
:107250002F8F002007E0C3EA020340E80134002C2E
:10726000E9D14FF001000A6030BC704750E8012FAF
:10727000C2EA024240E801210029F7D1704730B448
:1072800050E8022F1FFAA2F3C488A34202BFBFF343
:107290002F8F00200DE0C48923448489A34228BF96
:1072A0001B1BC2EA034340E80234002CE8D14FF034
:1072B00001000A6030BC704750E8022FC2EA224247
:1072C00040E802210029F7D17047034653E8022F16
:1072D000D988B2EB324F4FF0000017BF92B241EAAB
:1072E000014142EA014104E05A68B2EB324F08BF63
:1072F000012043E80212002AE8D1704730B4044666
:1073000054E8000F0D4644E80053002BF8D11560F7
:1073100030BC704730B4044654E8000F40EA010521
:1073200044E80053002BF7D1156030BC704730B4EF
:10733000044654E8000F00EA010544E80053002B1E
:10734000F7D1156030BC704730B4044654E8000FE4
:1073500080EA010544E80053002BF7D1156030BCEA
:10736000704730B4044654E8000F00EB010544E8D0
:107370000053002BF7D1156030BC704730B4044681
:1073800054E8000FA0EB010544E80053002BF7D1AF
:10739000156030BC704770B404464FF0000054E8EC
:1073A000006F0D68AE4207BF44E80023012044E8A7
:1073B00000630E60002B1CBF0020F0E770BC70471C
:1073C00030B4044654E8000F88422CBF451A0546E5
:1073D00044E80053002BF5D1156030BC7047000025
:1073E0000648804706480047FEE7FEE7FEE7FEE75F
:1073F000FEE7FEE7FEE7FEE7FEE7FEE78D77020029
:10740000017202002DE9F05F0546002092469B467E
:1074100088460646814640241BE0284641464746AA
:10742000224600F082F853465A46C01A914110D3C2
:1074300011461846224600F016F82D1A67EB01088F
:107440004F4622460120002100F00DF817EB0009FD
:107450004E41201EA4F10104DFDC484631462A4695
:107460004346BDE8F09F202A04DB203A00FA02F1EF
:10747000002070479140C2F1200320FA03F3194322
:1074800090407047004870472C1C030010B5431A09
:10749000934209D28318881803E010F8011D03F8FD
:1074A000011D521EF9D210BD40EA01039B0703D013
:1074B00009E008C9121F08C0042AFAD203E011F833
:1074C000013B00F8013B521EF9D210BDD2B201E0DF
:1074D00000F8012B491EFBD270470022F6E710B5D9
:1074E00013460A4604461946FFF7F0FF204610BD32
:1074F000421C10F8011B0029FBD1801A704730B5DF
:1075000004460020034600E05B1C934203D2E05C8B
:10751000CD5C401BF8D030BD034611F8012B00F8BC
:10752000012B002AF9D118467047202A04DB203AA3
:1075300021FA02F00021704721FA02F3D040C2F193
:10754000200291400843194670470000064C074D41
:1075500006E0E06840F0010394E807009847103423
:10756000AC42F6D3FFF750FE4C3303006C330300FC
:1075700070B58C1810F8015B15F0070301D110F8F5
:10758000013B2A1106D110F8012B03E010F8016B22
:1075900001F8016B5B1EF9D12B0705D40023521EA5
:1075A0000DD401F8013BFAE710F8013BCB1A921C0D
:1075B00003E013F8015B01F8015B521EF9D5A1420B
:1075C000D8D3002070BD00002DE9FC410025DFF874
:1075D000948000954FF4807601242F460195304623
:1075E00005F06AF938B1D8F80403204203D03046D8
:1075F00005F058F92543361D64007F1CB6B2082FEC
:10760000EDD34FF4BE74204605F056F948B120463C
:1076100005F048F945F000456A460221002005F0D2
:10762000EBF815F0FF0F16D0012600242E420ED0E5
:1076300008EB8401D1F81005D1F81015C0F305202E
:10764000094AC1F3014152F8242002B19047760063
:10765000641C082CEAD3002D02DA684607F0E8FF24
:10766000BDE8FC8100600040642B002070B54FF441
:107670008076304604F098FC114CB50560B1304678
:1076800004F099FC0120C5F80803607920B90120B5
:1076900060712168002088474FF48276304604F0FC
:1076A00083FC00280AD0304604F085FC0220C5F88F
:1076B00008032168BDE870400120084770BD000044
:1076C000A823002002490248091F096800680847EA
:1076D0002824002000F04EB970B50E46144900EB86
:1076E000400001EBC0051446E86A183520B10128B6
:1076F0000FD0022805D113E0284600F06FF9A04210
:1077000001D2002411E022463146284600F09EF9BD
:107710000BE0284600F062F9A042F4D20446F2E7FA
:107720003146284600F065F90446204670BD000049
:10773000E833002010B50021064A084600F09EFC00
:10774000002806D0BDE8104003A240F28711FFF7E1
:1077500063BD10BD618302002E2E5C2E2E5C2E2E8A
:107760005C2E2E5C636F6D706F6E656E74735C73F0
:107770006F66746465766963655C636F6D6D6F6E6B
:107780005C6E72665F7364682E63000030B54FF004
:1077900080520023D2E94C10082906D1CC06C4F847
:1077A0000C31C4F81031624C2360082955D1614B6B
:1077B0001B68614C23605F4B1B1D1B68241D2360ED
:1077C0005C4B08331B68241D23605A4B0C331B6829
:1077D000241D2360574B10331B68241D2360554B19
:1077E00014331B68241D2360524B18331B68524C02
:1077F000203423604F4B1C331B68241D23604D4BEA
:1078000020331B68241D23604A4B24331B68241D2E
:107810002360484B28331B68241D2360454B2C33C1
:107820001B68241D2360434B30331B68424C40349B
:107830002360404B34331B68241D23603D4B383399
:107840001B68241D23603B4B3C331B68241D2360B5
:10785000384B40331B68241D2360082904D10300E2
:1078600002D1374C354B2360082904D1030002D1E3
:10787000344CFB232360082908D1030006D1324B86
:1078800092F858521C6865F303041C60082904D15F
:10789000030002D12D4C8B012360082906D12C480E
:1078A0000168C90702D06FF0010101602948016831
:1078B00041F470010160BFF34F8FBFF36F8FD2E9C6
:1078C0004C104FF01022082906D1042804D9D2F810
:1078D0000802174920310860D2F80002002803DBB3
:1078E000D2F8040200281FDA012005F0DFFF122180
:1078F000C2F8001218480368002BFCD0C2F804122A
:1079000001680029FCD0002005F0D0FFBFF34F8FA5
:1079100010487C380168114A01F4E06111430160AC
:10792000BFF34F8F00BFFDE70E490D48086030BD23
:10793000380500400404001020C5004048810300C1
:107940008C56004018F50040E40E0040409602407E
:107950000004004088ED00E000E401400400FA0566
:107960000090D003D42400200148006800470000A4
:10797000B023002010B5124C02202061606111A0DC
:10798000A06104F17800E0614FF4007020620020F3
:10799000A06260620BA1A164E06204F51E71E16463
:1079A0001021A065C4E91410E06509A1E01DFFF7EE
:1079B000B3FD08A12046FFF7AFFD2020A07110BD48
:1079C000E83300205465726D696E616C0000000040
:1079D0005254540053454747455200000269C1685C
:1079E0008A4203D88068401A104400E0501A401EB2
:1079F00070472DE9F047C4681746894606464FF0A0
:107A000000083069A04201D9051B02E0B168201AC4
:107A10000D1AB0686D1E001BA84200D80546BD4275
:107A200000D33D4670682A4620444946FFF72EFDA4
:107A3000B0687F1B2C44A844A944A04200D1002474
:107A4000F460002FDDD14046BDE8F0872DE9F0411C
:107A500004468846D4E90207C51BE16860681646FB
:107A60000844B54206D94146FFF710FDB819E06059
:107A7000BDE8F0812A464146FFF708FD761B08EB7A
:107A8000050132466068FFF701FDE660F0E702E0BD
:107A900008C8121F08C1002AFAD170477047002099
:107AA00001E001C1121F002AFBD1704701212028EB
:107AB00003DA81400548014003E0402802DA20381B
:107AC000814009B10120704700207047FC06FFBDCE
:107AD0002DE9F843804643F2020669B9694606F08B
:107AE0005DFFB04204D018B128A2B221FFF794FB89
:107AF0009DF80000800746D40021404606F058FF5C
:107B0000050040D0112D3ED030483149401AC708F9
:107B1000022000EB07440D2D0AD00B2D1DD0B542DD
:107B20001FD12C4920464246BDE8F84305F0B0B8C5
:107B300020464246284905F0ABF81321404676DF3F
:107B4000002820D005F03CFD024601B02046434607
:107B5000BDE8F04321A105F0A2B8204642462D49D8
:107B6000E2E7284605F02CFD0246012000EB074025
:107B7000434629A105F093F82846BDE8F84303A23F
:107B8000E121FFF749BBBDE8F88300002E2E5C2EF3
:107B90002E5C2E2E5C2E2E5C636F6D706F6E656E8C
:107BA00074735C626C655C706565725F6D616E615B
:107BB0006765725C706565725F6D616E6167657245
:107BC0005F68616E646C65722E630000CC330300E5
:107BD0007C330300042503009024030073645F6278
:107BE0006C655F6761705F646973636F6E6E656318
:107BF0007428292072657475726E6564202573205F
:107C00006F6E20636F6E6E5F68616E646C652025B9
:107C1000642E000050250300417373657274696E11
:107C2000672E20706D5F636F6E6E5F736563757234
:107C30006528292072657475726E6564202573202D
:107C40006F6E20636F6E6E5F68616E646C65202579
:107C5000642E000010B560B159B102780B7852085B
:107C6000B2EB530F05D10622401C491CFFF747FC1D
:107C700008B1002010BD012010BD800701D00020F8
:107C8000704701207047C3688B4206D811440069D1
:107C9000491E814201D80120704700207047000032
:107CA00010B5224886B0204901601C218180002443
:107CB0008460848118216846FFF70FFC01208DF84D
:107CC00000009DF801106A4621F003018DF80110B3
:107CD0004FF49671CDE901418DF814408DF81500EF
:107CE0008DF816009DF81700ADF80C4020F01F002D
:107CF0008DF817000C488DF80E408DF80F40049455
:107D00000A49001F72DF18B109A2E421FFF784FAC3
:107D100010481149401AC008032101EB00400FA18F
:107D200004F0B2FF06B010BDBC2200201C270020CA
:107D30002E2E5C2E2E5C2E2E5C4861726477617252
:107D4000655C7372635C757365725F626C652E63EC
:107D5000000000008C3303007C330300416476652F
:107D60007274697320696E697469616C697A61748F
:107D7000696F6E20656E642E0000000010B5012250
:107D80000221002001F09CF808B1072810D1072239
:107D90000221012001F094F808B1072808D1002140
:107DA0000A22084601F08CF808B1072800D100200B
:107DB00010BD70B58CB015460E4600236C46C3F15D
:107DC0000F01415CE1545B1C102BF8D30D2104F131
:107DD0001000FFF782FB0020C0F10F02315C22444B
:107DE000401C11740328F7D3684646DF0020C0F119
:107DF0000F01214491F820102954401C0328F6D388
:107E00000CB070BD0149C97800F0A4BC88230020E3
:107E100070B50024064D06E06868012110F83400B2
:107E200005F042FC641C28788442F5D3002070BD24
:107E3000B8230020F8B516460C4605460A2A01D29A
:107E40000720F8BD05F028FD18B905F0E9FC002869
:107E5000F7D1134F202113487D603C70BE60FFF7BF
:107E60003CFB0020C7E904000F4E0DE005EBC40009
:107E70003168009181788DF8011000780B4A6946CD
:107E800005F05EFC0028DCD1641EE4B2EED2BDE851
:107E9000F84005480021064A001D00F091B9000095
:107EA000B8230020D02B00209C180300D5AB020083
:107EB000E1990200FEB515460E46074672B604F07B
:107EC000A5FF00BF04F0C6FD0028FBD12249234ACC
:107ED0000120891AC90800EB0144012F22D06FF458
:107EE0008050381821D0B0F5405F23D06FF4405156
:107EF000C842204605D1D5E9003219A104F0CFFED1
:107F000003E032461DA104F0C3FE22480068C0070A
:107F100000D000BE2A4603B031463846BDE8F040E6
:107F200000F07AB820461CA101E0204622A104F00E
:107F3000ABFEEAE7A86805F043FB0346D5E900017C
:107F4000CDE900100296204624A1AA6804F0C2FEE2
:107F500020462CA1EBE70000443403007C330300EF
:107F6000415353455254494F4E204641494C454494
:107F70002061742025733A2575000000554E4B4E44
:107F80004F574E204641554C54206174203078257F
:107F900030385800F0ED00E0534F46544445564900
:107FA00043453A20415353455254494F4E20464190
:107FB000494C454400000000534F4654444556493F
:107FC00043453A20494E56414C4944204D454D4F7A
:107FD0005259204143434553530000004552524FEC
:107FE00052202575205B25735D2061742025733A2E
:107FF00025750D0A50432061743A203078253038B9
:1080000078000000456E64206F66206572726F72A2
:10801000207265706F72740008B501238DF800300E
:108020009DF80030144B186059609A606FF48041DD
:10803000401807D001280FD1DA60D868006898612D
:10804000D86807E01A611869806858611869006883
:10805000986118694068D861186858689868D86845
:10806000186958699869D86972B600BF9DF8000010
:108070000028FBD162B608BDF02B00202DE9F84F97
:108080002C4C8146924660880E4681424FD800278C
:108090004FF6FF788DF80070684600F021F92278DD
:1080A0006078A188884201DA401C00E00020C0B25C
:1080B000904204D19DF8000000F036F935E0657873
:1080C0006078884201DA401C00E00020607020786F
:1080D0006278824201D3101A02E0081A1044401C50
:1080E000E18880B2884200D9E0809DF8000000F06D
:1080F0001BF9454519D0A068B9F1000F40F835A02B
:108100000DD066B16188E068324605FB0100494642
:10811000FFF7BCF9A06800EBC500868002E000EB29
:10812000C50087800020BDE8F88F0420FBE7092008
:10813000F9E70000F023002010B50E4C03E0401CCE
:1081400000E00020207020786178814210D02278F1
:108150006188E068A36802FB010003EBC20153F8E9
:108160003220898890472078A1888842E9DAE6E7BA
:1081700010BD0000F023002030B5CB0008339DB2C5
:1081800093074FF0000401D0072030BD054B9A60E3
:108190002A44DA605C701C7058809980DC80002072
:1081A00030BD0000F02300200148C0887047000067
:1081B000F0230020014801F07ABC000008240020D0
:1081C00010B55AB100684FF0FF3401294261C0E98F
:1081D000024400D000210161002010BD072010BD25
:1081E00038B5114808235822416800910F490068AA
:1081F00003F0B7FC002815D10D4A69460D4801F07F
:108200005BFC04000ED101210A4801F0D0FC0123DF
:10821000094A1946074801F022FC0649012008399D
:108220008870204638BD0000A4180300202C0020D0
:1082300019FD020008240020FFFF7F00014800789C
:108240007047000000240020F8B5044600261746B9
:108250000D468DF80060684600F042F8D4E902014E
:10826000C04370EA010005D09DF8000000F05CF802
:108270000020F8BD02F094FC40197141C4E90201EC
:108280009DF8000000F050F8A761206900B1256159
:108290002146BDE8F840002008F046BE38B5044647
:1082A00000208DF80000684600F01AF8D4E90201B9
:1082B000C04370EA01000DD04FF0FF30C4E9020066
:1082C0009DF8000000F030F82146BDE8384001205C
:1082D00008F02ABE9DF8000000F026F8002038BD06
:1082E00030B5EFF3108172B60D4A9468012324B1C2
:1082F0000370002900D162B630BD93604FF0E023D7
:10830000D3F88051074C25401560C3F88041D3F85D
:10831000844154605A17C3F8842100220270E8E7B0
:10832000782C0020FC06FFBD0B498A68002A11D07A
:1083300000280FD1EFF3108072B60B684FF0E022E7
:10834000C2F800314B68C2F8043100228A6000286C
:1083500000D162B670470000782C002003F07AB993
:1083600005F05EB82DE9F047814605884A484FF090
:1083700000088AB001784246284600F003FA99F8CE
:108380000500400701D4002176E005F58077B8B2FA
:1083900005AB0122072105F033FF04003F48404AA6
:1083A0004FF00101A0EB02004FEAD00001EB0046C4
:1083B0000AD0204605F004F9024630462B463949DA
:1083C00004F06DFC214629E0284602F0F1FE4FF64C
:1083D000FF71044688422BD18A46069802F052FE6D
:1083E0000446504510D00146284602F0C1FE2846FA
:1083F000FFF708FDE0B9284607F07AFF2846FFF7A7
:1084000001FD0028BFD013E006F0D0F80446504527
:1084100008D1304624A104F037FC0421284607F097
:1084200095FFB0E70146284602F0A2FE4FF0010892
:10843000B8B22246072105F05BFF07001BD0862F4C
:108440001ED005F0BDF8024630462B462349009465
:1084500004F02DFC3946284607F078FF00214846F5
:1084600005F0C6FDB8F1000F02D0204602F08AFEEA
:108470000AB0BDE8F0870121484605F0B9FDF7E7ED
:10848000142217496846FFF701F8ADF80250684614
:1084900001F0AEFDEFE7000088230020D433030095
:1084A0007C3303004C280300436F756C64206E6FAF
:1084B0007420616C6C6F63617465206E65772070E9
:1084C0006565725F696420666F7220696E636F6DA7
:1084D000696E6720626F6E642E00000068290300D9
:1084E000401803002DE9F041214E4FF4C8744FF4B9
:1084F0007A47751C3846A847641EFAD14FF480416C
:108500001C4804F04DFC18B11BA23D21FEF784FE6F
:1085100004F092FA1C481D49154A401AC10804206B
:1085200000EB01400446921D19A104F0B1FBFFF7D6
:1085300057FE18B110A24121FEF76EFE174A142112
:108540001020FFF719FE18B10BA24321FEF764FEBD
:1085500004F04AFD18B108A24521FEF75DFE204651
:10856000BDE8F041024A0EA1921D04F091BB00004B
:10857000B0160300B58102002E2E5C2E2E5C2E2E2E
:108580005C6D61696E2E63007C3303007C330300F5
:10859000456E746572202573202E0000F42400209F
:1085A00045786974202573202E00000038B5002915
:1085B00024D0002822D00288502A1FD10546487CAA
:1085C0000C4600281AD0E9886289A81D914215D16D
:1085D0004189022912D1216800290FD00C3000F006
:1085E0001FFC08B1002000E001208DF80000A888E1
:1085F000ADF80200226869462046904738BD000069
:1086000070B5040012D001461C221448FEF73EFF4C
:108610001248134D0560206850B17ADF002806D15A
:108620002068016829604068686005E00E2070BD20
:108630000B487BDF0028FAD108484FF6FF71143849
:10864000084A20F8041B0549343901600021FFF76E
:10865000B7FD0028EBD0032070BD0000D427002018
:10866000E02200203511030010B5044600F0A6F802
:10867000002805D02146BDE81040024803F0F0BABA
:1086800010BD00000028002070B515460E460446B7
:1086900008F084FD002809D0054800EB8400C0697B
:1086A0002A463146BDE8704001F0F6BE70BD0000BC
:1086B000F027002010B5044600F080F8002805D00F
:1086C0002146BDE81040024803F0CABA10BD0000C0
:1086D0000828002010B5044600F070F8002805D0E6
:1086E0002146BDE81040024803F0BABA10BD0000B0
:1086F0000428002070B50546002400F05FF838B16A
:108700002946044803F0ACFA08B1022400E0012431
:10871000204670BDFC27002070B50546002400F0FF
:108720004DF838B12946044803F09AFA08B10224FA
:1087300000E00124204670BDF827002010B5182164
:10874000034803F068FA182800D0C0B210BD00003A
:10875000F027002070B505460C46084608F01EFDBF
:1087600060B1284600F02AF840B10548294600EBE0
:108770008400BDE870401C3003F072BA002070BD68
:10878000F027002070B5054616460C46084608F04E
:1087900005FD00280ED0284600F010F8002809D06A
:1087A0000548324600EB84002946BDE870401C3085
:1087B00001F054BE70BD0000F0270020142801D342
:1087C000002070470146014803F04ABAF427002010
:1087D00002A24FF4A571FEF71FBD00002E2E5C2EE5
:1087E0002E5C2E2E5C48617264776172655C7372D8
:1087F000635C757365725F626C652E6300000000D8
:10880000007800280AD106481321408876DF002826
:1088100004D004A240F23711FEF7FEBC70470000FE
:10882000B82200202E2E5C2E2E5C2E2E5C4861720B
:1088300064776172655C7372635C757365725F62A5
:108840006C652E630000000038B54249424B028837
:10885000C91AC90803233E4D03EB0144212A34D031
:1088600006DC102A10D0112A21D0132A06D13BE0B1
:108870003B2A53D0522A44D0562A5AD02046BDE82B
:10888000384036A104F004BA81886980374803F083
:1088900013FB18B136A25821FEF7BEFC0E2002F0E1
:1088A000F0FD0F2002F013FE20463AA14BE04FF6F8
:1088B000FF70688008F09CF90E2002F008FE0F207F
:1088C00002F0DFFD204638A13DE0002100918088C4
:1088D00069468FDF18B126A26B21FEF79DFC20466A
:1088E00037A104F0D1F938BD00231A4685216888E4
:1088F0007FDF18B11EA26F21FEF78EFC204635A146
:1089000021E000231A4619466888B1DF18B118A281
:108910007321FEF781FC204638A114E080881321E2
:1089200076DF18B112A27721FEF776FC204640A12F
:1089300009E08088132176DF18B10DA27B21FEF7B4
:108940006BFC204640A1BDE8384004F09DB9000012
:10895000B82200208C3303007C330300424C4520B6
:108960004556454E542049443A25640010270020BE
:108970002E2E5C2E2E5C2E2E5C4861726477617206
:10898000655C7372635C757365725F626C652E63A0
:1089900000000000436F6E6E656374656420746F41
:1089A00020706565722E0000446973636F6E6E659A
:1089B000637465642066726F6D20706565722E0049
:1089C0005048592055706461746520526571756511
:1089D00073742E005265717565737420746F207006
:1089E000726F766964652073656375726974792046
:1089F000706172616D65746572732E0041207065DF
:108A00007273697374656E742073797374656D2005
:108A100061747472696275746520616363657373F0
:108A20002069732070656E64696E672E0000000017
:108A30004741545420436C69656E742054696D65D8
:108A40006F75742E00000000474154542053657226
:108A50007665722054696D656F75742E0000000094
:108A600010B51A4C0188606810290ED011292BD13D
:108A7000401E606028D1FFF781F9002824D02168CA
:108A8000002921D0BDE810400847D0B900210122BB
:108A9000084600F015FA08B107280FD10722022175
:108AA000012000F00DFA08B1072807D104220221A5
:108AB000002000F005FA20B1072802D0216801B19A
:108AC00088476068401C606010BD0000D82200200C
:108AD0002DE9F04701883B4E40F2F3194FF6FF7540
:108AE00010291BD011293ED0122954D0502946D12B
:108AF000C188F289841D914241D1618902293ED108
:108B00008688304602F000FC050038D004F10C00E5
:108B100000F086F9A8B3294630464EE0C17B87882D
:108B2000044601292BD1A846284602F0EDFB05009A
:108B300017D02F8000202872234843464A460168F8
:108B4000C5F80A104068C5F80E0004F1100105F1DF
:108B50000A0002F059FC6872F08900280FD12946FA
:108B60002AE0042013E0808802F0CEFB040006D047
:108B70006068FFF793FB08B107F0CCFB2580BDE8E8
:108B8000F087FFE76868FFF789FB0028F7D0BDE8AA
:108B9000F04707F0BFBB87880646384602F0B4FBB3
:108BA0000400ECD02B464A4606F1080104F10A0005
:108BB00002F02AFC607221463846BDE8F04700F01A
:108BC000AFBD0000D4270020E02200202DE9F04FA7
:108BD000044686880188434897B0834610290CD004
:108BE000112952D0103019296CD01A2976D1217A46
:108BF0000C09042C4FD301224EE03A4D083DA868E1
:108C0000C0430B9069680BA803F04EF80B990CA8B1
:108C100000F066FD2C220CA96846FEF737FC002701
:108C2000E946A84610E000BF09EB47005FF00005E9
:108C3000B0F804A008EB85005146001D02F0D0FFFB
:108C40006D1C1E2DF6D37F1C0098B842ECD8142E54
:108C500007D317B0F021BDE8F04F23A20420FEF7A0
:108C6000DBBA3146584603F006F8314608F10400F5
:108C700003F001F8E07B022830D117B03146BDE89F
:108C8000F04F1848001D02F0F6BF17B03146BDE89E
:108C9000F04F02F0A5BF0022314601F0DFFB032CAC
:108CA00001D3012200E000220E4831460C3001F0D1
:108CB000D5FB022C01D3012200E0002209483146F5
:108CC000083006E0217A002908D1617AC1F3C00298
:108CD000314617B0BDE8F04F01F0C0BB17B0BDE89A
:108CE000F08F0000F82700202E2E5C2E2E5C2E2EFA
:108CF0005C2E2E5C636F6D706F6E656E74735C625C
:108D00006C655C636F6D6D6F6E5C626C655F636FED
:108D10006E6E5F73746174652E63000070B51F4ED4
:108D2000044686B07078002836D02088A5881028A0
:108D300011D031782846FFF70DFD00282CD12046B0
:108D400002F012F9204607F085FC06B02046BDE887
:108D5000704001F061BD00208DF80000142101A8D1
:108D6000FEF7BBFB01208DF804004FF6FF70ADF855
:108D7000080004F108000390ADF80650CDF810D0BB
:108D800001A801F01FF99DF8002031782846FFF76F
:108D9000F9FC9DF80000D0E706B070BD1823002054
:108DA00038B50288102A15D0112A15D0502A16D1AC
:108DB00030F8062F8B899A4211D10C46418902293D
:108DC0000DD1216800290AD00C3000F029F838B103
:108DD000002006E0808801E04FF6FF70088438BD6F
:108DE00001208DF80000226869462046904738BD72
:108DF00002A24FF48571FEF70FBA00002E2E5C2EF2
:108E00002E5C2E2E5C48617264776172655C7372B1
:108E1000635C757365725F626C652E6300000000B1
:108E2000007800F00100704708B50020009004F0C1
:108E3000BDFA18B10FA23E21FEF7EEF969460120F6
:108E400004F026F918B10BA23F21FEF7E5F96846B8
:108E500004F09EF918B107A24021FEF7DDF90E4893
:108E60000E49401AC008032101EB00400CA103F099
:108E70000BFF08BD2E2E5C2E2E5C2E2E5C486172E0
:108E800064776172655C7372635C757365725F624F
:108E90006C652E63000000008C3303007C330300FC
:108EA000424C4520737461636B20696E697469611B
:108EB0006C697A6174696F6E20656E642E000000C3
:108EC00070B50023042810D20D4D00EB4004012A98
:108ED00002D101290CD00022094E00EB40003044A1
:108EE00061B1012906D0022906D00723184670BDBA
:108EF0000E30C2B22A55F9E74270F7E78270F5E703
:108F0000902700202DE9F84F0546C61C00208DF85B
:108F1000000091460F464FF0010A6846FFF7E0F95E
:108F20001B4C04F21C4860683860D4E90101194FF9
:108F3000401A3968081A0EE00121404602F0AEFEE0
:108F400002F070FC0146404602F0A8FED4E901019F
:108F5000401A3968081A401C8642EDD8B9F1000F52
:108F600003D0052065F3891002E0062065F39F50C9
:108F700061683A68114004EB8101C8606068304460
:108F800060609DF80000FFF7CFF95046BDE8F88F0C
:108F9000C82F00207C24002070B50D4604460A2905
:108FA00002D10D21FFF7F8FFA0682268411CA160E3
:108FB0001554D4E90101814204D32046BDE8704034
:108FC00003F0A1B870BD0000044881684068814288
:108FD00001D101207047002070470000C82F0020F9
:108FE0002DE9FE4F0F46804600F018F93E493F4AF2
:108FF000DFF8F0A0891AC908042202EB014578B90C
:10900000002240F23331DAF80400FFF71DF918B1FD
:1090100037A26A21FEF700F928463DA103F034FE8D
:10902000424E424600203378F1680CE000EB4004E9
:1090300011F82440944204D100EB400001EB80047D
:1090400004E0401CC0B29842F0D300240120A0727A
:10905000607A716804286068CDE90001214A2378AC
:109060004FF00709284602F1080237D830A103F073
:1090700027FE207A012814D19FB9606871680A1A06
:10908000082A0CD8627A521C6272CDE90001154A96
:1090900023782846083230A103F012FE01E084F85C
:1090A0000990277270680F4A60602846083234A120
:1090B00003F0EEFDDAF8000002908DF808808DF8DC
:1090C0000970354A032102A8FEF7D8FF002803D013
:1090D00007A28F21FEF7A0F8BDE8FE8F2FA103F0B5
:1090E000EFFDDCE7D4160300843303007C33030078
:1090F0002E2E5C2E2E5C2E2E5C486172647761727F
:10910000655C7372635C627574746F6E2E630000CD
:10911000537461727420627574746F6E5F706F6CDB
:109120006C696E672074696D65722E00A82200203C
:10913000312E25732070696E3A2564202020706FCF
:109140006C6C696E673A256420202074696D655FD8
:10915000636E743A25642E00322E25732070696E7A
:109160003A2564202020706F6C6C696E673A256424
:1091700020202074696D655F636E743A25642E004B
:10918000342E2573204572726F7220736368656494
:10919000756C652E00000000C5910200332E25730A
:1091A0002070696E3A2564202020706F6C6C696EA7
:1091B000673A256420202074696D655F636E743A98
:1091C00025642E002DE9F04107460024074D084E86
:1091D00007E000BF55F8241009B138468847641CE1
:1091E000E4B270788442F5D3BDE8F081EC2600202B
:1091F000A8220020034630B50748002104784268C1
:1092000006E000BF02EBC10005789D4203D0491C77
:10921000A142F7DB002030BDB82300200749002021
:10922000CA68097804E0937A012B05D0401CC0B2CB
:109230008842F8D30020704701207047A822002000
:109240002DE9F0410C46050039483A499046A0EB1B
:1092500001004FEAD0004FF0010101EB004712D0AE
:109260008CB1E00002F0A8FB334EB06070B104EBAB
:109270004400800002F0A0FBF06050B13470002187
:10928000B6680A4624E038462C4904E038462C49A2
:1092900001E038462B4903F0F7FC0020BDE8F081DF
:1092A00001EB4107EB5D00F8273000EB87032F440B
:1092B0005A601A725A729A7206EBC103B7F800C06C
:1092C000A3F800C0BF789F701F4F491CC9B25F60F0
:1092D000A142E5D34FEAC8304FF47A724FEA5841C1
:1092E000801841F1000152000023FEF78BF802467E
:1092F00021463046FEF79EFD20B114A24FF4837143
:10930000FDF78AFFFEF784FD20B110A240F207119D
:10931000FDF782FF154A01211548FEF751FF20B1E4
:109320000AA24FF48471FDF777FF0120B6E7000031
:10933000843303007C330300A8220020301C030088
:10934000901C0300EC1C0300E18F02002E2E5C2E0B
:109350002E5C2E2E5C48617264776172655C73725C
:10936000635C627574746F6E2E6300007593020007
:10937000D81603002DE9FC475448564A0027416897
:109380003E46491C41605249B946891ACA0804211F
:1093900001EB024480467BE0C36806EB460503EB25
:1093A00085014A7A082A71D2DFE802F004272727CC
:1093B000272758584A68D8F80400801A482865D3E7
:1093C000087A012862D1062048728DF8060013F849
:1093D00025008DF80400404A032101A8FEF74EFE47
:1093E00018B13EA2AE21FDF717FF9DF804302046CC
:1093F000424A43A103F053FC48E04968D0F804C056
:10940000ACEB0101082941D30092074613F825303F
:1094100020463A4A41A103F04AFCF8682E4A10F867
:1094200025108DF8041000EB85000321407A8DF89B
:10943000060001A8FEF722FE18B128A2BC21FDF704
:10944000EBFED8F80C10012701EB850181F809909B
:1094500081F80A90D8F80400486017E04A68436829
:109460009A1A102A12D3087A80B92046234A32A1C8
:1094700003F00EFCD8F80C00012700EB850080F803
:10948000099080F80A90D8F804104160761CF6B272
:1094900098F8001040468E42FFF47EAF002F12D0A5
:1094A000FFF7BCFE00280ED1204628A103F0ECFBFC
:1094B00012481D384068FEF7F1FE002803D007A2CD
:1094C000D521FDF7A9FEBDE8FC870000A8220020F9
:1094D000843303007C330300C59102002E2E5C2EE2
:1094E0002E5C2E2E5C48617264776172655C7372CB
:1094F000635C627574746F6E2E630000F116030076
:10950000312E25732070696E3A25642020206C6FFF
:109510006E672070726573732E000000322E257303
:109520002070696E3A25642020207374617475730D
:109530003A25642E00000000332E257320627574D6
:10954000746F6E206572726F722E000053746F70AC
:1095500020627574746F6E5F706F6C6C696E6720DB
:1095600074696D65722E00001CB5044601F020FE82
:1095700000236A46092104F085FF052805D1034828
:10958000012241792046FFF7FDF81CBDE8220020AA
:109590001CB504460020009042F6A620ADF800005D
:1095A00001208DF80200084801AA69460068019070
:1095B0002046A0DF002805D10448012281792046F9
:1095C000FFF7E0F81CBD000008170300E8220020A8
:1095D00005494FF0FF32082841F8202002D3084403
:1095E00080F8582070470000642B0020F0B54FF041
:1095F000FF3512B10023082601E008230C260C4C8D
:1096000005E000BF54F823707F1C04D05B1CB342FC
:10961000F8D32846F0BD26185DB286F8305044F8DD
:109620002310002AF5D1E11881F85800F1E7000075
:10963000642B00200249084490F930007047000074
:10964000642B002070B504464FF6FF750A46284685
:10965000AC4209D14FF480742146104602F0DBFA87
:1096600080B2A0420BD070BDFF2CFCD82146104622
:1096700002F0C1FA90F0010F01D0204670BD2846DB
:1096800070BD000070B5084C050009D01034216889
:10969000002907D008682060496828468847F6E70F
:1096A0000834F4E770BD0000502B0020054A01216A
:1096B00020B1012805D19170FFF7E4BF517000205F
:1096C000FAE77047502B002010B5D0E90234D1E9F9
:1096D0000220D11AA04101D3012010BD002010BDED
:1096E00073B58CB00646002000900D9880B1002420
:1096F0006D4621460DA802F0B3FA30B1009805EB93
:10970000400084800098401C0090641C142CF0D30E
:109710002C2269463046FDF7B9FE0EB070BD000040
:1097200038B54A7A0F4B62B100220A725969002992
:1097300006D001228DF80020ADF802006846884767
:1097400038BD0A7A62B19B684C68024619462046C9
:10975000FEF77AFD0028F3D0BDE8384006F0DABD08
:109760005B68F1E7D4270020F0B585B016460F46B8
:1097700004461D4614220B496846FDF787FE0A4839
:109780008DF80870ADF80240ADF80A608DF80C5005
:10979000017800222046FEF7F5FF684600F028FC1D
:1097A00005B0F0BD5418030088230020FEF790B9DF
:1097B00000B587B01C216846FDF78FFE00204FF4EE
:1097C000A021CDE900018910029103218DF80C1030
:1097D000ADF80E008DF81000074805900748069078
:1097E0006846FEF70DFF002804D005A240F22511BF
:1097F000FDF712FD07B000BD01880200D18702000D
:109800002E2E5C2E2E5C2E2E5C4861726477617267
:10981000655C7372635C757365725F626C652E6301
:1098200000000000F0B50C4606461E481E4987B0F1
:10983000401AC708042000EB0740334622461BA10C
:1098400003F02DFA002004900590ADF8104001902F
:109850000290ADF8124001AA04A9304690DF05003D
:109860001DD003F0ADFE0346012000EB0740044687
:1098700032461A4903F013FABDF8042012B9BDF8B4
:10988000060028B1BDF80630204615A103F007FAFE
:10989000BDF808201AB12046214903F0F9F907B0B4
:1098A0002846F0BDAC3303007C330300557064617F
:1098B00074696E672064617461206C656E6774689A
:1098C00020746F202575206F6E20636F6E6E656348
:1098D00074696F6E20307825782E0000B820030060
:1098E0005468652072657175657374656420545899
:1098F0002F5258207061636B6574206C656E6774BD
:109900006820697320746F6F206C6F6E67206279B6
:109910002025752F2575206F63746574732E0000E4
:109920000421030070B504460948012102F0D1F971
:10993000BFF35F8F0025002808D1204601F0E6FE26
:10994000002803D1BFF35F8F0148056070BD0000A0
:10995000F42200202DE9FF410C4620B14FF40640CF
:1099600004B0BDE8F0812079002748F2096538B1DC
:1099700041F61D5601281BD0022826D0681DEFE7AE
:109980000220207102970397E0680190694601A8C0
:1099900006F0D8F850B102988188E18000882081D3
:1099A000BDF80010029806F04BF9D9E72846D7E732
:1099B0000A4B6A460021A01D06F07CF838B1074921
:1099C00018398F61CF61A842CAD13046C8E7034831
:1099D0008188019806F034F9F5E70000482400205A
:1099E00070B500240F4D10E0686800EBC4063078B5
:1099F00003F00EFF7178012901D0012100E0002160
:109A00004140307800F048FA641C28788442EBDB4F
:109A1000D5E90401084303D0BDE8704007F0B6BAA9
:109A200070BD0000B823002010B50021024802F0EC
:109A300050F980F3100010BDE43300204FF4803261
:109A40008A400168C1F848230068C0F808237047BD
:109A50004FF4A07202EB810189B200F08DBA2DE9BA
:109A6000F04105460E464FF4A07000EB860081B22F
:109A700028684FF48034B440984622F07F47C0F8FD
:109A800008432868C0F84843286803F0F1FA2868BA
:109A900000EB8600C0F840752868C0F84443B8F170
:109AA000000F02D02868C0F80443BDE8F0810068C8
:109AB000D0F804057047000070B54379234C44F892
:109AC00023204279231D03EBC202224C1579204A40
:109AD000121BD4082DB10825022000EB04401EA162
:109AE00030E005680A88C5F8082590F904208978CF
:109AF000002A4FEA411104DB02F1E02282F800144F
:109B000005E002F00F0202F1E02282F8141D90F944
:109B100004100122002909DB01F01F0502FA05F5F6
:109B20004909890001F1E021C1F80051417900257E
:109B300003EBC1010A71417943F83100032000EBC6
:109B400004400EA103F0A0F8284670BD2424002094
:109B5000243403007C33030052544320696E737431
:109B6000616E636520616C726561647920696E69FC
:109B70007469616C697A65642E0000005254433A3E
:109B800020696E697469616C697A65642E000000F1
:109B900090F90400002809DB00F01F020121914028
:109BA0004009800000F1E020C0F8001270470A462A
:109BB000022100F067B94FF4827100F0DDB900684E
:109BC00001210160704700680121416070472DE963
:109BD000F05F07460C464FF4A07000EB84001FFABC
:109BE00080FA38684FF48036A6409B4622F07F45C5
:109BF000C0F848633868C0F808633868D0F804854E
:109C000000EB8402D2F84095C2F84085514638688E
:109C100003F02EFAA9EB080020F07F40012806D1BE
:109C2000102003F039FD5146386803F021FA3868F6
:109C3000D0F80485C0F84463A5EB080121F07F410A
:109C40003868012900EB840010D0C0F8405538680E
:109C5000D0F804156FF07F4C6A1A521E22F07F4232
:109C6000ACEB0B03934217D362B118E06D1CC0F844
:109C70004055102003F010FD3868D0F80405404529
:109C80000AD10CE000EB84006D1CC0F84055386828
:109C9000D0F80405884202D00D20BDE8F09F0122D3
:109CA0003146384600F0EEF80020F6E713460A4643
:109CB0000021FFF759BD00002DE9F843104D0F4674
:109CC00080461E4691466946286801F05DFF040003
:109CD00014D01C21FDF701FC01202071C4F8149060
:109CE000380BC4F80080C4E902606946286801F0B6
:109CF0006CFF05F04BFE0020BDE8F8830420FBE775
:109D00005019030010B503780022072B06D2DFE8B4
:109D100003F005040610202930000A7010BD01234D
:109D20000B7003898B818388CB81C06888600A743B
:109D300010BD02220A7002898A818288CA81C268A3
:109D40008A60807D062802D00020087410BD0120A2
:109D5000FBE703220A70C2888A810289CA81C0682F
:109D6000886010BD04230B70C0888881CA818A6016
:109D700010BD0520087010BD70B5064D06460024C4
:109D800055F8241009B130468847641C042CF7D3D9
:109D900070BD0000A02C002030B50446006887B0DC
:109DA0000D46806800281FD018216846FDF795FBF6
:109DB0000195A0680590207910B1012810D107E025
:109DC00001208DF8000020690290E068039005E012
:109DD00002208DF80000E0680003029060690490A2
:109DE000206881686846884707B030BDF0B585B007
:109DF00017460C0005463AD0112C38D0082C36D026
:109E00001C481D49401AC6080D2C11D0204603F0ED
:109E1000D7FB0246012000EB06402B46174902F013
:109E20003EFF2A460821684601F062FE02941BE0CC
:109E3000022000EB06402A46114902F029FF2A467B
:109E40000421684601F054FE27B13878C00701D0DC
:109E5000012000E002208DF8080000208DF80C00A1
:109E600041F20110ADF80A00684600F0CFF805B0E5
:109E7000F0BD0000DC3303007C330300342B03000F
:109E8000242A03000368C3F84413002A02D00068A0
:109E9000C0F80413704700002DE9F84F0E4634490E
:109EA000804601EB5001C007097801D00F0901E09D
:109EB00001F00F074FF00009424601204946FDF727
:109EC000D2FADFF8B0A004460D46052F4ED2DFE8E7
:109ED00007F003161B282C00002E47D00121404616
:109EE00006F0A6FE8DF800906846FEF7F9F9504698
:109EF000D0E904120C431543CAE9044532E00EB11F
:109F0000022114E0002112E04EB10321404606F088
:109F10008FFE4046BDE8F84F012107F057B90121F7
:109F200005E0002E22D1042101E02EB1032140469C
:109F3000BDE8F84F06F07CBE0021404606F078FEF2
:109F40000021404607F042F98DF800906846FEF780
:109F5000C7F95046E243D0E904341A4024EA050127
:109F6000CAE904219DF80000FEF7DEF9BDE8F88F8C
:109F7000D02B0020B823002010B5006842581AB139
:109F800003F076F8012010BD002010BD10B5044686
:109F9000408801F00DF9A080024801682046BDE824
:109FA00010400847F022002010B50446808801F0D8
:109FB00049F86080024801682046BDE81040084723
:109FC000002300202DE9F04107460024064E074DEE
:109FD00005E000BF56F8241038468847641C2879ED
:109FE0008442F7DBBDE8F081042B00201823002019
:109FF00010B50446408801F0DBF8A08002480168F3
:10A000002046BDE8104008471418030001490968BC
:10A01000084700009018030070B586B0044614216C
:10A020006846FDF75AFAA0890125A0F54040ADF831
:10A03000040020782F4E062833D2DFE800F03203E8
:10A0400003032C4AA08900F0EDF930B9E08943F60A
:10A05000FE71A0F54040884223D8A07B8DF808000F
:10A06000207803280FD000208DF80900A068039005
:10A07000606850B10A208DF800006068049068465E
:10A0800004F052F90DE00120EEE709208DF8000000
:10A090008DF81050F3E7A08900F0C4F908B1E08909
:10A0A00030B17078002801D004F092FA06B070BD8B
:10A0B000606830B10C208DF8000060680290757007
:10A0C000DDE70B208DF80000BDF8040004F024FB50
:10A0D000F5E7606848B115208DF8000060680290CF
:10A0E0004FF6FF70ADF80400C9E714208DF80000AA
:10A0F000F6E700000423002038B504460F48007836
:10A10000B0B1A4F57F40FF380FD0684605F06EFB74
:10A1100088B10521017001210171C480684605F0F4
:10A1200073FB05F025FC002038BD48F2036038BD04
:10A1300048F2016038BD48F2076038BD5024002065
:10A140000D4808B5007888B1684605F04FFB80B12E
:10A1500006210170684605F057FB0848017809B1EF
:10A160000121017305F004FC002008BD48F20160E4
:10A1700008BD48F2076008BD50240020642D00206F
:10A18000F0B587B014216846FDF7A7F9314C207867
:10A1900018B16846FFF7F0FD5AE0201D01F07BFD85
:10A1A000A0BB40F6F8700168481C02D14FF01020A7
:10A1B00041694FF08050026940694B1C01D100FB9E
:10A1C00002F1254800220161A1F54051C1602349F7
:10A1D00002F02EF9002826D122481C238C22204987
:10A1E000006801F0BEFC03F02BFE05004FF00006F6
:10A1F00015D0022D13D00127062D16D005A805F085
:10A20000F5FAA8B107700C2D1DD200E020E0DFE8C0
:10A2100005F01A121A121A191A191A14161426709D
:10A22000666048F20A6007B0F0BD27706660B0E76C
:10A2300048F20760F7E7067105E0032100E002211C
:10A24000017100E0077105A805F0DEFA05F090FB4A
:10A250000020E8E750240020E024002060190300DB
:10A26000B02C0020C818030038B5040014D069468B
:10A2700005F068FCB0B1BDF8000000EB80010B48B0
:10A2800000EB8100C16851B1A17A41B1C168491E9A
:10A29000C1600020A07238BD48F2046038BD48F2A9
:10A2A000056038BD48F2096038BD00003C2D002033
:10A2B0001FB501A9684605F0FDFB04B010BD07B548
:10A2C00013460A466946002005F0F4FB0EBD07B5AB
:10A2D00013460A460021684605F0ECFB0EBD20B18E
:10A2E00019B1006808600020704748F204607047A8
:10A2F000F8B50D46040018D0BDB1694605F022FC42
:10A30000B0B1BDF800000C4900EB800001EB80000B
:10A3100001210C30666801F0C1FC2E6060680C30D1
:10A3200068600120A0720020F8BD48F20460F8BD0A
:10A3300048F20960F8BD00003C2D002018B103234D
:10A34000002207F079B848F2046070470223002227
:10A3500007F072B8094910B50A69042A0AD0084AF8
:10A36000096942F8210005480121103001F096FCEE
:10A37000002010BD48F20B6010BD0000302400200A
:10A38000A02C00202DE9F84F044624480078D8B1CD
:10A39000F4B112212046FDF7A0F80320DFF88090E9
:10A3A0002080002504F1100804F10E0A05EB850158
:10A3B00009EB810630897189084487B2706803F01F
:10A3C000C9FC032807D009E048F20160BDE8F88F16
:10A3D00048F20460FAE72088401E20806088F16817
:10A3E000084460802089718908442081608938444C
:10A3F0006081C7F58060A18980B2814200D2A081CE
:10A400005346A21D211D2846CDF8008005F036FCDC
:10A410006D1CADB2022DC9D30020D7E75024002017
:10A420003C2D002043F6FE71A0F54040884201D843
:10A43000012070470020704710B5044600781828A6
:10A4400002D1FEF77BF9207010BD10B504460078EC
:10A45000182802D1FEF772F9207010BD0AB101F080
:10A460000ABC01F0BDBB000070B5134600220546D2
:10A47000112900D10122074C33B12179FEF782F96D
:10A4800000226178284600E06178BDE87040FEF760
:10A4900079B9000090230020F7B517460E0011D0BF
:10A4A0000098002560B100242146684601F0D8FBE1
:10A4B00018B1A0B23946B0476D1C641C142CF3D3FC
:10A4C0002846FEBD0020FEBD406805F0AFB9000083
:10A4D0000EB51DA19DF8080020F00F00401C20F0D3
:10A4E000F00010308DF808000F2202A87CDF18B1B0
:10A4F00019A29521FCF790FE802078DF18B116A2F2
:10A500009621FCF789FE0020009001905021ADF8C3
:10A510000400ADF800104FF44860A021ADF806002B
:10A52000ADF8021068467ADF18B10BA29D21FCF746
:10A5300073FE12481249401AC008032101EB004083
:10A5400010A102F0A1FB0EBD4E6F726469635F54EF
:10A55000656D706C617465002E2E5C2E2E5C2E2E47
:10A560005C48617264776172655C7372635C757379
:10A5700065725F626C652E63000000008C3303001F
:10A580007C33030047415020696E697469616C69CE
:10A590007A6174696F6E20656E642E0010B50021BB
:10A5A000094801F001FC18B108A2AE21FCF734FE05
:10A5B0000F481049BDE81040401AC008032101EBC4
:10A5C00000400DA102F060BBFC2600202E2E5C2E68
:10A5D0002E5C2E2E5C48617264776172655C7372CA
:10A5E000635C757365725F626C652E6300000000CA
:10A5F0008C3303007C3303004741545420696E6957
:10A600007469616C697A6174696F6E20656E642E1D
:10A610000000000070B510B14FF4064070BD1C4C36
:10A620000025207B08B1257301E000F0A5F8207813
:10A6300008282AD2DFE800F02904080C1029142287
:10A64000BDE8704000F026B8BDE8704000F082B868
:10A65000BDE8704000F064B8BDE8704000F040B85C
:10A660000620207060880A4900EB8000283901EB41
:10A6700080004068BDE8704003F0C2BB0720207036
:10A680006560BDE8704003F0C9BB48F20E6070BD64
:10A69000642D00201149F0B48A1C00200346A1F16A
:10A6A00028050C18A67A4EB1A37200EB800405EBC6
:10A6B0008404E66816B9247C012C0AD0401C80B2C0
:10A6C0000228EED30B704B804B60F0BC41F61D505E
:10A6D00070471080F0BC00F03DB80000642D0020F1
:10A6E0000C48418801EB8102A0F1280101EB8201B5
:10A6F000CA6852B1052101700748022181800168B2
:10A7000000230122054801F0F7BD042202704968C8
:10A71000F6E70000642D002058240020E0240020EB
:10A7200038B50A49084803240B684268898803EB56
:10A73000810153880470DB1C00201B0400909B0BDC
:10A74000034801F02DFF38BD642D0020582400205F
:10A75000E0240020074910B54888091D05F042FA99
:10A7600018B1BDE81040FFF7DBBFBDE81040FFF7B0
:10A77000B7BF0000642D002070B5194C012120786E
:10A7800008281AD2DFE800F00419191C2529291815
:10A790002089134A401C2081002060802073283AC1
:10A7A00000EB800312F8233043B100232518401C2E
:10A7B00080B2AB720228F3D3217070BD0123F5E79C
:10A7C0006068084940888A88C01C1044888002203C
:10A7D00004E000F009F8062000E00720207070BDBA
:10A7E000642D0020582400200A490948498802683D
:10A7F00001EB81030749283901EB83014B680360B2
:10A800004A6082880A810222828000200874704790
:10A8100058240020642D00202DE9F043064680884E
:10A820003288DFF85C8185B00746502A37D010DCCB
:10A830005449554B06F10A05A1EB03014FEAD1013A
:10A840004FF0020303EB0144352A3AD0362A07D1F0
:10A8500068E0522A02D0542AF9D102E000F0FAFE50
:10A8600082E0142249496846FCF710FEADF80270F8
:10A87000384600F09DFCADF8040000F0C9F9002254
:10A88000444698F804103846FDF77CFF0022E17832
:10A890003846FDF777FF6846FFF778FB64E0307BCA
:10A8A000012861D1B07A01285ED13089A0F5245108
:10A8B000023959D10121384600F020FF06F022FC70
:10A8C00052E098F80610FDF745FF00284CD0002212
:10A8D00098F806103846FDF755FFF288B2F5857FE7
:10A8E00017D012B120462AA10BE02A88012A03D0F2
:10A8F000204636A102F0CCF96A88012A04D020460D
:10A9000041A102F0C5F904E0A98800223846A1DF80
:10A9100008B1002125E0012298F807103846FDF71C
:10A9200031FF21E04FF0000998F80710FDF712FF02
:10A93000D0B1002298F807103846FDF723FFF288BF
:10A9400012B1204612A104E0AA88012A04D02046B0
:10A950002DA102F09DF903E0A87900B10120814604
:10A960004946384606F0D2F90022364998F80200E6
:10A97000FDF78AFE05B0BDE8F04305F023BD0000F9
:10A98000E8220020943303007C33030060170300A7
:10A99000556E657870656374656420474154542032
:10A9A000737461747573207768696C65206765746A
:10A9B00074696E672043415220636861722076613A
:10A9C0006C75653A20307825780000004D756C7400
:10A9D00069706C65202825642920434152206368F2
:10A9E0006172616374657269737469637320666F01
:10A9F000756E642C207573696E67207468652066B7
:10AA0000697273742E000000556E6578706563740A
:10AA100065642043415220636861726163746572AA
:10AA200069737469632076616C7565206C656E6707
:10AA3000746820282564292C2073746F7265203077
:10AA40002E0000005D83020070B5044600780028E7
:10AA500014D1608800F0FEFD6588284600F0E8F912
:10AA600028B107480122C1782846FDF78BFE60888F
:10AA7000FEF77AFDBDE8704006F044BB70BD0000F3
:10AA8000E822002070B5204C00252570FDF756FE09
:10AA90006070FDF753FEA070FDF750FEE070FDF70B
:10AAA0004DFE2071FDF74AFE6071FDF747FEA07173
:10AAB000FDF744FEE07162780121182A18D0A278CF
:10AAC000182A15D0E278182A12D02279182A0FD025
:10AAD0006279182A0CD0A279182A09D0182807D030
:10AAE00004F10C000560BFF35F8F2170002070BD82
:10AAF0000648074A801AC00801EB0040054902F0E9
:10AB0000C3F8032070BD0000E82200209433030046
:10AB10007C330300301D03007CB50446007809280F
:10AB200037D1607A58BB207A1C4E4FF6FF7501284A
:10AB300011D0072802D008282BD121E0A08800F0EE
:10AB400081FA0446A84224D0012100F0D7FD204616
:10AB5000FEF70AFD1DE0A0886A46012103F006FB0E
:10AB600068B90198007850B1A08800F06BFAA8424B
:10AB70000FD00122F178FDF705FE05F023FC08E077
:10AB8000F068012805D1BFF35F8F044900200C3124
:10AB90000860BDE87C4006F0B5BA0000E82200205D
:10ABA00010B50B48FEF783FF094A083AD2E904348E
:10ABB000C018D2E9063244F10001C31A71EB020257
:10ABC00004D24FF08072801841F1000110BD0000E6
:10ABD0000824002010B5C0B2FEF70CFB0446007834
:10ABE00002F016FE01466078012801D0012000E045
:10ABF000002090EA010F08D00449D1E9040108437C
:10AC000003D1BDE8104006F0C1B910BDB823002043
:10AC10001CB5054AD2E90212CDE9001200226946AC
:10AC200003F06AFC1CBD00007817030003484FF6D0
:10AC3000FF7181800121017000207047F8220020FF
:10AC40002DE9FC41804600F0B3FA002403250127DA
:10AC5000A0F57F412646FF3908D06A46082103F057
:10AC600085FA18B90198841D8688056832462B46F6
:10AC700021464046B1DF042804D0082804D00B2820
:10AC800008D002E0112000E00020002F00D10B20AE
:10AC9000BDE8FC810027A80701D50125E6E734437C
:10ACA00003D0002426460325E0E70648064942462D
:10ACB000401AC008012101EB0040044901F0E8FFFF
:10ACC000E5E700009C3303007C330300F81F03001A
:10ACD0002DE9FF47824600F06BFAA0F57F418146DF
:10ACE000FF3916D03B493C4A0127891AC90807EBAE
:10ACF000014600BF3A467F1C4FF00008BFB202ABCE
:10AD00000821484603F07CFA040007D0072C5ED0E7
:10AD10005EE043F2020004B0BDE8F087039D032328
:10AD20002A1DA91D50462B60B2DF040004D00C2C54
:10AD300037D0052C38D038E06A460821484603F061
:10AD400015FA58B1052814D002F03AFC02463046F4
:10AD5000534622A101F0A3FF0320DCE70198AA8853
:10AD60008088824205D10199A81D891DFCF7C7FB87
:10AD700030B14A460821104603F0BAFA044627E0EB
:10AD80000821484603F0AAFA48B102F019FC03462C
:10AD900030464A461F4901F082FF032418E00B2485
:10ADA00016E04FF0010800E000240821484603F0B7
:10ADB00095FA40B102F004FC034630464A46154974
:10ADC00001F06DFF0324B8F1000F93D100E00C24D3
:10ADD0002046A0E79C3303007C3303007064625F6D
:10ADE000706565725F646174615F7074725F6765DE
:10ADF0007428292072657475726E6564202573202D
:10AE0000666F7220636F6E6E5F68616E646C653A28
:10AE100020256400781F030004488088A0F57F4146
:10AE2000FF3901D005F0D8BA70470000F8220020A1
:10AE30000EB502A9019100F0BBF96A46012103F0A9
:10AE400095F908B100200EBD019800780EBD0000F4
:10AE50002DE9F04107464FF6FF761048B3DF78B191
:10AE600002F0AEFB02460E480E49401AC00801210E
:10AE700001EB00400C4901F00BFF0320BDE8F0811D
:10AE8000064C43F20305A41E324661883846AFDF04
:10AE9000A842F3D16088401C6080F5E7FA220020C8
:10AEA0009C3303007C3303002C1F0300428800EB1B
:10AEB00082020C328A4201D9022070478188A1F5B2
:10AEC0007F42FF3A06D0018821B18068401C01D042
:10AED0000020704701207047884204D20068401C5F
:10AEE00001D001207047002070473EB50278022350
:10AEF0000C46B3EB520F17D1B0F80110ADF80010AB
:10AF0000C1788DF802108188ADF8041080798DF831
:10AF1000060002AA01A92046FCF74BFF032202A962
:10AF20006846FCF7ECFA08B100203EBD01203EBDAA
:10AF300070B50D460446142810D2FDF73FFC68B1E9
:10AF4000084904EB840001EB4000D0F802102960AE
:10AF5000C188A980007AA871002070BD43F2020068
:10AF600070BD00006C28002070B5018890B01029D9
:10AF700061D1011D2C226846FCF788FA9DF8040077
:10AF80004FF6FF7603213446B1EB500F2BD003F080
:10AF900071FA9DF804006D4640080ED001280CD0CF
:10AFA000022820D118E00D99281D1131FCF752FE1E
:10AFB00018B100BFBDF82C4015E00CAA0BA9072062
:10AFC00003F02CFA0028EED10DE00D99281D491C44
:10AFD000FFF78BFF0028EDD10CAA0BA9072003F087
:10AFE0001DFA0028F1D1BDF80000B44200EB800149
:10AFF000124820F8114000EB41000199C0F80210FE
:10B00000BDF80810C1809DF80A10017213D0BDF878
:10B010000000ADF82E000020ADF83040084E8DF84D
:10B020002C000BAD044600BF56F824102846884774
:10B03000641C022CF8D310B070BD00006C280020F6
:10B040008C1703002DE9F0414FF6FF760546B0421C
:10B0500013D00B4F002400BF04EB840037F810001E
:10B06000A84206D12046FDF7A9FB10B12046BDE855
:10B07000F081641CA4B2142CEED33046F7E7000034
:10B080006C2800203EB50C46054603F0F3F90BE0B2
:10B09000BDF80000A04207D02846029900F00EF843
:10B0A00010B1BDF800003EBD01AA6946072003F0BB
:10B0B000B5F90028ECD14FF6FF703EBD2DE9F04107
:10B0C0000C46054600F1110701F111061022491C3A
:10B0D000401CFCF714FA48B9681C00F0B7F928B115
:10B0E000601C00F0B3F908B1012400E000243146EF
:10B0F0003846FCF7AFFD3B780222B2EB530F0CD081
:10B100000321B1EB530F08D03378B2EB530F04D0C7
:10B11000B1EB530F01D0012100E00021084201D121
:10B120008C4302D00120BDE8F0810020FBE70188BC
:10B1300011B9421892780AB101207047491C0829B8
:10B14000F7D30020704710B50C460346FFF7EFFF1A
:10B1500000280AD018882188884205D10822A11C1D
:10B16000981CFCF7CCF908B1002010BD012010BDDF
:10B17000142804D2024A00EB800022F81010704715
:10B180006C28002070B50546FFF75CFF0446284692
:10B1900002F0F0FF002808D1142C06D2034B04EB78
:10B1A00084024FF6FF7123F8121070BD6C28002046
:10B1B00010B50446142808D2FDF700FB28B1044955
:10B1C00004EB840031F8100010BD4FF6FF7010BD85
:10B1D0006C2800203EB5044603F04CF90EE00199BE
:10B1E00020464631FFF7AFFF28B9019920462A31A2
:10B1F000FFF7A9FF10B1BDF808003EBD6A4602A9DD
:10B20000072003F00BF90028E9D14FF6FF703EBD8F
:10B2100010B50A4941600A4800F03DFD58B902F0F6
:10B2200011F907491C238C22087404488C39001F2B
:10B23000006800F096FC002010BD000054190300C7
:10B24000102E00202DE9F0412C4D002420B16C601F
:10B250004FF40640BDE8F0810879012250B1284B37
:10B2600001280BD0254A02260832022821D00328C3
:10B2700029D12CE00A7102F0D1FD22E05FF000003C
:10B2800000EB800113F82110022908D0401C80B285
:10B290000228F5D32A706C6041F61D50DAE700EB06
:10B2A000800003F8204003EB8000406802F0A8FD16
:10B2B00007E00C719680116800230122114801F00B
:10B2C0001BF80028C6D06C6048F20D60C2E70C483D
:10B2D0000C7128304188106801EB810703EB87016E
:10B2E000D1F804C0C2F800C04860B2F804C0A1F8A8
:10B2F00008C0968003F82740D8E7000050240020BB
:10B300003C2D0020E02400200146034802888A42A8
:10B3100000D0002070470000C02700202DE9FC5F0E
:10B320000E008346DDE90C47C6F1000098469246C0
:10B33000814600D40846012503E000BF90FBFAF0E7
:10B340006D1C5045FADAA84500D9454624B1002EB7
:10B3500001DB780700D5641EB80702D5B8F1000FED
:10B360000AD0F80708D13CB1A54205D220215846A1
:10B37000641EFDF711FEF6E7002E02DA4E462D217F
:10B3800002E0780703D52B215846FDF705FE07F0AC
:10B39000030002280BD1B8F1000F08D13CB1A5423F
:10B3A00005D230215846641EFDF7F6FDF6E7CDE9DB
:10B3B0000047434652463146584605F049FEBDE82F
:10B3C000FC9F024600201268530713D502F00300C9
:10B3D000012802D002280CD105E0C2F383100B68CB
:10B3E000C01C184404E00323086803EB9252104485
:10B3F00008600120704700000248007A002800D051
:10B4000001207047102E0020F0B58488A5189442C2
:10B4100000D82246A41AC288D6189A4200D81346E9
:10B42000D21A4B880788BB420CD34088834209D884
:10B430008888A04206D3A84204D8C888904201D385
:10B44000B04201D90020F0BD0120F0BD0021425CD6
:10B450000AB101207047491C1029F8D30020704719
:10B46000800701D000207047012070470268134612
:10B4700002E08A4204D01268002AFAD10B6001600F
:10B48000704708B50090684601F0CEF9009A012196
:10B490009140C0F8081508BD10B50D2001F087F9DE
:10B4A0000E2001F084F90F2001F081F9102001F045
:10B4B0007EF90D20FFF7E5FF0E20FFF7E2FF0F20DA
:10B4C000FFF7DFFFBDE810401020FFF7DABF08B537
:10B4D0000090684601F0A8F9009A01219140C0F857
:10B4E0000C1508BD08B50090684601F09DF9D0F82C
:10B4F0000425009B0121994021EA0203C0F8083588
:10B500001140C0F80C1508BD1721018041800021B1
:10B51000017141711B218171C17170472DE9FE4F8D
:10B520002E4F984692460D00814601D000260DE030
:10B53000684600F0D3FA6A460021484602F072FDE0
:10B540003878009E10B99DF8090098B152463146EE
:10B55000484605F02DFA0446014600224846FEF70B
:10B5600083FF0D2C37D008DCA4B3082C33D00B2C70
:10B5700009D130E00520BDE8FE8F112C1ED0A4F5C6
:10B580004050023827D0204602F01AF802461448EC
:10B5900014494B46401AC008012101EB00401249F2
:10B5A00001F07DFB5FF00305B8F1000F04D03246D7
:10B5B00021464846FEF71AFC2846DCE72A46F97879
:10B5C0004846FDF7DFF85246B9784846FDF7DAF805
:10B5D0000025E9E7FFE72546E6E700009023002085
:10B5E000DC3303007C330300DC2A030070B50E4615
:10B5F0000C49154604460978FDF7ACF800280FD031
:10B60000204602F0B5FC00282A463146204603D0E9
:10B61000BDE8704002F0B2BCBDE87040FEF746BB2A
:10B6200070BD00008823002070B5094D0646A9783A
:10B63000FDF790F80446E9783046FDF78BF80146AF
:10B6400022463046BDE870400123FFF767BF000087
:10B6500090230020F0B585B00546002714216846E8
:10B66000FBF73BFFA5F57F40ADF80250FF3825D032
:10B670002846FFF7E5FA040022D01B481B49401A70
:10B68000C6080B2C22D0112C1ED0A4F54050023835
:10B690000ED0204601F094FF0246012000EB064048
:10B6A0002B46134901F0FBFA2146284604F03AFEE6
:10B6B00010483A4681782846FDF764F805B0F0BD99
:10B6C0000F208DF800000BE00127F1E710208DF826
:10B6D0000000022000EB06402A46074901F0D8FA94
:10B6E0006846FEF753FCE3E7943303007C33030022
:10B6F000001E0300E8220020541E03000A460249EF
:10B700004978FDF73FB80000E82200202DE9F0411C
:10B71000002786B080463E46FFF7DAFA04461F4807
:10B720001F49401AC508112C23D003DCFCB10B2C97
:10B7300006D114E0862C1ED0A4F5405002380ED05D
:10B74000204601F03DFF0246012000EB0540434644
:10B7500014A101F0A4FA2146404604F0E3FD394665
:10B760004046FFF7CBFF06B03046BDE8F08101262A
:10B77000F5E70127F3E714221A496846FBF786FE2E
:10B780000220ADF8028000EB0540424616A101F010
:10B790007FFA6846FEF7FAFBE1E700009433030006
:10B7A0007C3303006773636D5F6C6F63616C5F6410
:10B7B000625F63616368655F7570646174652829A1
:10B7C0002072657475726E656420257320666F72D1
:10B7D00020636F6E6E5F68616E646C653A202564ED
:10B7E0000000000038170300466C6173682066751E
:10B7F0006C6C2E20436F756C64206E6F74207374B4
:10B800006F7265206461746120666F7220636F6E71
:10B810006E5F68616E646C653A202564000000000C
:10B82000704700002DE9FF410026244800F030FA5F
:10B830002248001F074600F02BFA214C2149A0683E
:10B8400000900D6800E000986946284004EB8000F5
:10B850000C30FFF7B6FD0028F5D101AA009901EAE6
:10B86000050304EB8303491CDB6842F82030401CCD
:10B8700000910328F2D3019800F0030001280BD0B7
:10B88000022810D10198032101EB90500099BDF8D6
:10B890000A6001EB900005E00198BDF80A60C0F372
:10B8A000831008440090384600F0EFF908B1009882
:10B8B000A06004B03046BDE8F0810000E033002015
:10B8C000C82F00207C2400200EB5FCF70BFE00F0F2
:10B8D000A9FB18B128A25721FBF79EFC002000F01D
:10B8E000DBFB002000F070FBFDF79EFAFEF7F0FD99
:10B8F000FEF754FEFDF75CFF04F06CFE02F052FF11
:10B90000FCF7CEF9FFF7C8FD1F4C04F1280007C86B
:10B910008DE80700322204216846FDF791FC48B10A
:10B920001A481B49401AC008042101EB004019A124
:10B9300001F0AAF91F4A01211348FCF741FC18B194
:10B940000DA2AF21FBF768FC002210212068FCF754
:10B950007BFC18B108A2B021FBF75EFC05F048F9AA
:10B96000FCF7EAFB04F094FA01F074F80028F7D130
:10B9700001F04EFBF4E700002E2E5C2E2E5C2E2EE6
:10B980005C6D61696E2E6300A01603007C330300BA
:10B990007C330300427574746F6E20696E6974693C
:10B9A000616C697A65207375636365737366756C22
:10B9B0002E000000790D0300F0B50B30154D20F07E
:10B9C00007010024144A0FE003688B420BD38B421B
:10B9D00005D95E1A43184768C3E9006700E0436869
:10B9E000136002C004E0021D10680028ECD120465C
:10B9F000002802D1286808B10020F0BD064A074897
:10BA00001060074A121A22F00702C0E90024012040
:10BA10002860D7E7DC240020D824002074360020DA
:10BA2000705600202DE9F047C5881E1DB6FBF5F7BE
:10BA30008946B6FBF5F1044605FB176C407916689C
:10BA40006843DDF820A0F718001F874200D9C61A06
:10BA5000166001E02468491E0029FBD1A5EB0C0704
:10BA60008846B74216D818E004EB0C00001D09EB1D
:10BA70000803BAF1000F3A4602D00146184600E02A
:10BA80001946FBF703FD2468F61B4FF0000CB84481
:10BA9000B54201D9374600E02F46002EE4D1BDE87B
:10BAA000F087000030B5024651B101F097F900214E
:10BAB000074C08E034F821301568AB4202D1116020
:10BAC000002030BD491C8142F4D3052030BD000068
:10BAD00000000000BFF35F8F00F0C2B8034A0021EE
:10BAE0009268C0E900218160704700009023002027
:10BAF00070B586B00D460646144614216846FBF71D
:10BB0000ECFC8DF80050ADF802402046FFF750FBEA
:10BB1000ADF80400142269463046FBF7B7FC06B0C6
:10BB200070BD70B54FF6FF750E46A84201D10020DA
:10BB300000E0401C84B208E02146304600F090F856
:10BB400008B1204670BD641CA4B2FF2CF4D928466D
:10BB500070BD10B5FBF7B9FB08B1002010BD112076
:10BB600010BD10B531B1B2FBF3F403FB14241CB1CA
:10BB7000092010BD0E2010BD0160002141608160D0
:10BB80008281C381084610BD70B50C460546FBF79F
:10BB900051FB002802D021882868084470BD10B5E8
:10BBA0000A8849888A4203D1FBF786FB012010BD31
:10BBB000002010BD70B50C460546FBF760FB002861
:10BBC00002D061882868084470BD10B50A88498889
:10BBD0008A4203D1FBF74AFB012010BD002010BDB3
:10BBE00001F01F0301229A40D243490900EB810072
:10BBF000114600F059B80A4601F01F03012199408F
:10BC000010B552090C4600EB820000F05DF82040B0
:10BC100000D0012010BD2DE9F04180460D460024E2
:10BC2000481E012101EB501716E058F82400C043CC
:10BC300090FAA0F0B0FA80F020280CD200EB441665
:10BC4000AE4208D231464046FFF7D5FF0028ECD17E
:10BC50003046BDE8F081641CA742E6D82846F8E7E4
:10BC60004A0950F8220001F01F02012191400840CA
:10BC700000D00120704701F01F0301229A404909BA
:10BC800000EB8100114600F029B8002100F017B840
:10BC9000012100F023B8012100F016B808B56A466A
:10BCA000FBF75FFB009808BD08B56A46FBF73FFB52
:10BCB000009808BD08B56A46FBF753FB08BD08B5F8
:10BCC0006A46FBF734FB08BD08B56A46FBF722FB62
:10BCD00008BD08B56A46FBF711FB08BD08B56A4602
:10BCE000FBF718FB009808BD08B56A46FBF746FB52
:10BCF000009808BD38B5044600258DF80050684608
:10BD0000FCF7EEFA21686268086890420ED9401E7E
:10BD100008600178238AE26801FB0325227A216802
:10BD2000101AC0B20A79824200D208719DF8000050
:10BD3000FCF7FAFA284638BD38B5054600208DF8DC
:10BD400000000C466846FCF7CBFAE868298A201AFE
:10BD5000B0FBF1F12A681068431C136001709DF874
:10BD60000000FCF7E1FA38BD10B530B1017A426845
:10BD70000368891AC9B21A6006E00E2010BD036874
:10BD80001A68541C1C601170491EC9B2F7D20068B1
:10BD900000210171084610BDC20800F00703012010
:10BDA000895C98400840704710B560B10161172167
:10BDB00020F8021B20F8021B1B2100F8021BFFF7D2
:10BDC000A3FB002010BD0E2010BD000070B58588BB
:10BDD0000C46002D4FD1018824291FD006DC1029E4
:10BDE00009D011290CD0232921D11CE03A290BD0EC
:10BDF00055291CD10DE00146204601F063FD16E0F7
:10BE0000A01DFFF781FB12E00146204601F04CFF28
:10BE10000DE00146204601F0A1FE08E00146204663
:10BE200001F0D4FD03E00146204601F059FEA07A5E
:10BE3000002820D0E1882846A5DF0F490F4A0126B7
:10BE4000891ACD0858B1112815D001F0B9FB024666
:10BE500006EB0540BDE8704009A100F019BF0023C2
:10BE6000A372E6720420E28800EB0540BDE8704052
:10BE7000104900F014BF70BDAC3303007C330300E5
:10BE800073645F626C655F67617474635F65786338
:10BE900068616E67655F6D74755F726571756573F6
:10BEA0007428292072657475726E65642025732E5E
:10BEB000000000007020030020B10278DE2A03D0C9
:10BEC000082070470E20704741800020704760B105
:10BED00059B10278DE2A0AD009684160DE2101707A
:10BEE0004FF6FF714180002070470E2070470820F8
:10BEF00070477FB5054600294DD0002D4BD00878FE
:10BF00000C46DE2847D1A8886188884202D12046A5
:10BF100005F04AF92888012825D002283BD01128AD
:10BF20003AD0512837D135F8040F6188884232D190
:10BF3000A978A81C02292ED1017A042903D0062948
:10BF400001D0052927D10021009102228DF800207F
:10BF500001914FF4C07202910391ADF80420007A70
:10BF600005280FD010E0297A2046012913D1A9888D
:10BF7000428891420FD10121017204B0BDE87040A6
:10BF800005F012B9ADF8041028886946B0DF002822
:10BF900001D0616888477FBDA88861888842FAD14E
:10BFA0004FF6FF7060807FBD00F180400068002880
:10BFB00000D00120704708B500F1804000210160E9
:10BFC0000068009008BD0000F8B5154D044668787B
:10BFD000002648B114B16168002088478DF80060E0
:10BFE0006846FCF77DF913E08DF800606846FCF7C1
:10BFF00077F924B10A4821460830FFF737FA686814
:10C0000030B901F01FFA08B142DF01E001F000FB96
:10C010006868401C68609DF80000FCF785F9F8BD71
:10C02000502B002070B50D4C0125207808B18526D5
:10C030000EE00020A06060602061E060084801F030
:10C04000F3FA064601F0FEF908B901F0CBFA2570C3
:10C0500001F0C0FA00B1A570304670BD502B002031
:10C06000AD96020038B500258DF800506846FCF703
:10C0700037F9084CE068401EE060E06828B901F03C
:10C08000A9FA10B901F0F0FAA5709DF80000FCF7CC
:10C090004BF938BD502B0020F8B5134D0446A87855
:10C0A000002648B114B16168012088478DF800600E
:10C0B0006846FCF715F90EE08DF800606846FCF75D
:10C0C0000FF924B1084821461030FFF7CFF9E8688E
:10C0D00008B901F0B9FAE868401CE8609DF8000072
:10C0E000FCF722F9F8BD0000502B00200FB408B572
:10C0F0000399002904D004AA00926A4600F00FF8C0
:10C1000001B05DF814FB10B582680446002A05D022
:10C11000D4E90403216898470020A06010BD2DE9F0
:10C12000FC4791460C00804676D014F8011B39B1CB
:10C1300025290ED04046FCF72FFF20780028F4D1A7
:10C1400098F80C00002867D04046BDE8FC47FFF790
:10C15000DABF0020012221782B291BD02D2902D003
:10C16000302908D102E040F0010001E040F0020077
:10C17000641C002AEFD100252A290ED02178A1F1D4
:10C1800030020A2A11D205EB850201EB4205641C3C
:10C19000303DF1E740F00400EAE7D9F800100B1D4C
:10C1A000C9F800300968641C0D44217800232E2949
:10C1B0000BD114F8011FA1F130020A2A05D203EBBA
:10C1C000830201EB4203303BF3E76C290DD0682971
:10C1D0000BD0692921D00BDC252918D0582931D062
:10C1E00063290ED0642915D117E014F8011FECE77C
:10C1F000702969D0732932D075291BD0782909D1CB
:10C2000020E0D9F80000011DC9F80010017840466F
:10C21000FCF7C2FE641C90E76CE0D9F800100A1D20
:10C22000C9F800200968CDE900500A224046FFF70E
:10C2300075F8EFE7D9F800100A1DC9F80020096861
:10C240000A2206E0D9F800100A1DC9F80020096882
:10C250001022CDE90050404604F0FAFEDAE7D9F8A2
:10C26000001000270A1DC9F800200E68C00705D17C
:10C2700012E04046761C7F1CFCF78EFE31780029C8
:10C28000F7D104E0202140466D1EFCF785FEBD423B
:10C29000C0D9002DF6D1BDE74EB13046FBF728F9E5
:10C2A000074604E0202140466D1EFCF775FEBD42A6
:10C2B00006D9002DF6D103E04046761CFCF76CFE53
:10C2C00031780029F8D1A5E7D9F80000011DC9F897
:10C2D0000010056830214046FCF75EFE782140469C
:10C2E000FCF75AFE08200021CDE900010346102288
:10C2F0002946B0E7BDE8FC872DE9F84388460500EC
:10C300002C482D499946A0EB01004FEAD0004FF090
:10C310000101164601EB004424D0286800282CD0E7
:10C32000002E34D0696840464FF010070A68511E4D
:10C3300011EA080F11D1014672432846FBF7A3FC0E
:10C3400000282ED028684B463246046901B0414689
:10C350002846A446BDE8F04360472046174B18A284
:10C36000009722E00E2000902046144B1EA220A130
:10C3700000F09DFC0E20BDE8F883082000902046C8
:10C380000E4B26A21AA100F092FC0820F3E7092028
:10C3900000902046094B24A215A100F088FC09203A
:10C3A000E9E7064B214A2046009711A100F07FFCE7
:10C3B0001020E0E72C3403007C3303003B1903001A
:10C3C000616464725F69735F706167655F616C6906
:10C3D000676E656428705F66732C20706167655FA7
:10C3E0006164647229000000705F667300000000E1
:10C3F000257320636865636B206661696C656420E2
:10C40000696E202573282920776974682076616C0D
:10C41000756520307825782E00000000705F667307
:10C420002D3E705F617069006C656E00A02B03008B
:10C4300038B503001148124D4FF00E04A0EB050073
:10C440004FEAD0004FF0010505EB004009D061B183
:10C4500019600C6801B0A446BDE83040114618468A
:10C460006047084B08A2009402E0064B08A2009423
:10C4700009A100F01CFC0E2038BD00002C34030084
:10C480007C330300F0180300705F66730000000047
:10C49000705F617069000000257320636865636BDD
:10C4A000206661696C656420696E202573282920E7
:10C4B000776974682076616C756520307825782EF0
:10C4C00000000000044801214174007A08B10020F6
:10C4D0007047012070470000102E0020012801D075
:10C4E000032808D10449002201284A7400D0002002
:10C4F000087403F0EDB97047102E002070B50246A5
:10C50000022801D0032A45D1234C207A002841D0AB
:10C51000012833D0022831D120480023022A0068A4
:10C5200002D0032A2AD11BE0E360017911B101296D
:10C5300024D10DE0D0E90565711B4FF48056B1425E
:10C5400000D33146294481614569A9420ED015E0E6
:10C550000169491C0161426991420FD1237213E0C4
:10C56000E168491CE160082908D9E3602372022AC6
:10C570000AD00D21FDF710FC03F04EF9607C28B1C4
:10C58000BDE8704000F064BF0021F3E7BDE87040F3
:10C5900003F09EB970BD0000102E00206024002022
:10C5A0002DE9F84F90468A463A493B4A0500A1EBEF
:10C5B00002014FEAD1014FF00102DDF828901E463A
:10C5C0004FF00E0002EB01441AD0B8F1000F1CD05E
:10C5D0002868002822D00920002E29D069684968DF
:10C5E000B6FBF1F201FB1261002926D000902B4B23
:10C5F00020462BA235A100F05AFB0920BDE8F88F98
:10C6000000902046254B3CA203E00090234B20469F
:10C610003BA22EA100F04BFB0E20EFE7082000907C
:10C6200020461E4B38A229A100F041FB0820E5E777
:10C6300000902046194B37A2DCE75046FBF71DFB64
:10C64000102798B14046FBF718FBA0B1324651467F
:10C650002846FBF718FB98B1CDF8009028683346C0
:10C660004246C46851462846A047C7E720460B4BC0
:10C6700029A2009708E02046084B2DA2009703E06E
:10C68000064B204633A2009710A100F010FB1020AB
:10C69000B4E700002C3403007C33030028190300A6
:10C6A00021286C656E202520705F66732D3E705FBB
:10C6B000666C6173685F696E666F2D3E70726F673E
:10C6C00072616D5F756E69742900000025732063C7
:10C6D0006865636B206661696C656420696E2025FE
:10C6E00073282920776974682076616C756520301D
:10C6F0007825782E00000000705F6673000000004F
:10C70000705F737263000000705F66732D3E705F30
:10C71000617069006C656E00616464725F69735F6B
:10C72000616C69676E6564333228646573742900CF
:10C73000616464725F69735F616C69676E656433BD
:10C7400032282875696E7433325F7429705F737292
:10C7500063290000616464725F69735F776974685C
:10C76000696E5F626F756E647328705F66732C20EC
:10C77000646573742C206C656E2900002DE9FF41FF
:10C780001C46DDE90A7815460E46684600F05AF860
:10C7900046EA450141EA840141EA072242EA0841AA
:10C7A000009A00EB8200C0F80017BDE8FF8108B5D1
:10C7B0000090684600F038F8009A032100EB8200F0
:10C7C000C0F8001708BD13B50C46684600F03AF8EB
:10C7D000009900EB8101D1F8002722F44032C1F822
:10C7E0000027009900EB8100D0F8001741EA0441CE
:10C7F000C0F800171CBD00003CB50A4CD4E9003459
:10C80000CDE900346B46441808E000BF53F820100F
:10C81000D1F8205520C2C1F82055401C8442F5D8DB
:10C820003CBD0000941803000168202902D24FF09B
:10C83000A040704701F01F010160014870470000EF
:10C84000000300500168202902D24FF0A040704739
:10C8500001F01F0101600148704700000003005013
:10C8600042094FF0000102D0012A05D102E04FF049
:10C87000FF3101E04FF6FF7100F01F0001228240FE
:10C880000A4201D0012070470020704701B5684678
:10C89000FFF7D8FFD0F810050099C84000F001005C
:10C8A00008BD0000034908B5084400210160006884
:10C8B000009008BD0060004002494058012800D0A7
:10C8C000002070470060004030B5154A0146002046
:10C8D000D2F8104423460AE0DB681D79854205D171
:10C8E000401C0A28F6DB4FF0FF3030BD1B68002BE0
:10C8F000F2D1431CF9D0CB681871D2F8103443B18F
:10C90000DB68CC681B682360D2F81024D268116001
:10C9100030BDC2F81014C96800220A6030BD0000A2
:10C92000C82F00207047FAF7D5BE704708B5034AF4
:10C9300000924023024A00F005F808BD7503030089
:10C94000302E0020F0B595B01C4615460E46084620
:10C950001A9F00F024FB182109A8FAF7BEFD0E97D4
:10C96000CDE9095400230C2203A9304600F02CFB2A
:10C9700005980690BDF81000ADF81C00BDF8120037
:10C98000ADF81E0001208DF8210003990C2501F05F
:10C990000300012802D0022816D02FE0C1F3C20004
:10C9A000C1F383178C0A8DF82000BA002B460FA91B
:10C9B000304600F009FB09A8009006AB3A460FA9E3
:10C9C000204600F037FA19E0C1F3C2008C0D8DF853
:10C9D0002000082C01D2274600E008272B463A46C3
:10C9E0000FA9304600F0F0FA3D44E41B09AB06AA5B
:10C9F00039460FA800F07CF9002CEAD1304600F04F
:10CA0000D4FA15B0F0BD00000A4A012902EBC000BB
:10CA100007D0022907D0032907D0042907D0002016
:10CA200070470220704704207047007970474079B2
:10CA3000704700007C33030010B5FFF774FF04213A
:10CA40000348FFF741FF02490120C968487110BD42
:10CA50006C3303002DE9F04F8DB0FCF7B5FA18B137
:10CA600000200DB0BDE8F08F7D4C4FF0000BC4F8F6
:10CA700018B4BFF34F8F7B49A06802900D68D84669
:10CA8000284004EB80000BE0D4F8180470B961680A
:10CA90000298814201D8A160E2E7284004EB8000BF
:10CAA0000C3002A9FEF78DFC0028EDD1002009AA68
:10CAB000029901EA050304EB8303491CDB6842F891
:10CAC0002030401C02910328F2D3099800F00301A2
:10CAD000022902D001294DD0A8E0810D50228946BB
