:020000040002F8
:1070000020560020E1730200E9730200EB730200D6
:10701000ED730200EF730200F17302000000000044
:10702000000000000000000000000000F3730200F8
:10703000F573020000000000F7730200F97302000C
:10704000CD750200FB730200C9780200FB730200D9
:10705000FB730200FB73020029750200FB73020040
:10706000FB730200FB730200FB730200FB73020060
:10707000FB730200FB730200FB730200FB73020050
:10708000FB73020025760200FB730200FB73020013
:10709000FB730200FB73020095760200FB73020093
:1070A000FB730200FB730200FB730200FB73020020
:1070B000FB730200FB7302000000000000000000F0
:1070C000FB730200FB730200FB730200FB73020000
:1070D000FB730200FB730200FB730200FB730200F0
:1070E000FB730200FB730200FB7302000000000050
:1070F00000000000FB73020000000000FB730200B0
:10710000000000000000000000000000000000007F
:10711000000000000000000000000000000000006F
:10712000000000000000000000000000000000005F
:10713000000000000000000000000000000000004F
:10714000000000000000000000000000000000003F
:10715000000000000000000000000000000000002F
:10716000000000000000000000000000000000001F
:10717000000000000000000000000000000000000F
:1071800000000000000000000000000000000000FF
:1071900000000000000000000000000000000000EF
:1071A00000000000000000000000000000000000DF
:1071B00000000000000000000000000000000000CF
:1071C00000000000000000000000000000000000BF
:1071D00000000000000000000000000000000000AF
:1071E000000000000000000000000000000000009F
:1071F000000000000000000000000000000000008F
:10720000DFF810D000F052F900480047D9B302006F
:10721000AFF300802056002000B583B002900091AB
:10722000019244F2010071466A4600F0A1FD03B0EC
:1072300000BD000030B450E8012F93B2C48923444C
:107240008489A34228BF1B1B0489A34202BFBFF34A
:107250002F8F002007E0C3EA020340E80134002C2E
:10726000E9D14FF001000A6030BC704750E8012FAF
:10727000C2EA024240E801210029F7D1704730B448
:1072800050E8022F1FFAA2F3C488A34202BFBFF343
:107290002F8F00200DE0C48923448489A34228BF96
:1072A0001B1BC2EA034340E80234002CE8D14FF034
:1072B00001000A6030BC704750E8022FC2EA224247
:1072C00040E802210029F7D17047034653E8022F16
:1072D000D988B2EB324F4FF0000017BF92B241EAAB
:1072E000014142EA014104E05A68B2EB324F08BF63
:1072F000012043E80212002AE8D1704730B4044666
:1073000054E8000F0D4644E80053002BF8D11560F7
:1073100030BC704730B4044654E8000F40EA010521
:1073200044E80053002BF7D1156030BC704730B4EF
:10733000044654E8000F00EA010544E80053002B1E
:10734000F7D1156030BC704730B4044654E8000FE4
:1073500080EA010544E80053002BF7D1156030BCEA
:10736000704730B4044654E8000F00EB010544E8D0
:107370000053002BF7D1156030BC704730B4044681
:1073800054E8000FA0EB010544E80053002BF7D1AF
:10739000156030BC704770B404464FF0000054E8EC
:1073A000006F0D68AE4207BF44E80023012044E8A7
:1073B00000630E60002B1CBF0020F0E770BC70471C
:1073C00030B4044654E8000F88422CBF451A0546E5
:1073D00044E80053002BF5D1156030BC7047000025
:1073E0000648804706480047FEE7FEE7FEE7FEE75F
:1073F000FEE7FEE7FEE7FEE7FEE7FEE7ED760200CA
:107400000172020000487047DC15030010B5431AF2
:10741000934209D28318881803E010F8011D03F87D
:10742000011D521EF9D210BD40EA01039B0703D093
:1074300009E008C9121F08C0042AFAD203E011F8B3
:10744000013B00F8013B521EF9D210BDD2B201E05F
:1074500000F8012B491EFBD270470022F6E710B559
:1074600013460A4604461946FFF7F0FF204610BDB2
:10747000421C10F8011B0029FBD1801A704730B55F
:1074800004460020034600E05B1C934203D2E05C0C
:10749000CD5C401BF8D030BD034611F8012B00F83D
:1074A000012B002AF9D1184670470000064C074D01
:1074B00006E0E06840F0010394E8070098471034C4
:1074C000AC42F6D3FFF7A0FEF82B0300182C030004
:1074D00070B58C1810F8015B15F0070301D110F896
:1074E000013B2A1106D110F8012B03E010F8016BC3
:1074F00001F8016B5B1EF9D12B0705D40023521E46
:107500000DD401F8013BFAE710F8013BCB1A921CAD
:1075100003E013F8015B01F8015B521EF9D5A142AB
:10752000D8D3002070BD00002DE9FC410025DFF814
:10753000948000954FF4807601242F4601953046C3
:1075400004F0F4FE38B1D8F80403204203D03046EA
:1075500004F0E2FE2543361D64007F1CB6B2082FFE
:10756000EDD34FF4BE74204604F0E0FE48B120464F
:1075700004F0D2FE45F000456A460221002004F0E6
:1075800065FE15F0FF0F16D0012600242E420ED006
:1075900008EB8401D1F81005D1F81015C0F30520CF
:1075A000094AC1F3014152F8242002B19047760004
:1075B000641C082CEAD3002D02DA684607F060FD4F
:1075C000BDE8FC8100600040342B002070B54FF412
:1075D0008076304604F012FA114CB50560B13046A1
:1075E00004F013FA0120C5F80803607920B90120DE
:1075F00060712168002088474FF48276304604F09D
:10760000FDF900280AD0304604F0FFF90220C5F841
:1076100008032168BDE870400120084770BD0000E4
:10762000C823002002490248091F0968006808476A
:107630001024002000F04EB970B50E46144900EB3E
:10764000400001EBC0051446E86A183520B1012856
:107650000FD0022805D113E0284600F06FF9A042B0
:1076600001D2002411E022463146284600F09EF95E
:107670000BE0284600F062F9A042F4D20446F2E79B
:107680003146284600F065F90446204670BD0000EA
:107690009833002010B50021064A084600F04CFC43
:1076A000002806D0BDE8104003A240F28711FFF782
:1076B000B3BD10BD1D8202002E2E5C2E2E5C2E2E20
:1076C0005C2E2E5C636F6D706F6E656E74735C7391
:1076D0006F66746465766963655C636F6D6D6F6E0C
:1076E0005C6E72665F7364682E63000030B54FF0A5
:1076F00080520023D2E94C10082906D1CC06C4F8E8
:107700000C31C4F81031624C2360082955D1614B0B
:107710001B68614C23605F4B1B1D1B68241D23608D
:107720005C4B08331B68241D23605A4B0C331B68C9
:10773000241D2360574B10331B68241D2360554BB9
:1077400014331B68241D2360524B18331B68524CA2
:10775000203423604F4B1C331B68241D23604D4B8A
:1077600020331B68241D23604A4B24331B68241DCF
:107770002360484B28331B68241D2360454B2C3362
:107780001B68241D2360434B30331B68424C40343C
:107790002360404B34331B68241D23603D4B38333A
:1077A0001B68241D23603B4B3C331B68241D236056
:1077B000384B40331B68241D2360082904D1030083
:1077C00002D1374C354B2360082904D1030002D184
:1077D000344CFB232360082908D1030006D1324B27
:1077E00092F858521C6865F303041C60082904D100
:1077F000030002D12D4C8B012360082906D12C48AF
:107800000168C90702D06FF00101016029480168D1
:1078100041F470010160BFF34F8FBFF36F8FD2E966
:107820004C104FF01022082906D1042804D9D2F8B0
:107830000802174920310860D2F80002002803DB53
:10784000D2F8040200281FDA012005F057FD1221AA
:10785000C2F8001218480368002BFCD0C2F80412CA
:1078600001680029FCD0002005F048FDBFF34F8FD0
:1078700010487C380168114A01F4E061114301604D
:10788000BFF34F8F00BFFDE70E490D48086030BDC4
:10789000380500400404001020C500404881030062
:1078A0008C56004018F50040E40E0040409602401F
:1078B0000004004088ED00E000E401400400FA0507
:1078C0000090D003BC24002001480068004700005D
:1078D000D023002010B5124C02202061606111A05D
:1078E000A06104F17800E0614FF400702062002094
:1078F000A06260620BA1A164E06204F51E71E16404
:107900001021A065C4E91410E06509A1E01DFFF78E
:10791000C3FD08A12046FFF7BFFD2020A07110BDC8
:10792000983300205465726D696E616C0000000030
:107930005254540053454747455200000269C168FC
:107940008A4203D88068401A104400E0501A401E52
:1079500070472DE9F047C4681746894606464FF040
:1079600000083069A04201D9051B02E0B168201A65
:107970000D1AB0686D1E001BA84200D80546BD4216
:1079800000D33D4670682A4620444946FFF73EFD35
:10799000B0687F1B2C44A844A944A04200D1002415
:1079A000F460002FDDD14046BDE8F0872DE9F041BD
:1079B00004468846D4E90207C51BE168606816469C
:1079C0000844B54206D94146FFF720FDB819E060EA
:1079D000BDE8F0812A464146FFF718FD761B08EB0B
:1079E000050132466068FFF711FDE660F0E702E04E
:1079F00008C8121F08C1002AFAD17047704700203A
:107A000001E001C1121F002AFBD17047012120288B
:107A100003DA81400548014003E0402802DA2038BB
:107A2000814009B10120704700207047FC06FFBD6E
:107A30002DE9F843804643F2020669B9694606F02B
:107A4000D5FCB04204D018B128A2B221FFF7E4FB64
:107A50009DF80000800746D40021404606F0D0FC87
:107A6000050040D0112D3ED030483149401AC7089A
:107A7000022000EB07440D2D0AD00B2D1DD0B5427E
:107A80001FD12C4920464246BDE8F84304F03ABED7
:107A900020464246284904F035FE1321404676DF51
:107AA000002820D005F0C6FA024601B02046434621
:107AB000BDE8F04321A104F02CBE204642462D49EA
:107AC000E2E7284605F0B6FA0246012000EB07403F
:107AD000434629A104F01DFE2846BDE8F84303A251
:107AE000E121FFF799BBBDE8F88300002E2E5C2E44
:107AF0002E5C2E2E5C2E2E5C636F6D706F6E656E2D
:107B000074735C626C655C706565725F6D616E61FB
:107B10006765725C706565725F6D616E61676572E5
:107B20005F68616E646C65722E630000782C0300E0
:107B3000282C0300B41D0300401D030073645F6222
:107B40006C655F6761705F646973636F6E6E6563B8
:107B50007428292072657475726E656420257320FF
:107B60006F6E20636F6E6E5F68616E646C6520255A
:107B7000642E0000001E0300417373657274696E09
:107B8000672E20706D5F636F6E6E5F7365637572D5
:107B90006528292072657475726E656420257320CE
:107BA0006F6E20636F6E6E5F68616E646C6520251A
:107BB000642E000010B560B159B102780B785208FC
:107BC000B2EB530F05D10622401C491CFFF757FCAE
:107BD00008B1002010BD012010BD800701D0002099
:107BE000704701207047C3688B4206D81144006972
:107BF000491E814201D801207047002070470000D3
:107C000010B5224886B0204901601C2181800024E3
:107C10008460848118216846FFF71FFC01208DF8DD
:107C200000009DF801106A4621F003018DF8011053
:107C30004FF49671CDE901418DF814408DF815008F
:107C40008DF816009DF81700ADF80C4020F01F00CD
:107C50008DF817000C488DF80E408DF80F400494F5
:107C60000A49001F72DF18B109A2DC21FFF7D4FA1C
:107C700010481149401AC008032101EB00400FA130
:107C800004F03CFD06B010BDDC220020EC260020F4
:107C90002E2E5C2E2E5C2E2E5C48617264776172F3
:107CA000655C7372635C757365725F626C652E638D
:107CB00000000000382C0300282C03004164766586
:107CC0007274697320696E697469616C697A617430
:107CD000696F6E20656E642E0000000010B50122F1
:107CE0000221002001F04AF808B1072810D107222C
:107CF0000221012001F042F808B1072808D1002133
:107D00000A22084601F03AF808B1072800D10020FD
:107D100010BD70B58CB015460E4600236C46C3F1FD
:107D20000F01415CE1545B1C102BF8D30D2104F1D1
:107D30001000FFF792FB0020C0F10F02315C2244DB
:107D4000401C11740328F7D3684646DF0020C0F1B9
:107D50000F01214491F820102954401C0328F6D328
:107D60000CB070BD0149C97800F052BCA8230020B6
:107D7000FEB515460E46074672B604F081FD00BFFB
:107D800004F0A2FB0028FBD12249234A0120891AD2
:107D9000C90800EB0144012F22D06FF4805038183D
:107DA00021D0B0F5405F23D06FF44051C842204647
:107DB00005D1D5E9003219A104F0ABFC03E032464D
:107DC0001DA104F09FFC22480068C00700D000BE3F
:107DD0002A4603B031463846BDE8F04000F07AB894
:107DE00020461CA101E0204622A104F087FCEAE71E
:107DF000A86805F01FF90346D5E90001CDE9001098
:107E00000296204624A1AA6804F09EFC20462CA1DC
:107E1000EBE70000F02C0300282C030041535345EE
:107E20005254494F4E204641494C454420617420EC
:107E300025733A2575000000554E4B4E4F574E2086
:107E40004641554C54206174203078253038580014
:107E5000F0ED00E0534F46544445564943453A201F
:107E6000415353455254494F4E204641494C454495
:107E700000000000534F46544445564943453A20BC
:107E8000494E56414C4944204D454D4F5259204191
:107E900043434553530000004552524F522025752D
:107EA000205B25735D2061742025733A25750D0ACA
:107EB00050432061743A2030782530387800000033
:107EC000456E64206F66206572726F7220726570F5
:107ED0006F72740008B501238DF800309DF80030F2
:107EE000144B186059609A606FF48041401807D0B5
:107EF00001280FD1DA60D86800689861D86807E077
:107F00001A61186980685861186900689861186971
:107F10004068D861186858689868D86818695869BE
:107F20009869D86972B600BF9DF800000028FBD19F
:107F300062B608BDA02B00202DE9F84F2C4C8146DD
:107F4000924660880E4681424FD800274FF6FF7850
:107F50008DF80070684600F021F922786078A188D9
:107F6000884201DA401C00E00020C0B2904204D1F7
:107F70009DF8000000F036F935E0657860788842B9
:107F800001DA401C00E000206070207862788242B4
:107F900001D3101A02E0081A1044401CE18880B294
:107FA000884200D9E0809DF8000000F01BF94545AB
:107FB00019D0A068B9F1000F40F835A00DD066B116
:107FC0006188E068324605FB01004946FFF71EFA6A
:107FD000A06800EBC500868002E000EBC50087804A
:107FE0000020BDE8F88F0420FBE70920F9E7000036
:107FF000D823002010B50E4C03E0401C00E0002008
:10800000207020786178814210D022786188E06801
:10801000A36802FB010003EBC20153F832208988F8
:1080200090472078A1888842E9DAE6E710BD000091
:10803000D823002030B5CB0008339DB293074FF012
:10804000000401D0072030BD054B9A602A44DA6055
:108050005C701C7058809980DC80002030BD00006E
:10806000D82300200148C08870470000D823002092
:10807000014801F032BB0000F023002010B55AB1D6
:1080800000684FF0FF3401294261C0E9024400D08A
:1080900000210161002010BD072010BD38B5114836
:1080A00008235822416800910F49006803F083FAC1
:1080B000002815D10D4A69460D4801F013FB040054
:1080C0000ED101210A4801F088FB0123094A194613
:1080D000074801F0DAFA064901200839887020467D
:1080E00038BD000058120300D02B002069F70200B1
:1080F000F0230020FFFF7F00014800787047000058
:10810000E8230020F8B50446002617460D468DF8F2
:108110000060684600F042F8D4E90201C04370EA0A
:10812000010005D09DF8000000F05CF80020F8BDCB
:1081300002F0DCFA40197141C4E902019DF8000027
:1081400000F050F8A761206900B125612146BDE823
:10815000F840002008F0F8BB38B5044600208DF840
:108160000000684600F01AF8D4E90201C04370EA42
:1081700001000DD04FF0FF30C4E902009DF800006F
:1081800000F030F82146BDE83840012008F0DCBBA3
:108190009DF8000000F026F8002038BD30B5EFF360
:1081A000108172B60D4A9468012324B1037000292E
:1081B00000D162B630BD93604FF0E023D3F8805118
:1081C000074C25401560C3F88041D3F884415460C2
:1081D0005A17C3F8842100220270E8E7282C0020F7
:1081E000FC06FFBD0B498A68002A11D000280FD178
:1081F000EFF3108072B60B684FF0E022C2F8003146
:108200004B68C2F8043100228A60002800D162B6AF
:1082100070470000282C002002F0A4BF04F03ABEF2
:108220002DE9F047814605884A484FF000088AB09A
:1082300001784246284600F003FA99F80500400705
:1082400001D4002176E005F58077B8B205AB0122B4
:10825000072105F0FDFC04003F48404A4FF00101B2
:10826000A0EB02004FEAD00001EB00460AD0204606
:1082700004F0E0FE024630462B46394904F049FA44
:10828000214629E0284602F01BFD4FF6FF71044607
:1082900088422BD18A46069802F07CFC0446504561
:1082A00010D00146284602F0EBFC2846FFF75AFDA5
:1082B000E0B9284607F044FD2846FFF753FD0028A3
:1082C000BFD013E005F09AFE0446504508D1304671
:1082D00024A104F013FA0421284607F05FFDB0E75B
:1082E0000146284602F0CCFC4FF00108B8B2224605
:1082F000072105F025FD07001BD0862F1ED004F0B6
:1083000099FE024630462B462349009404F009FAB0
:108310003946284607F042FD0021484605F090FB0B
:10832000B8F1000F02D0204602F0B4FC0AB0BDE85C
:10833000F0870121484605F083FBF7E7142217492F
:108340006846FFF763F8ADF80250684601F0F6FBA7
:10835000EFE70000A8230020802C0300282C030056
:10836000FC200300436F756C64206E6F7420616C99
:108370006C6F63617465206E657720706565725FF0
:10838000696420666F7220696E636F6D696E672025
:10839000626F6E642E00000018220300FC110300BF
:1083A0002DE9F041214E4FF4C8744FF47A47751C03
:1083B0003846A847641EFAD14FF480411C4804F0A7
:1083C00029FA18B11BA23D21FEF726FF04F06EF832
:1083D0001C481D49154A401AC108042000EB014001
:1083E0000446921D19A104F08DF9FFF757FE18B14C
:1083F00010A24121FEF710FF174A14211020FFF7A9
:1084000019FE18B10BA24321FEF706FF04F026FB6C
:1084100018B108A24521FEF7FFFE2046BDE8F04155
:10842000024A0EA1921D04F06DB90000A0100300D5
:10843000718002002E2E5C2E2E5C2E2E5C6D6169EA
:108440006E2E6300282C0300282C0300456E7465F3
:1084500072202573202E0000D424002045786974F2
:10846000202573202E00000038B5002924D00028D4
:1084700022D00288502A1FD10546487C0C4600288D
:108480001AD0E9886289A81D914215D14189022933
:1084900012D1216800290FD00C3000F01FFC08B168
:1084A000002000E001208DF80000A888ADF802004F
:1084B000226869462046904738BD000070B5040028
:1084C00012D001461C221448FEF7A0FF1248134D9B
:1084D0000560206850B17ADF002806D12068016865
:1084E00029604068686005E00E2070BD0B487BDFA6
:1084F0000028FAD108484FF6FF711438084A20F8CE
:10850000041B0549343901600021FFF7B7FD00283D
:10851000EBD0032070BD0000A42700200023002022
:108520003D0B030010B5044600F0A6F8002805D066
:108530002146BDE81040024803F0BCB810BD000061
:10854000D027002070B515460E46044608F02AFBD9
:10855000002809D0054800EB8400C0692A4631464E
:10856000BDE8704001F03EBD70BD0000C027002096
:1085700010B5044600F080F8002805D02146BDE87B
:108580001040024803F096B810BD0000D827002024
:1085900010B5044600F070F8002805D02146BDE86B
:1085A0001040024803F086B810BD0000D427002018
:1085B00070B50546002400F05FF838B1294604483C
:1085C00003F078F808B1022400E00124204670BDD1
:1085D000CC27002070B50546002400F04DF838B1D6
:1085E0002946044803F066F808B1022400E001249B
:1085F000204670BDC827002010B51821034803F09D
:1086000034F8182800D0C0B210BD0000C0270020E8
:1086100070B505460C46084608F0C4FA60B1284615
:1086200000F02AF840B10548294600EB8400BDE877
:1086300070401C3003F03EB8002070BDC027002001
:1086400070B5054616460C46084608F0ABFA0028F9
:108650000ED0284600F010F8002809D00548324610
:1086600000EB84002946BDE870401C3001F09CBC42
:1086700070BD0000C0270020142801D300207047DF
:108680000146014803F016B8C427002002A240F2B8
:108690003D11FEF7C1BD00002E2E5C2E2E5C2E2E4D
:1086A0005C48617264776172655C7372635C757358
:1086B00065725F626C652E63000000000078002820
:1086C0000AD106481321408876DF002804D004A28E
:1086D00040F22B11FEF7A0BD70470000D822002009
:1086E0002E2E5C2E2E5C2E2E5C4861726477617299
:1086F000655C7372635C757365725F626C652E6333
:108700000000000038B54249424B0288C91AC90826
:1087100003233E4D03EB0144212A34D006DC102A0A
:1087200010D0112A21D0132A06D13BE03B2A53D086
:10873000522A44D0562A5AD02046BDE8384036A1A5
:1087400003F0E0BF81886980374803F0DFF818B193
:1087500036A25321FEF760FD0E2002F01AFC0F2016
:1087600002F03DFC20463AA14BE04FF6FF706880D6
:1087700007F066FF0E2002F032FC0F2002F009FC29
:10878000204638A13DE000210091808869468FDFB6
:1087900018B126A26621FEF73FFD204637A103F05F
:1087A000ADFF38BD00231A46852168887FDF18B1E8
:1087B0001EA26A21FEF730FD204635A121E00023EC
:1087C0001A4619466888B1DF18B118A26E21FEF763
:1087D00023FD204638A114E08088132176DF18B1EC
:1087E00012A27221FEF718FD204640A109E0808800
:1087F000132176DF18B10DA27621FEF70DFD20467C
:1088000040A1BDE8384003F079BF0000D822002025
:10881000382C0300282C0300424C45204556454E79
:10882000542049443A256400E02600202E2E5C2E78
:108830002E5C2E2E5C48617264776172655C737287
:10884000635C757365725F626C652E630000000087
:10885000436F6E6E656374656420746F2070656528
:10886000722E0000446973636F6E6E656374656495
:108870002066726F6D20706565722E005048592019
:1088800055706461746520526571756573742E004E
:108890005265717565737420746F2070726F76699C
:1088A00064652073656375726974792070617261A3
:1088B0006D65746572732E00412070657273697303
:1088C00074656E742073797374656D20617474724D
:1088D00069627574652061636365737320697320D1
:1088E00070656E64696E672E000000004741545445
:1088F00020436C69656E742054696D656F75742EC4
:108900000000000047415454205365727665722080
:1089100054696D656F75742E0000000010B51A4C17
:108920000188606810290ED011292BD1401E60608B
:1089300028D1FFF7D3F9002824D02168002921D0BD
:10894000BDE810400847D0B900210122084600F0D8
:1089500015FA08B107280FD107220221012000F0E3
:108960000DFA08B1072807D104220221002000F0E7
:1089700005FA20B1072802D0216801B18847606854
:10898000401C606010BD0000F82200202DE9F04777
:1089900001883B4E40F2F3194FF6FF7510291BD0AA
:1089A00011293ED0122954D0502946D1C188F289CC
:1089B000841D914241D1618902293ED18688304689
:1089C00002F02AFA050038D004F10C0000F086F914
:1089D000A8B3294630464EE0C17B8788044601296A
:1089E0002BD1A846284602F017FA050017D02F8091
:1089F00000202872234843464A460168C5F80A10F9
:108A00004068C5F80E0004F1100105F10A0002F0FB
:108A100083FA6872F08900280FD129462AE00420E1
:108A200013E0808802F0F8F9040006D06068FFF7D0
:108A300093FB08B107F096F92580BDE8F087FFE7C2
:108A40006868FFF789FB0028F7D0BDE8F04707F01A
:108A500089B987880646384602F0DEF90400ECD072
:108A60002B464A4606F1080104F10A0002F054FAC6
:108A7000607221463846BDE8F04700F08BBC00002C
:108A8000A4270020002300202DE9F04F044686880B
:108A90000188434897B0834610290CD0112952D041
:108AA000103019296CD01A2976D1217A0C09042C9E
:108AB0004FD301224EE03A4D083DA868C0430B90C9
:108AC00069680BA802F01AFE0B990CA800F042FC92
:108AD0002C220CA96846FEF799FC0027E946A84617
:108AE00010E000BF09EB47005FF00005B0F804A0FC
:108AF00008EB85005146001D02F09CFD6D1C1E2DEB
:108B0000F6D37F1C0098B842ECD8142E07D317B0C8
:108B1000F021BDE8F04F23A20420FEF77DBB3146D3
:108B2000584602F0D2FD314608F1040002F0CDFDB6
:108B3000E07B022830D117B03146BDE8F04F18482D
:108B4000001D02F0C2BD17B03146BDE8F04F02F083
:108B500071BD0022314601F027FA032C01D3012216
:108B600000E000220E4831460C3001F01DFA022CC4
:108B700001D3012200E0002209483146083006E016
:108B8000217A002908D1617AC1F3C002314617B0B9
:108B9000BDE8F04F01F008BA17B0BDE8F08F000053
:108BA000C82700202E2E5C2E2E5C2E2E5C2E2E5CD6
:108BB000636F6D706F6E656E74735C626C655C6321
:108BC0006F6D6D6F6E5C626C655F636F6E6E5F7311
:108BD000746174652E63000070B51F4E044686B044
:108BE0007078002836D02088A588102811D03178D8
:108BF0002846FFF70DFD00282CD1204601F03CFF50
:108C0000204607F04FFA06B02046BDE8704001F05C
:108C1000A9BB00208DF80000142101A8FEF71DFC5F
:108C200001208DF804004FF6FF70ADF8080004F144
:108C300008000390ADF80650CDF810D001A800F060
:108C400067FF9DF8002031782846FFF7F9FC9DF872
:108C50000000D0E706B070BD3823002038B5028888
:108C6000102A15D0112A15D0502A16D130F8062F07
:108C70008B899A4211D10C46418902290DD1216874
:108C800000290AD00C3000F029F838B1002006E0A5
:108C9000808801E04FF6FF70088438BD01208DF810
:108CA0000000226869462046904738BD02A24FF472
:108CB0008071FEF7B1BA00002E2E5C2E2E5C2E2E97
:108CC0005C48617264776172655C7372635C757332
:108CD00065725F626C652E6300000000007800F032
:108CE0000100704708B50020009004F099F818B111
:108CF0000FA23A21FEF790FA6946012003F002FF25
:108D000018B10BA23B21FEF787FA684603F07AFF01
:108D100018B107A23C21FEF77FFA0E480E49401A0F
:108D2000C008032101EB00400CA103F0E7FC08BDE3
:108D30002E2E5C2E2E5C2E2E5C4861726477617242
:108D4000655C7372635C757365725F626C652E63DC
:108D500000000000382C0300282C0300424C452062
:108D6000737461636B20696E697469616C697A619F
:108D700074696F6E20656E642E00000070B500236C
:108D8000042810D20D4D00EB4004012A02D1012924
:108D90000CD00022094E00EB4000304461B10129A3
:108DA00006D0022906D00723184670BD0E30C2B285
:108DB0002A55F9E74270F7E78270F5E7602700204F
:108DC0002DE9F84F0546C61C00208DF8000091469D
:108DD0000F464FF0010A6846FFF7E0F91B4C04F21A
:108DE0001C4860683860D4E90101194F401A39689D
:108DF000081A0EE00121404602F07AFC02F09AFACD
:108E00000146404602F074FCD4E90101401A396879
:108E1000081A401C8642EDD8B9F1000F03D0052096
:108E200065F3891002E0062065F39F5061683A6897
:108E3000114004EB8101C8606068304460609DF8B7
:108E40000000FFF7CFF95046BDE8F88F782F0020DB
:108E50006424002070B50D4604460A2902D10D2174
:108E6000FFF7F8FFA0682268411CA1601554D4E9FF
:108E70000101814204D32046BDE8704002F06DBE7E
:108E800070BD0000044881684068814201D1012022
:108E90007047002070470000782F002010B5104C5C
:108EA0006068FFF759F918B10EA25421FEF7B4F922
:108EB000A068FFF751F918B10AA25521FEF7ACF9E5
:108EC000002240F233316068FFF71CF9002805D01A
:108ED000BDE8104003A25621FEF79EB910BD000068
:108EE000B81003002E2E5C2E2E5C2E2E5C48617274
:108EF00064776172655C7372635C627574746F6EC3
:108F00002E6300002DE9FC4100208DF8000015A023
:108F1000154D0068154F002401AE4FF480480190B4
:108F200055F8240003F0DCF960B9305D8DF80000DD
:108F300000224146B868FFF7E5F818B10CA2A62157
:108F4000FEF76AF9641CE4B2042CE9D39DF8000032
:108F5000002804D00E4A01216846FEF7EDFFBDE867
:108F6000FC81000001020304C8220020B8100300A5
:108F70002E2E5C2E2E5C2E2E5C4861726477617200
:108F8000655C7372635C627574746F6E2E6300004F
:108F90005D9102002E4808B50068009004F072F957
:108FA00018B12CA23821FEF737F903208DF8010003
:108FB000304A69460B2004F0FDF818B125A23A2189
:108FC000FEF72AF92B4A69460C2004F0F3F818B191
:108FD00020A23B21FEF720F9264A6946182004F01A
:108FE000E9F818B11BA23C21FEF716F9214A69469F
:108FF000192004F0DFF818B116A23D21FEF70CF994
:1090000001210B2004F08AF801210C2004F086F8DD
:109010000121182004F082F80121192004F07EF8C3
:109020000B48154A0021001DFFF728F818B109A2C6
:109030004421FEF7F1F80648104A00210830FFF7F6
:109040001DF8002803D003A24521FEF7E5F808BD6E
:10905000B81003002E2E5C2E2E5C2E2E5C48617202
:1090600064776172655C7372635C627574746F6E51
:109070002E6300009D8E0200058F020011910200F8
:1090800001780D480D4A801AC008032202EB004007
:10909000052909D0062909D0072909D0082909D1AD
:1090A00007A100BF03F02ABB0AA1FBE70EA1F9E765
:1090B00012A1F7E770470000302C0300282C0300B2
:1090C000425554544F4E345F4C4F4E475F505245BB
:1090D00053530000425554544F4E315F4C4F4E474E
:1090E0005F50524553530000425554544F4E325F27
:1090F0004C4F4E475F505245535300004255545415
:109100004F4E335F4C4F4E475F5052455353000014
:109110007CB500208DF800000DA00E4D00680024E5
:1091200001AE019055F8240003F0DAF810B9305D73
:109130008DF80000641CE4B2042CF3D39DF8000009
:10914000002804D0044A01216846FEF7F5FE7CBDE4
:1091500005060708C82200208190020001780D480A
:109160000D4B0322C01AC00802EB0040012909D0B0
:10917000022909D0032909D0042909D107A100BF78
:1091800003F0BCBA09A1FBE70CA1F9E70FA1F7E7CF
:1091900070470000302C0300282C03004255545423
:1091A0004F4E345F505245535300000042555454C3
:1091B0004F4E315F505245535300000042555454B6
:1091C0004F4E325F505245535300000042555454A5
:1091D0004F4E335F50524553530000001CB50446B8
:1091E00001F06EFD00236A46092104F073FE052894
:1091F00005D10348012241792046FFF721FA1CBD21
:10920000082300201CB504460020009042F6A6204A
:10921000ADF8000001208DF80200084801AA694657
:10922000006801902046A0DF002805D104480122F3
:1092300081792046FFF704FA1CBD0000C41003002A
:109240000823002005494FF0FF32082841F820206C
:1092500002D3084480F8582070470000342B0020C7
:10926000F0B54FF0FF3512B10023082601E00823C6
:109270000C260C4C05E000BF54F823707F1C04D072
:109280005B1CB342F8D32846F0BD26185DB286F8C1
:10929000305044F82310002AF5D1E11881F8580025
:1092A000F1E70000342B00200249084490F9300017
:1092B00070470000342B002070B504464FF6FF7550
:1092C0000A462846AC4209D14FF480742146104624
:1092D00002F0CBF980B2A0420BD070BDFF2CFCD8BD
:1092E0002146104602F0B1F990F0010F01D020465E
:1092F00070BD284670BD000070B5084C050009D04F
:1093000010342168002907D0086820604968284681
:109310008847F6E70834F4E770BD0000202B0020F2
:10932000054A012120B1012805D19170FFF7E4BF62
:1093300051700020FAE77047202B002010B5D0E9CB
:109340000234D1E90220D11AA04101D3012010BD7D
:10935000002010BD73B58CB00646002000900D981B
:1093600080B100246D4621460DA802F0A3F930B16A
:10937000009805EB400084800098401C0090641C1D
:10938000142CF0D32C2269463046FEF73FF80EB07D
:1093900070BD000038B54A7A0F4B62B100220A72E4
:1093A0005969002906D001228DF80020ADF802008D
:1093B0006846884738BD0A7A62B19B684C680246A5
:1093C00019462046FEF79EFE0028F3D0BDE838403F
:1093D00006F0C8BC5B68F1E7A4270020F0B585B0B3
:1093E00016460F4604461D4614220B496846FEF7F2
:1093F0000DF80A488DF80870ADF80240ADF80A6023
:109400008DF80C50017800222046FFF719F96846C4
:1094100000F094FB05B0F0BD10120300A82300205B
:10942000FEF706BB00B587B01C216846FEF715F8AD
:1094300000204FF4A021CDE9000189100291032101
:109440008DF80C10ADF80E008DF81000074805904F
:10945000074806906846FFF731F8002804D005A2B7
:109460004FF48D71FDF7D8FE07B000BDBD86020038
:109470008D8602002E2E5C2E2E5C2E2E5C48617294
:1094800064776172655C7372635C757365725F6249
:109490006C652E6300000000F0B50C4606461E48C1
:1094A0001E4987B0401AC708042000EB0740334626
:1094B00022461BA103F02DF9002004900590ADF881
:1094C000104001900290ADF8124001AA04A9304664
:1094D00090DF05001DD003F0ADFD0346012000EB39
:1094E0000740044632461A4903F013F9BDF8042038
:1094F00012B9BDF8060028B1BDF80630204615A106
:1095000003F007F9BDF808201AB12046214903F0FD
:10951000F9F807B02846F0BD582C0300282C0300AA
:109520005570646174696E672064617461206C6554
:109530006E67746820746F202575206F6E20636FCE
:109540006E6E656374696F6E20307825782E00002A
:1095500068190300546865207265717565737465D8
:10956000642054582F5258207061636B6574206CCE
:10957000656E67746820697320746F6F206C6F6EFE
:10958000672062792025752F2575206F63746574B7
:10959000732E0000B419030070B504460948012178
:1095A00002F0C1F8BFF35F8F0025002808D12046E4
:1095B00001F034FE002803D1BFF35F8F014805603E
:1095C00070BD0000142300202DE9FF410C4620B19E
:1095D0004FF4064004B0BDE8F0812079002748F23E
:1095E000096538B141F61D5601281BD0022826D046
:1095F000681DEFE70220207102970397E068019051
:10960000694601A805F0C6FF50B102988188E18043
:1096100000882081BDF80010029806F039F8D9E7DB
:109620002846D7E70A4B6A460021A01D05F06AFFCD
:1096300038B1074918398F61CF61A842CAD1304685
:10964000C8E703488188019806F022F8F5E7000092
:109650003024002010B50021024802F064F880F3A5
:10966000100010BD943300204FF480328A4001680E
:10967000C1F848230068C0F8082370474FF4A0726F
:1096800002EB810189B200F01CBA2DE9F0410546D8
:109690000E464FF4A07000EB860081B228684FF4AC
:1096A0008034B440984622F07F47C0F808432868C9
:1096B000C0F84843286803F015FA286800EB8600D4
:1096C000C0F840752868C0F84443B8F1000F02D0D4
:1096D0002868C0F80443BDE8F0810068D0F80405AC
:1096E0007047000070B54379234C44F82320427939
:1096F000231D03EBC202224C1579204A121BD40809
:109700002DB10825022000EB04401EA130E00568C1
:109710000A88C5F8082590F904208978002A4FEABC
:10972000411104DB02F1E02282F8001405E002F0AE
:109730000F0202F1E02282F8141D90F904100122B8
:10974000002909DB01F01F0502FA05F54909890026
:1097500001F1E021C1F800514179002503EBC1017D
:109760000A71417943F83100032000EB04400EA157
:1097700002F0C4FF284670BD0C240020D02C03004A
:10978000282C030052544320696E7374616E636524
:1097900020616C726561647920696E697469616CBD
:1097A000697A65642E0000005254433A20696E695C
:1097B0007469616C697A65642E00000090F9040098
:1097C000002809DB00F01F020121914040098000C0
:1097D00000F1E020C0F8001270470A46022100F0B4
:1097E00067B94FF4827100F06CB900680121016023
:1097F000704700680121416070472DE9F05F07461E
:109800000C464FF4A07000EB84001FFA80FA386811
:109810004FF48036A6409B4622F07F45C0F848634F
:109820003868C0F808633868D0F8048500EB840213
:10983000D2F84095C2F840855146386803F052F995
:10984000A9EB080020F07F40012806D1102003F08A
:109850005DFC5146386803F045F93868D0F8048556
:10986000C0F84463A5EB080121F07F413868012965
:1098700000EB840010D0C0F840553868D0F80415CB
:109880006FF07F4C6A1A521E22F07F42ACEB0B0342
:10989000934217D362B118E06D1CC0F840551020F8
:1098A00003F034FC3868D0F8040540450AD10CE0D8
:1098B00000EB84006D1CC0F840553868D0F80405F2
:1098C000884202D00D20BDE8F09F01223146384683
:1098D00000F0EEF80020F6E713460A460021FFF7F5
:1098E0007DBD00002DE9F843104D0F4680461E4611
:1098F00091466946286801F071FE040014D01C21CD
:10990000FDF7ABFD01202071C4F81490380BC4F8AA
:109910000080C4E902606946286801F080FE05F015
:109920005DFD0020BDE8F8830420FBE70013030081
:1099300010B503780022072B06D2DFE803F00504F8
:109940000610202930000A7010BD01230B70038916
:109950008B818388CB81C06888600A7410BD022225
:109960000A7002898A818288CA81C2688A60807D81
:10997000062802D00020087410BD0120FBE7032256
:109980000A70C2888A810289CA81C068886010BD55
:1099900004230B70C0888881CA818A6010BD0520AD
:1099A000087010BD70B5064D0646002455F8241009
:1099B00009B130468847641C042CF7D370BD000001
:1099C000502C002030B50446006887B00D468068F2
:1099D00000281FD018216846FDF73FFD0195A068BB
:1099E0000590207910B1012810D107E001208DF8F1
:1099F000000020690290E068039005E002208DF8E5
:109A00000000E068000302906069049020688168AB
:109A10006846884707B030BDF0B585B017460C00E2
:109A200005463AD0112C38D0082C36D01C481D4998
:109A3000401AC6080D2C11D0204603F0FBFA02464E
:109A4000012000EB06402B46174902F062FE2A4631
:109A50000821684601F076FD02941BE0022000EB2D
:109A600006402A46114902F04DFE2A460421684666
:109A700001F068FD27B13878C00701D0012000E06F
:109A800002208DF8080000208DF80C0041F2011032
:109A9000ADF80A00684600F05FF805B0F0BD0000C0
:109AA000882C0300282C0300E4230300D4220300A5
:109AB0000368C3F84413002A02D00068C0F80413F6
:109AC000704710B5006842581AB103F00BF8012036
:109AD00010BD002010BD000010B50446408801F004
:109AE000EFF8A080024801682046BDE81040084712
:109AF0001023002010B50446808801F02BF8608008
:109B0000024801682046BDE8104008472023002095
:109B10002DE9F04107460024064E074D05E000BF41
:109B200056F8241038468847641C28798442F7DBAD
:109B3000BDE8F081D42A00203823002010B5044667
:109B4000408801F0BDF8A080024801682046BDE8C9
:109B500010400847D0110300014909680847000078
:109B60004C12030070B586B0044614216846FDF718
:109B700074FCA0890125A0F54040ADF804002078D0
:109B80002F4E062833D2DFE800F0320303032C4ABD
:109B9000A08900F0EDF930B9E08943F6FE71A0F537
:109BA0004040884223D8A07B8DF808002078032805
:109BB0000FD000208DF80900A0680390606850B1B4
:109BC0000A208DF8000060680490684604F0D4F81C
:109BD0000DE00120EEE709208DF800008DF810500F
:109BE000F3E7A08900F0C4F908B1E08930B17078DA
:109BF000002801D004F014FA06B070BD606830B1DE
:109C00000C208DF80000606802907570DDE70B2075
:109C10008DF80000BDF8040004F0A6FAF5E76068CE
:109C200048B115208DF80000606802904FF6FF7073
:109C3000ADF80400C9E714208DF80000F6E7000035
:109C40002423002038B504460F480078B0B1A4F5AD
:109C50007F40FF380FD0684605F0F0FA88B1052143
:109C6000017001210171C480684605F0F5FA05F024
:109C7000A7FB002038BD48F2036038BD48F2016000
:109C800038BD48F2076038BD382400200D4808B5BB
:109C9000007888B1684605F0D1FA80B106210170DC
:109CA000684605F0D9FA0848017809B10121017325
:109CB00005F086FB002008BD48F2016008BD48F2AF
:109CC000076008BD38240020142D0020F0B587B0AF
:109CD00014216846FDF7C1FB314C207818B1684665
:109CE000FFF760FE5AE0201D01F0FFFCA0BB40F62C
:109CF000F8700168481C02D14FF0102041694FF004
:109D00008050026940694B1C01D100FB02F12548DB
:109D100000220161A1F54051C160234902F0B2F86F
:109D2000002826D122481C238C222049006801F0FB
:109D300042FC03F0ADFD05004FF0000615D0022DEA
:109D400013D00127062D16D005A805F077FAA8B183
:109D500007700C2D1DD200E020E0DFE805F01A129C
:109D60001A121A191A191A1416142670666048F273
:109D70000A6007B0F0BD27706660B0E748F2076080
:109D8000F7E7067105E0032100E00221017100E020
:109D9000077105A805F060FA05F012FB0020E8E75E
:109DA00038240020C024002010130300602C002061
:109DB0007812030038B5040014D0694605F0EAFBB8
:109DC000B0B1BDF8000000EB80010B4800EB810052
:109DD000C16851B1A17A41B1C168491EC16000207A
:109DE000A07238BD48F2046038BD48F2056038BD45
:109DF00048F2096038BD0000EC2C00201FB501A915
:109E0000684605F07FFB04B010BD07B513460A464F
:109E10006946002005F076FB0EBD07B513460A46DD
:109E20000021684605F06EFB0EBD20B119B1006837
:109E300008600020704748F204607047F8B50D468E
:109E4000040018D0BDB1694605F0A4FBB0B1BDF85F
:109E500000000C4900EB800001EB800001210C3078
:109E6000666801F045FC2E6060680C306860012077
:109E7000A0720020F8BD48F20460F8BD48F2096005
:109E8000F8BD0000EC2C002018B10323002206F0DE
:109E9000C7BF48F2046070470223002206F0C0BF2B
:109EA000094910B50A69042A0AD0084A096942F822
:109EB000210005480121103001F01AFC002010BDDE
:109EC00048F20B6010BD000018240020502C002028
:109ED0002DE9F84F044624480078D8B1F4B1122196
:109EE0002046FDF7BAFA0320DFF880902080002595
:109EF00004F1100804F10E0A05EB850109EB810657
:109F000030897189084487B2706803F04BFC0328DC
:109F100007D009E048F20160BDE8F88F48F204601C
:109F2000FAE72088401E20806088F168084460803D
:109F30002089718908442081608938446081C7F58F
:109F40008060A18980B2814200D2A0815346A21DC7
:109F5000211D2846CDF8008005F0B8FB6D1CADB280
:109F6000022DC9D30020D7E738240020EC2C002094
:109F700043F6FE71A0F54040884201D801207047A9
:109F80000020704710B504460078182802D1FEF76B
:109F900033FB207010BD10B504460078182802D19C
:109FA000FEF72AFB207010BD0AB101F08EBB01F054
:109FB00041BB000070B5134600220546112900D1AF
:109FC0000122074C33B12179FEF73AFB0022617878
:109FD000284600E06178BDE87040FEF731BB000024
:109FE000B0230020F7B517460E0011D000980025C9
:109FF00060B100242146684601F05CFB18B1A0B2B4
:10A000003946B0476D1C641C142CF3D32846FEBDA2
:10A010000020FEBD406805F031B900000EB51DA15D
:10A020009DF8080020F00F00401C20F0F0001030D8
:10A030008DF808000F2202A87CDF18B119A28F2129
:10A04000FDF7EAF8802078DF18B116A29021FDF71D
:10A05000E3F80020009001905021ADF80400ADF825
:10A0600000104FF44860A021ADF80600ADF80210D2
:10A0700068467ADF18B10BA29721FDF7CDF8124898
:10A080001249401AC008032101EB004010A102F060
:10A0900035FB0EBD4E6F726469635F54656D706C05
:10A0A000617465002E2E5C2E2E5C2E2E5C48617233
:10A0B00064776172655C7372635C757365725F620D
:10A0C0006C652E6300000000382C0300282C030070
:10A0D00047415020696E697469616C697A6174697D
:10A0E0006F6E20656E642E0010B50021094801F0E6
:10A0F00085FB18B108A2A721FDF78EF80F4810497B
:10A10000BDE81040401AC008032101EB00400DA13A
:10A1100002F0F4BACC2600202E2E5C2E2E5C2E2EC1
:10A120005C48617264776172655C7372635C7573BD
:10A1300065725F626C652E6300000000382C0300BE
:10A14000282C03004741545420696E697469616C7E
:10A15000697A6174696F6E20656E642E000000007C
:10A1600070B510B14FF4064070BD1C4C0025207B2B
:10A1700008B1257301E000F0A5F8207808282AD25C
:10A18000DFE800F02904080C10291422BDE8704013
:10A1900000F026B8BDE8704000F082B8BDE870401D
:10A1A00000F064B8BDE8704000F040B806202070B0
:10A1B00060880A4900EB8000283901EB8000406884
:10A1C000BDE8704003F044BB072020706560BDE827
:10A1D000704003F04BBB48F20E6070BD142D0020A0
:10A1E0001149F0B48A1C00200346A1F128050C187F
:10A1F000A67A4EB1A37200EB800405EB8404E668F6
:10A2000016B9247C012C0AD0401C80B20228EED35F
:10A210000B704B804B60F0BC41F61D5070471080B6
:10A22000F0BC00F03DB80000142D00200C4841881F
:10A2300001EB8102A0F1280101EB8201CA6852B151
:10A240000521017007480221818001680023012255
:10A25000054801F07BBD042202704968F6E7000062
:10A26000142D002040240020C024002038B50A49C5
:10A27000084803240B684268898803EB81015388EE
:10A280000470DB1C00201B0400909B0B034801F0B2
:10A29000B1FE38BD142D002040240020C024002031
:10A2A000074910B54888091D05F0C4F918B1BDE883
:10A2B0001040FFF7DBBFBDE81040FFF7B7BF00005D
:10A2C000142D002070B5194C0121207808281AD2CD
:10A2D000DFE800F00419191C252929182089134AE0
:10A2E000401C2081002060802073283A00EB80030E
:10A2F00012F8233043B100232518401C80B2AB7202
:10A300000228F3D3217070BD0123F5E76068084986
:10A3100040888A88C01C10448880022004E000F035
:10A3200009F8062000E00720207070BD142D0020E1
:10A33000402400200A4909484988026801EB81034A
:10A340000749283901EB83014B6803604A60828822
:10A350000A81022282800020087470474024002075
:10A36000142D00202DE9F043064680883288DFF85E
:10A370005C8185B00746502A37D010DC5449554BD4
:10A3800006F10A05A1EB03014FEAD1014FF00203E8
:10A3900003EB0144352A3AD0362A07D168E0522A25
:10A3A00002D0542AF9D102E000F0DCFE82E014224F
:10A3B00049496846FDF72AF8ADF80270384600F0C2
:10A3C0007FFCADF8040000F0ABF90022444698F899
:10A3D00004103846FEF734F90022E1783846FEF7DB
:10A3E0002FF96846FFF778FB64E0307B012861D1E4
:10A3F000B07A01285ED13089A0F52451023959D1B3
:10A400000121384600F002FF06F080FB52E098F888
:10A410000610FEF7FDF800284CD0002298F8061030
:10A420003846FEF70DF9F288B2F5857F17D012B1E4
:10A4300020462AA10BE02A88012A03D0204636A113
:10A4400002F060F96A88012A04D0204641A102F096
:10A4500059F904E0A98800223846A1DF08B100219B
:10A4600025E0012298F807103846FEF7E9F821E0C8
:10A470004FF0000998F80710FEF7CAF8D0B1002293
:10A4800098F807103846FEF7DBF8F28812B120463C
:10A4900012A104E0AA88012A04D020462DA102F0CE
:10A4A00031F903E0A87900B10120814649463846D8
:10A4B00006F03CF90022364998F80200FEF742F80F
:10A4C00005B0BDE8F04305F0A5BC0000082300205E
:10A4D000402C0300282C03001C110300556E6578E6
:10A4E00070656374656420474154542073746174CB
:10A4F0007573207768696C652067657474696E6729
:10A500002043415220636861722076616C75653A20
:10A5100020307825780000004D756C7469706C658A
:10A5200020282564292043415220636861726163B9
:10A5300074657269737469637320666F756E642CD9
:10A54000207573696E67207468652066697273741C
:10A550002E000000556E6578706563746564204355
:10A5600041522063686172616374657269737469D2
:10A57000632076616C7565206C656E677468202851
:10A580002564292C2073746F726520302E00000022
:10A590001982020070B504460078002814D1608842
:10A5A00000F0E0FD6588284600F0CAF928B10748A8
:10A5B0000122C1782846FEF743F86088FEF70EFEB8
:10A5C000BDE8704006F0A2BA70BD0000082300206C
:10A5D00070B5204C00252570FEF70EF86070FEF770
:10A5E0000BF8A070FEF708F8E070FEF705F8207190
:10A5F000FEF702F86071FDF7FFFFA071FDF7FCFFA9
:10A60000E07162780121182A18D0A278182A15D092
:10A61000E278182A12D02279182A0FD06279182AE3
:10A620000CD0A279182A09D0182807D004F10C0000
:10A630000560BFF35F8F2170002070BD0648074A98
:10A64000801AC00801EB0040054902F057F80320CA
:10A6500070BD000008230020402C0300282C0300BC
:10A66000E01503007CB504460078092837D1607AEC
:10A6700058BB207A1C4E4FF6FF75012811D00728D1
:10A6800002D008282BD121E0A08800F063FA04460C
:10A69000A84224D0012100F0B9FD2046FEF79EFD1E
:10A6A0001DE0A0886A46012103F088FA68B9019884
:10A6B000007850B1A08800F04DFAA8420FD00122D6
:10A6C000F178FDF7BDFF05F0A5FB08E0F068012873
:10A6D00005D1BFF35F8F044900200C310860BDE84D
:10A6E0007C4006F013BA00000823002010B50B4888
:10A6F000FEF7F3FF094A083AD2E90434C018D2E958
:10A70000063244F10001C31A71EB020204D24FF089
:10A710008072801841F1000110BD0000F02300207C
:10A720001CB5054AD2E90212CDE9001200226946A1
:10A7300003F00AFC1CBD00003411030003484FF66F
:10A74000FF718180012101700020704718230020D3
:10A750002DE9FC41804600F0B3FA002403250127CF
:10A76000A0F57F412646FF3908D06A46082103F04C
:10A7700025FA18B90198841D8688056832462B464B
:10A7800021464046B1DF042804D0082804D00B2815
:10A7900008D002E0112000E00020002F00D10B20A3
:10A7A000BDE8FC810027A80701D50125E6E7344371
:10A7B00003D0002426460325E0E706480649424622
:10A7C000401AC008012101EB0040044901F09AFF42
:10A7D000E5E70000482C0300282C0300A81803001C
:10A7E0002DE9FF47824600F06BFAA0F57F418146D4
:10A7F000FF3916D03B493C4A0127891AC90807EBA3
:10A80000014600BF3A467F1C4FF00008BFB202ABC2
:10A810000821484603F01CFA040007D0072C5ED03C
:10A820005EE043F2020004B0BDE8F087039D03231D
:10A830002A1DA91D50462B60B2DF040004D00C2C49
:10A8400037D0052C38D038E06A460821484603F056
:10A85000B5F958B1052814D002F0ECFB0246304699
:10A86000534622A101F055FF0320DCE70198AA8896
:10A870008088824205D10199A81D891DFCF7FFFD42
:10A8800030B14A460821104603F05AFA044627E040
:10A890000821484603F04AFA48B102F0CBFB0346D0
:10A8A00030464A461F4901F034FF032418E00B24C8
:10A8B00016E04FF0010800E000240821484603F0AC
:10A8C00035FA40B102F0B6FB034630464A46154918
:10A8D00001F01FFF0324B8F1000F93D100E00C2416
:10A8E0002046A0E7482C0300282C03007064625F18
:10A8F000706565725F646174615F7074725F6765D3
:10A900007428292072657475726E65642025732021
:10A91000666F7220636F6E6E5F68616E646C653A1D
:10A92000202564002818030004488088A0F57F4192
:10A93000FF3901D005F078BA7047000018230020D5
:10A940000EB502A9019100F0BBF96A46012103F09E
:10A9500035F908B100200EBD019800780EBD000049
:10A960002DE9F04107464FF6FF761048B3DF78B186
:10A9700002F060FB02460E480E49401AC008012151
:10A9800001EB00400C4901F0BDFE0320BDE8F08161
:10A99000064C43F20305A41E324661883846AFDFF9
:10A9A000A842F3D16088401C6080F5E71A2300209C
:10A9B000482C0300282C0300DC170300428800EB1E
:10A9C00082020C328A4201D9022070478188A1F5A7
:10A9D0007F42FF3A06D0018821B18068401C01D037
:10A9E0000020704701207047884204D20068401C54
:10A9F00001D001207047002070473EB50278022345
:10AA00000C46B3EB520F17D1B0F80110ADF800109F
:10AA1000C1788DF802108188ADF8041080798DF826
:10AA2000060002AA01A92046FDF773F9032202A934
:10AA30006846FCF724FD08B100203EBD01203EBD64
:10AA400070B50D460446142810D2FDF715FE68B106
:10AA5000084904EB840001EB4000D0F802102960A3
:10AA6000C188A980007AA871002070BD43F202005D
:10AA700070BD00003C28002070B5018890B01029FE
:10AA800061D1011D2C226846FCF7C0FC9DF8040032
:10AA90004FF6FF7603213446B1EB500F2BD003F075
:10AAA00011FA9DF804006D4640080ED001280CD024
:10AAB000022820D118E00D99281D1131FDF77AF8F0
:10AAC00018B100BFBDF82C4015E00CAA0BA9072057
:10AAD00003F0CCF90028EED10DE00D99281D491C9A
:10AAE000FFF78BFF0028EDD10CAA0BA9072003F07C
:10AAF000BDF90028F1D1BDF80000B44200EB80019F
:10AB0000124820F8114000EB41000199C0F80210F2
:10AB1000BDF80810C1809DF80A10017213D0BDF86D
:10AB20000000ADF82E000020ADF83040084E8DF842
:10AB30002C000BAD044600BF56F824102846884769
:10AB4000641C022CF8D310B070BD00003C2800201B
:10AB5000481103002DE9F0414FF6FF760546B0425B
:10AB600013D00B4F002400BF04EB840037F8100013
:10AB7000A84206D12046FDF77FFD10B12046BDE872
:10AB8000F081641CA4B2142CEED33046F7E7000029
:10AB90003C2800203EB50C46054603F093F90BE037
:10ABA000BDF80000A04207D02846029900F00EF838
:10ABB00010B1BDF800003EBD01AA6946072003F0B0
:10ABC00055F90028ECD14FF6FF703EBD2DE9F0415C
:10ABD0000C46054600F1110701F111061022491C2F
:10ABE000401CFCF74CFC48B9681C00F0B7F928B1D0
:10ABF000601C00F0B3F908B1012400E000243146E4
:10AC00003846FCF7D7FF3B780222B2EB530F0CD04B
:10AC10000321B1EB530F08D03378B2EB530F04D0BC
:10AC2000B1EB530F01D0012100E00021084201D116
:10AC30008C4302D00120BDE8F0810020FBE70188B1
:10AC400011B9421892780AB101207047491C0829AD
:10AC5000F7D30020704710B50C460346FFF7EFFF0F
:10AC600000280AD018882188884205D10822A11C12
:10AC7000981CFCF704FC08B1002010BD012010BD99
:10AC8000142804D2024A00EB800022F8101070470A
:10AC90003C28002070B50546FFF75CFF04462846B7
:10ACA00002F090FF002808D1142C06D2034B04EBCD
:10ACB00084024FF6FF7123F8121070BD3C2800206B
:10ACC00010B50446142808D2FDF7D6FC28B1044973
:10ACD00004EB840031F8100010BD4FF6FF7010BD7A
:10ACE0003C2800203EB5044603F0ECF80EE0019944
:10ACF00020464631FFF7AFFF28B9019920462A3197
:10AD0000FFF7A9FF10B1BDF808003EBD6A4602A9D1
:10AD1000072003F0ABF80028E9D14FF6FF703EBDE5
:10AD200010B50A4941600A4800F0DFFC58B902F04A
:10AD3000C3F807491C238C22087404488C39001F6F
:10AD4000006800F038FC002010BD00000413030070
:10AD5000C02D00202DE9F0412C4D002420B16C6065
:10AD60004FF40640BDE8F0810879012250B1284B2C
:10AD700001280BD0254A02260832022821D00328B8
:10AD800029D12CE00A7102F071FD22E05FF0000091
:10AD900000EB800113F82110022908D0401C80B27A
:10ADA0000228F5D32A706C6041F61D50DAE700EBFB
:10ADB000800003F8204003EB8000406802F048FD6B
:10ADC00007E00C719680116800230122114800F001
:10ADD000BDFF0028C6D06C6048F20D60C2E70C4889
:10ADE0000C7128304188106801EB810703EB870163
:10ADF000D1F804C0C2F800C04860B2F804C0A1F89D
:10AE000008C0968003F82740D8E7000038240020C7
:10AE1000EC2C0020C02400200146034802888A420E
:10AE200000D0002070470000902700202DE9FC5F33
:10AE30000E008346DDE90C47C6F1000098469246B5
:10AE4000814600D40846012503E000BF90FBFAF0DC
:10AE50006D1C5045FADAA84500D9454624B1002EAC
:10AE600001DB780700D5641EB80702D5B8F1000FE2
:10AE70000AD0F80708D13CB1A54205D22021584696
:10AE8000641EFDF7E7FFF6E7002E02DA4E462D219D
:10AE900002E0780703D52B215846FDF7DBFF07F0CA
:10AEA000030002280BD1B8F1000F08D13CB1A54234
:10AEB00005D230215846641EFDF7CCFFF6E7CDE9F8
:10AEC0000047434652463146584605F0C5FDBDE8A9
:10AED000FC9F024600201268530713D502F00300BE
:10AEE000012802D002280CD105E0C2F383100B68C0
:10AEF000C01C184404E00323086803EB925210447A
:10AF000008600120704700000248007A002800D045
:10AF100001207047C02D0020F0B58488A518944208
:10AF200000D82246A41AC288D6189A4200D81346DE
:10AF3000D21A4B880788BB420CD34088834209D879
:10AF40008888A04206D3A84204D8C888904201D37A
:10AF5000B04201D90020F0BD0120F0BD0021425CCB
:10AF60000AB101207047491C1029F8D3002070470E
:10AF7000800701D000207047012070470268134607
:10AF800002E08A4204D01268002AFAD10B60016004
:10AF9000704708B50090684601F070F9009A0121E9
:10AFA0009140C0F8081508BD10B50D2001F029F931
:10AFB0000E2001F026F90F2001F023F9102001F0F6
:10AFC00020F90D20FFF7E5FF0E20FFF7E2FF0F202D
:10AFD000FFF7DFFFBDE810401020FFF7DABF08B52C
:10AFE0000090684601F04AF9009A01219140C0F8AA
:10AFF0000C1508BD08B50090684601F03FF9D0F87F
:10B000000425009B0121994021EA0203C0F808357C
:10B010001140C0F80C1508BD1721018041800021A6
:10B02000017141711B218171C17170472DE9FE4F82
:10B030002E4F984692460D00814601D000260DE025
:10B04000684600F075FA6A460021484602F012FD93
:10B050003878009E10B99DF8090098B152463146E3
:10B06000484605F0CDF90446014600224846FEF761
:10B07000A1FF0D2C37D008DCA4B3082C33D00B2C47
:10B0800009D130E00520BDE8FE8F112C1ED0A4F5BB
:10B090004050023827D0204601F0CCFF0246144829
:10B0A00014494B46401AC008012101EB00401249E7
:10B0B00001F02FFB5FF00305B8F1000F04D032461A
:10B0C00021464846FEF7A8FC2846DCE72A46F978E0
:10B0D0004846FDF7B5FA5246B9784846FDF7B0FA4A
:10B0E0000025E9E7FFE72546E6E70000B02300205A
:10B0F000882C0300282C03008C23030070B50E4617
:10B100000C49154604460978FDF782FA00280FD04D
:10B11000204602F055FC00282A463146204603D03E
:10B12000BDE8704002F052BCBDE87040FEF7D4BBF1
:10B1300070BD0000A823002070B5094D0646A9780F
:10B14000FDF766FA0446E9783046FDF761FA0146F4
:10B1500022463046BDE870400123FFF767BF00007C
:10B16000B0230020F0B585B00546002714216846BD
:10B17000FCF773F9A5F57F40ADF80250FF3825D0F4
:10B180002846FFF7E5FA040022D01B481B49401A65
:10B19000C6080B2C22D0112C1ED0A4F5405002382A
:10B1A0000ED0204601F046FF0246012000EB06408B
:10B1B0002B46134901F0ADFA2146284604F0DAFD8A
:10B1C00010483A4681782846FDF73AFA05B0F0BDB6
:10B1D0000F208DF800000BE00127F1E710208DF81B
:10B1E0000000022000EB06402A46074901F08AFAD7
:10B1F0006846FEF771FCE3E7402C0300282C0300AF
:10B20000B016030008230020041703000A46024971
:10B210004978FDF715BA0000082300202DE9F04118
:10B22000002786B080463E46FFF7DAFA04461F48FC
:10B230001F49401AC508112C23D003DCFCB10B2C8C
:10B2400006D114E0862C1ED0A4F5405002380ED052
:10B25000204601F0EFFE0246012000EB0540434688
:10B2600014A101F056FA2146404604F083FD394608
:10B270004046FFF7CBFF06B03046BDE8F08101261F
:10B28000F5E70127F3E714221A496846FCF7BEF8F0
:10B290000220ADF8028000EB0540424616A101F005
:10B2A00031FA6846FEF718FCE1E70000402C030085
:10B2B000282C03006773636D5F6C6F63616C5F6460
:10B2C000625F63616368655F757064617465282996
:10B2D0002072657475726E656420257320666F72C6
:10B2E00020636F6E6E5F68616E646C653A202564E2
:10B2F00000000000F4100300466C6173682066755E
:10B300006C6C2E20436F756C64206E6F74207374A8
:10B310006F7265206461746120666F7220636F6E66
:10B320006E5F68616E646C653A2025640000000001
:10B33000704700002DE9FF410026244800F0D2F9B3
:10B340002248001F074600F0CDF9214C2149A06892
:10B3500000900D6800E000986946284004EB8000EA
:10B360000C30FFF7B6FD0028F5D101AA009901EADB
:10B37000050304EB8303491CDB6842F82030401CC2
:10B3800000910328F2D3019800F0030001280BD0AC
:10B39000022810D10198032101EB90500099BDF8CB
:10B3A0000A6001EB900005E00198BDF80A60C0F367
:10B3B000831008440090384600F091F908B10098D5
:10B3C000A06004B03046BDE8F0810000903300205A
:10B3D000782F002064240020FCF7E2FF00F04CFBF3
:10B3E00018B11FA25721FBF717FF002000F07EFBCA
:10B3F000002000F013FBFDF775FCFEF70FFEFEF7D3
:10B4000073FEFEF70FF804F00DFE02F0F3FEFCF7FA
:10B41000F7FBFFF7C9FDFDF7BDFD154A01211548F2
:10B42000FCF72CFE18B10EA2A421FBF7F5FE114883
:10B43000002210210068FCF765FE18B108A2A521C2
:10B44000FBF7EAFE05F0FCF8FCF7D4FD04F048FA3F
:10B4500001F03AF80028F7D101F014FBF4E70000FE
:10B460002E2E5C2E2E5C2E2E5C6D61696E2E63007E
:10B4700099070300901003002DE9F047C5881E1DB1
:10B48000B6FBF5F78946B6FBF5F1044605FB176CEC
:10B49000407916686843DDF820A0F718001F87423E
:10B4A00000D9C61A166001E02468491E0029FBD1A4
:10B4B000A5EB0C078846B74216D818E004EB0C0041
:10B4C000001D09EB0803BAF1000F3A4602D001460D
:10B4D000184600E01946FBF799FF2468F61B4FF069
:10B4E000000CB844B54201D9374600E02F46002E83
:10B4F000E4D1BDE8F087000030B5024651B101F05B
:10B50000A7F90021074C08E034F821301568AB4258
:10B5100002D11160002030BD491C8142F4D30520C6
:10B5200030BD000000000000BFF35F8F00F0C2B824
:10B53000034A00219268C0E9002181607047000041
:10B54000B023002070B586B00D460646144614217F
:10B550006846FBF782FF8DF80050ADF802402046A8
:10B56000FFF7AEFBADF80400142269463046FBF746
:10B570004DFF06B070BD70B54FF6FF750E46A84280
:10B5800001D1002000E0401C84B208E02146304692
:10B5900000F090F808B1204670BD641CA4B2FF2CE6
:10B5A000F4D9284670BD10B5FBF78FFE08B1002016
:10B5B00010BD112010BD10B531B1B2FBF3F403FB87
:10B5C00014241CB1092010BD0E2010BD0160002103
:10B5D000416081608281C381084610BD70B50C4610
:10B5E0000546FBF727FE002802D02188286808447A
:10B5F00070BD10B50A8849888A4203D1FBF75CFE0A
:10B60000012010BD002010BD70B50C460546FBF7AB
:10B6100036FE002802D061882868084470BD10B545
:10B620000A8849888A4203D1FBF720FE012010BD19
:10B63000002010BD01F01F0301229A40D2434909A6
:10B6400000EB8100114600F059B80A4601F01F03D3
:10B650000121994010B552090C4600EB820000F020
:10B660005DF8204000D0012010BD2DE9F04180465A
:10B670000D460024481E012101EB501716E058F832
:10B680002400C04390FAA0F0B0FA80F020280CD239
:10B6900000EB4416AE4208D231464046FFF7D5FFD4
:10B6A0000028ECD13046BDE8F081641CA742E6D802
:10B6B0002846F8E74A0950F8220001F01F0201214C
:10B6C0009140084000D00120704701F01F03012283
:10B6D0009A40490900EB8100114600F029B8002189
:10B6E00000F017B8012100F023B8012100F016B8CE
:10B6F00008B56A46FBF735FE009808BD08B56A46EE
:10B70000FBF715FE009808BD08B56A46FBF729FE51
:10B7100008BD08B56A46FBF70AFE08BD08B56A46CB
:10B72000FBF7F8FD08BD08B56A46FBF7E7FD08BD65
:10B7300008B56A46FBF7EEFD009808BD08B56A46F5
:10B74000FBF71CFE009808BD38B5044600258DF8AF
:10B7500000506846FCF722FD216862680868904244
:10B760000ED9401E08600178238AE26801FB032598
:10B77000227A2168101AC0B20A79824200D2087176
:10B780009DF80000FCF72EFD284638BD38B505466B
:10B7900000208DF800000C466846FCF7FFFCE868C6
:10B7A000298A201AB0FBF1F12A681068431C136043
:10B7B00001709DF80000FCF715FD38BD10B530B1E3
:10B7C000017A42680368891AC9B21A6006E00E203D
:10B7D00010BD03681A68541C1C601170491EC9B260
:10B7E000F7D2006800210171084610BDC20800F0C0
:10B7F00007030120895C98400840704710B560B18C
:10B800000161172120F8021B20F8021B1B2100F800
:10B81000021BFFF701FC002010BD0E2010BD000030
:10B8200070B585880C46002D4FD1018824291FD082
:10B8300006DC102909D011290CD0232921D11CE0C4
:10B840003A290BD055291CD10DE00146204601F0C4
:10B8500061FD16E0A01DFFF7DFFB12E00146204668
:10B8600001F04AFF0DE00146204601F09FFE08E08E
:10B870000146204601F0D2FD03E00146204601F0DA
:10B8800057FEA07A002820D0E1882846A5DF0F497E
:10B890000F4A0126891ACD0858B1112815D001F098
:10B8A000C9FB024606EB0540BDE8704009A100F067
:10B8B00029BF0023A372E6720420E28800EB054052
:10B8C000BDE87040104900F024BF70BD582C030043
:10B8D000282C030073645F626C655F676174746336
:10B8E0005F65786368616E67655F6D74755F7265CB
:10B8F000717565737428292072657475726E65643C
:10B900002025732E000000002019030020B10278CA
:10B91000DE2A03D0082070470E20704741800020A7
:10B92000704760B159B10278DE2A0AD009684160D7
:10B93000DE2101704FF6FF714180002070470E201C
:10B940007047082070477FB5054600294DD0002D6F
:10B950004BD008780C46DE2847D1A88861888842F9
:10B9600002D1204605F024F92888012825D0022894
:10B970003BD011283AD0512837D135F8040F6188CF
:10B98000884232D1A978A81C02292ED1017A042933
:10B9900003D0062901D0052927D1002100910222D8
:10B9A0008DF8002001914FF4C07202910391ADF81F
:10B9B0000420007A05280FD010E0297A20460129BA
:10B9C00013D1A988428891420FD10121017204B09C
:10B9D000BDE8704005F0ECB8ADF804102888694661
:10B9E000B0DF002801D0616888477FBDA8886188E2
:10B9F0008842FAD14FF6FF7060807FBD00F1804031
:10BA00000068002800D00120704708B500F1804090
:10BA1000002101600068009008BD0000F8B5154DD8
:10BA200004466878002648B114B161680020884750
:10BA30008DF800606846FCF7B1FB13E08DF80060FC
:10BA40006846FCF7ABFB24B10A4821460830FFF7F3
:10BA500095FA686830B901F02FFA08B142DF01E0C9
:10BA600001F010FB6868401C68609DF80000FCF75E
:10BA7000B9FBF8BD202B002070B50D4C01252078B6
:10BA800008B185260EE00020A06060602061E060C3
:10BA9000084801F003FB064601F00EFA08B901F070
:10BAA000DBFA257001F0D0FA00B1A570304670BD08
:10BAB000202B00202193020038B500258DF800507E
:10BAC0006846FCF76BFB084CE068401EE060E068ED
:10BAD00028B901F0B9FA10B901F000FBA5709DF882
:10BAE0000000FCF77FFB38BD202B0020F8B5134D7C
:10BAF0000446A878002648B114B16168012088473F
:10BB00008DF800606846FCF749FB0EE08DF8006098
:10BB10006846FCF743FB24B1084821461030FFF784
:10BB20002DFAE86808B901F0C9FAE868401CE86035
:10BB30009DF80000FCF756FBF8BD0000202B00200C
:10BB40000FB408B50399002904D004AA00926A46EC
:10BB500000F00FF801B05DF814FB10B582680446E0
:10BB6000002A05D0D4E90403216898470020A0608A
:10BB700010BD2DE9FC4791460C00804676D014F8A4
:10BB8000011B39B125290ED04046FDF763F9207815
:10BB90000028F4D198F80C00002867D04046BDE892
:10BBA000FC47FFF7DABF0020012221782B291BD0A8
:10BBB0002D2902D0302908D102E040F0010001E037
:10BBC00040F00200641C002AEFD100252A290ED083
:10BBD0002178A1F130020A2A11D205EB850201EB8E
:10BBE0004205641C303DF1E740F00400EAE7D9F873
:10BBF00000100B1DC9F800300968641C0D44217841
:10BC000000232E290BD114F8011FA1F130020A2ABA
:10BC100005D203EB830201EB4203303BF3E76C29CF
:10BC20000DD068290BD0692921D00BDC252918D02B
:10BC3000582931D063290ED0642915D117E014F8A2
:10BC4000011FECE7702969D0732932D075291BD008
:10BC5000782909D120E0D9F80000011DC9F80010A9
:10BC600001784046FDF7F6F8641C90E76CE0D9F8DF
:10BC700000100A1DC9F800200968CDE900500A2209
:10BC80004046FFF7D3F8EFE7D9F800100A1DC9F8CE
:10BC9000002009680A2206E0D9F800100A1DC9F838
:10BCA000002009681022CDE90050404604F0D4FE7F
:10BCB000DAE7D9F8001000270A1DC9F800200E683D
:10BCC000C00705D112E04046761C7F1CFDF7C2F884
:10BCD00031780029F7D104E0202140466D1EFDF7A0
:10BCE000B9F8BD42C0D9002DF6D1BDE74EB13046FE
:10BCF000FBF7BEFB074604E0202140466D1EFDF722
:10BD0000A9F8BD4206D9002DF6D103E04046761CC5
:10BD1000FDF7A0F831780029F8D1A5E7D9F800009F
:10BD2000011DC9F80010056830214046FDF792F862
:10BD300078214046FDF78EF808200021CDE900016A
:10BD4000034610222946B0E7BDE8FC872DE9F843F9
:10BD5000884605002C482D499946A0EB01004FEA82
:10BD6000D0004FF00101164601EB004424D02868B2
:10BD700000282CD0002E34D0696840464FF01007C0
:10BD80000A68511E11EA080F11D101467243284674
:10BD9000FBF729FF00282ED028684B46324604695D
:10BDA00001B041462846A446BDE8F043604720461E
:10BDB000174B18A2009722E00E2000902046144B4B
:10BDC0001EA220A100F0ADFC0E20BDE8F8830820E3
:10BDD000009020460E4B26A21AA100F0A2FC0820DB
:10BDE000F3E7092000902046094B24A215A100F09A
:10BDF00098FC0920E9E7064B214A2046009711A14B
:10BE000000F08FFC1020E0E7D82C0300282C030062
:10BE1000EB120300616464725F69735F7061676550
:10BE20005F616C69676E656428705F66732C207053
:10BE30006167655F6164647229000000705F66730A
:10BE400000000000257320636865636B20666169EC
:10BE50006C656420696E20257328292077697468D1
:10BE60002076616C756520307825782E0000000002
:10BE7000705F66732D3E705F617069006C656E0067
:10BE80005024030038B503001148124D4FF00E0442
:10BE9000A0EB05004FEAD0004FF0010505EB004094
:10BEA00009D061B119600C6801B0A446BDE830400A
:10BEB000114618466047084B08A2009402E0064B62
:10BEC00008A2009409A100F02CFC0E2038BD00004F
:10BED000D82C0300282C0300A0120300705F6673A7
:10BEE00000000000705F617069000000257320632E
:10BEF0006865636B206661696C656420696E2025E6
:10BF000073282920776974682076616C7565203004
:10BF10007825782E00000000044801214174007A41
:10BF200008B100207047012070470000C02D00209C
:10BF3000012801D0032808D10449002201284A74AD
:10BF400000D00020087403F0EBB97047C02D00202A
:10BF500070B50246022801D0032A45D1234C207A2D
:10BF6000002841D0012833D0022831D120480023B5
:10BF7000022A006802D0032A2AD11BE0E36001797B
:10BF800011B1012924D10DE0D0E90565711B4FF4F1
:10BF90008056B14200D33146294481614569A942A6
:10BFA0000ED015E00169491C0161426991420FD12F
:10BFB000237213E0E168491CE160082908D9E360B5
:10BFC0002372022A0AD00D21FDF7FCFC03F04CF984
:10BFD000607C28B1BDE8704000F074BF0021F3E739
:10BFE000BDE8704003F09CB970BD0000C02D00207A
:10BFF000482400202DE9F84F90468A463A493B4AAA
:10C000000500A1EB02014FEAD1014FF00102DDF87A
:10C0100028901E464FF00E0002EB01441AD0B8F1F2
:10C02000000F1CD02868002822D00920002E29D01B
:10C0300069684968B6FBF1F201FB1261002926D05C
:10C0400000902B4B20462BA235A100F06AFB092063
:10C05000BDE8F88F00902046254B3CA203E00090FD
:10C06000234B20463BA22EA100F05BFB0E20EFE706
:10C070000820009020461E4B38A229A100F051FB59
:10C080000820E5E700902046194B37A2DCE7504630
:10C09000FBF7A3FD102798B14046FBF79EFDA0B12A
:10C0A000324651462846FBF79EFD98B1CDF80090E8
:10C0B000286833464246C46851462846A047C7E729
:10C0C00020460B4B29A2009708E02046084B2DA2E2
:10C0D000009703E0064B204633A2009710A100F022
:10C0E00020FB1020B4E70000D82C0300282C03000C
:10C0F000D812030021286C656E202520705F6673BE
:10C100002D3E705F666C6173685F696E666F2D3E71
:10C1100070726F6772616D5F756E697429000000DF
:10C12000257320636865636B206661696C656420B4
:10C13000696E202573282920776974682076616CE0
:10C14000756520307825782E00000000705F6673DA
:10C1500000000000705F737263000000705F667320
:10C160002D3E705F617069006C656E006164647281
:10C170005F69735F616C69676E65643332286465FB
:10C1800073742900616464725F69735F616C6967CD
:10C190006E65643332282875696E7433325F742992
:10C1A000705F737263290000616464725F69735F1A
:10C1B00077697468696E5F626F756E647328705F0B
:10C1C00066732C20646573742C206C656E290000E6
:10C1D0002DE9FF411C46DDE90A7815460E46684602
:10C1E00000F05AF846EA450141EA840141EA072293
:10C1F00042EA0841009A00EB8200C0F80017BDE84F
:10C20000FF8108B50090684600F038F8009A0321D5
:10C2100000EB8200C0F8001708BD13B50C46684655
:10C2200000F03AF8009900EB8101D1F8002722F4E0
:10C230004032C1F80027009900EB8100D0F80017C8
:10C2400041EA0441C0F800171CBD00003CB50A4C8F
:10C25000D4E90034CDE900346B46441808E000BF4F
:10C2600053F82010D1F8205520C2C1F82055401CA9
:10C270008442F5D83CBD000050120300016820291B
:10C2800002D24FF0A040704701F01F010160014849
:10C2900070470000000300500168202902D24FF0CF
:10C2A000A040704701F01F01016001487047000085
:10C2B0000003005042094FF0000102D0012A05D1CD
:10C2C00002E04FF0FF3101E04FF6FF7100F01F0078
:10C2D000012282400A4201D00120704700207047AD
:10C2E000202802D24FF0A04102E0044900F01F00D4
:10C2F000D1F81015C14001F0010070470003005053
:10C3000001B56846FFF7C8FFD0F810050099C8408E
:10C3100000F0010008BD0000034908B508440021F1
:10C3200001600068009008BD00600040024940586C
:10C33000012800D0002070470060004030B5154A49
:10C3400001460020D2F8104423460AE0DB681D793C
:10C35000854205D1401C0A28F6DB4FF0FF3030BD86
:10C360001B68002BF2D1431CF9D0CB681871D2F8AE
:10C37000103443B1DB68CC681B682360D2F810240A
:10C38000D268116030BDC2F81014C96800220A607A
:10C3900030BD0000782F00207047FBF74BB9704785
:10C3A00008B5034A00924023024A00F005F808BD90
:10C3B000C5FD0200E02D0020F0B595B01C461546E5
:10C3C0000E4608461A9F00F024FB182109A8FBF727
:10C3D00044F80E97CDE9095400230C2203A93046F6
:10C3E00000F02CFB05980690BDF81000ADF81C007D
:10C3F000BDF81200ADF81E0001208DF82100039950
:10C400000C2501F00300012802D0022816D02FE0ED
:10C41000C1F3C200C1F383178C0A8DF82000BA0063
:10C420002B460FA9304600F009FB09A8009006AB87
:10C430003A460FA9204600F037FA19E0C1F3C200CE
:10C440008C0D8DF82000082C01D2274600E008272B
:10C450002B463A460FA9304600F0F0FA3D44E41B63
:10C4600009AB06AA39460FA800F07CF9002CEAD1E6
:10C47000304600F0D4FA15B0F0BD00000A4A012998
:10C4800002EBC00007D0022907D0032907D00429F6
:10C4900007D00020704702207047042070470079C1
:10C4A0007047407970470000282C030010B5FFF753
:10C4B00074FF04210348FFF741FF02490120C968C6
:10C4C000487110BD182C03002DE9F04F8DB0FCF71A
:10C4D000D9FC18B100200DB0BDE8F08F7D4C4FF0B5
:10C4E000000BC4F818B4BFF34F8F7B49A0680290CB
:10C4F0000D68D846284004EB80000BE0D4F81804FF
:10C5000070B961680298814201D8A160E2E72840D1
:10C5100004EB80000C3002A9FEF7DBFC0028EDD113
:10C52000002009AA029901EA050304EB8303491CD0
:10C53000DB6842F82030401C02910328F2D30998AE
:10C5400000F00301022902D001294DD0A8E0810D9D
:10C5500050228946B2EB905F00D850210E4666F318
:10C560009F5009900C315D4800F00AFA070077D01F
:10C5700000F04FFA43460C2209A9384600F066FA4B
:10C58000029908F10C0A2940681A8000001D8642B1
:10C5900023D9504D0C3530B1C2B204EB8101301AB1
:10C5A00090460C3104E02946F2B200259046284618
:10C5B000C6B25346384600F049FA0AEB08032DB1DB
:10C5C000324629464FEA070000F040FA029909F185
:10C5D000030001EB9000029039E004EB8101534627
:10C5E000324638460C31EFE7C0F38311062900D3F9
:10C5F000062161F389100990C0F38310C01C8100EB
:10C60000364800F0BDF907004AD000F002FA434670
:10C610000C2209A9384600F019FA08F10C08002686
:10C620000FE00298434600EA0501401C04EB81013B
:10C630000290042238460C3100F008FA08F1040890
:10C64000761C0998C0F38310B042EAD847B1D4F8F9
:10C650001054D4F8180478B1384600F0E0F934E00A
:10C660001EE0E8684079012804D12A682846394646
:10C6700012689047E8680568002DF2D1384600F04E
:10C68000CEF98DF800B06846FBF788FDD4F81804A1
:10C6900008B90298A0609DF80000FBF7A3FD14E024
:10C6A000D4F8104405E02168204689688847E0688E
:10C6B0000468002CF7D10A480A49401AC008022130
:10C6C00001EB004008A100F019F8FCF7DBFB80F05B
:10C6D000010000E7782F002064240020102D0300C3
:10C6E000F02C0300282C03004261636B656E6473B9
:10C6F00020666C75736865640000000000231A46AC
:10C7000003F0BEBF08B5012300926A4603F0B8FFEC
:10C7100008BD1CB5CDE9002302236A4603F0B0FF33
:10C720001CBD3EB5069C8DE81C0003236A4603F041
:10C73000A7FF3EBD7FB5DDE908458DE83C00042339
:10C740006A4603F09DFF7FBD70B586B00DF1280CE1
:10C750009CE870008DE87C0005236A4603F090FF9A
:10C7600006B070BD2DE9F0470E4680461C46924645
:10C77000082940D894F80C900020207319461046E0
:10C7800002F00CFD0025B54206D218F805201BA1C9
:10C790002046FFF7D5F903E01AA12046FFF7D0F9AC
:10C7A0006D1C082DEFD318A12046FFF7C9F900250D
:10C7B000B54212D218F805707E2F08D8FAF722FE7B
:10C7C0000068C05D10F03E0F01D03A4600E02E2216
:10C7D0000EA12046FFF7B4F903E00DA12046FFF7B4
:10C7E000AFF96D1C082DE3D301222146504602F01B
:10C7F000B7FC84F80C90BDE8F087000020253032AB
:10C8000078000000202020007C000000256300004C
:10C810002000000070B5040011D00A4D00202870DF
:10C82000084600F09DF80848C5F80C4400F0F5F8FB
:10C83000002803D1054800F047F9002070BD07200B
:10C8400070BD0000782F0020102D0300A8140300F5
:10C8500002480349401AC00870470000102D030029
:10C86000282C030013B56846FEF746FE08B10020E9
:10C870001CBD0248009950F831001CBD282C030053
:10C8800070B508480125D0F81044057007E0E0684D
:10C8900045712168204649688847E0680468002C93
:10C8A000F5D170BD782F00202DE9FF4781460C9D02
:10C8B00000200C462F7B28739846164629461846BA
:10C8C00002F06CFC072E42D2DFE806F004090F16D6
:10C8D0001F2A360049462846FFF732F937E0494615
:10C8E00028462268FFF72CF931E0D4E900234946B5
:10C8F0002846FFF725F92AE0A0680090D4E9002334
:10C9000049462846FFF71CF921E0D4E90201CDE9A8
:10C910000001D4E9002349462846FFF711F916E043
:10C9200004F1080007C88DE80700D4E90023494650
:10C930002846FFF705F90AE004F108000FC88DE862
:10C940000F00D4E9002349462846FFF7F9F80022F2
:10C950002946404602F004FC2F73BDE8FF87000023
:10C96000054A0121054B516001E040084900984209
:10C97000FBD8C2E9000170477824002040420F0034
:10C980002DE9F041058A80462D1F4819C01CB0FBD7
:10C99000F5F0C6B24046FEF7D7FE041E19D00020BF
:10C9A000207101206071E58000272546761EC4F8BD
:10C9B00000800BE04046FEF7C7FE60B16179491C7C
:10C9C0006171286005467F1CC0F80080B742F1D332
:10C9D0002046BDE8F081204600F002F80020F8E78C
:10C9E0002DE9F041457901466B1E002201E00968FE
:10C9F000521C9A42FBD30F680146002605E03846D8
:10CA00000C68FEF7C3FE2146761CAE42F7D3BDE8A4
:10CA1000F0810121001DFEF76BBEFEF7CFBE10B501
:10CA200004460121001DFEF789FE10F0FF0F04D11E
:10CA30002046BDE81040FFF7D3BF10BD1CB50192E2
:10CA40000122009201AAFEF717FD1CBD1CB5019240
:10CA50000022009201AAFEF70FFD1CBD064910B589
:10CA600000204870091D0860BFF35F8F0349044828
:10CA700000F072FA002010BD50240020481303007B
:10CA8000D42D002008B500208DF800006846FBF783
:10CA900085FBF1EE100A20F09F00E1EE100ABFF3D3
:10CAA0005F8F08494020C1F880029DF80000FBF725
:10CAB00099FB00F001FA08B141DF08BD20BF40BF7B
:10CAC00020BF08BD04E000E0826800219160826818
:10CAD0001161826851618268D160826851608068AA
