:020000022000DC
:107000000000042059320300813203008332030060
:10701000853203008732030089320300000000003C
:107020000000000000000000000000008B320300A0
:107030008D320300000000008F3203009132030004
:107040000D290300933203005528030093320300F7
:107050009332030093320300492D0300933203005F
:107060009332030093320300933203009332030000
:1070700093320300933203009332030093320300F0
:1070800093320300E50903009332030093320300B7
:107090009332030093320300690D0300933203001F
:1070A00093320300933203009332030093320300C0
:1070B0009332030093320300000000000000000040
:1070C00093320300933203009332030093320300A0
:1070D0009332030093320300933203009332030090
:1070E0009332030093320300933203000000000048
:1070F0000000000093320300000000009332030000
:10710000000000000000000000000000000000007F
:10711000000000000000000000000000000000006F
:10712000000000000000000000000000000000005F
:10713000000000000000000000000000000000004F
:10714000000000000000000000000000000000003F
:10715000000000000000000000000000000000002F
:10716000000000000000000000000000000000001F
:10717000000000000000000000000000000000000F
:1071800000000000000000000000000000000000FF
:1071900000000000000000000000000000000000EF
:1071A00000000000000000000000000000000000DF
:1071B00000000000000000000000000000000000CF
:1071C00000000000000000000000000000000000BF
:1071D00000000000000000000000000000000000AF
:1071E000000000000000000000000000000000009F
:1071F000000000000000000000000000000000008F
:1072000010B5054C237833B9044B13B10448AFF3E0
:1072100000800123237010BD98230020000000008F
:107220001465030008B5034B1BB103490348AFF3D2
:10723000008008BD000000009C23002014650300AE
:10724000A3F5803A704700BF174B002B08BF134BC4
:107250009D46FFF7F5FF00218B460F461348144A61
:10726000121A0CF0A3F90E4B002B00D098470D4BCF
:10727000002B00D098470020002104000D000D488D
:10728000002802D00C48AFF300800CF045F9200034
:1072900029000AF02FFC0CF02BF900BF00000800B9
:1072A00000000000000000000000042098230020DF
:1072B00050360020000000000000000075DF70471D
:1072C00076DF70477ADF70477BDF704770B51D4D02
:1072D0002B8884B2A34282B011D11B4E297A327B13
:1072E00091420ED3337C00222A72F3B9736933B111
:1072F00000228DF80420ADF8064001A8984702B09E
:1073000070BD05F10A011846FFF7D8FF40B11128FA
:10731000F5D0B369002BF2D002B0BDE87040184739
:107320002B7A01332B7202B070BD3B212046FFF750
:10733000C7FF30F00803D9D0B369002BD6D09847E7
:10734000D4E700BFD0230020B423002070B502880A
:10735000122A82B003466DD015D8102A30D0112AD7
:107360000FD16A4C828823889A420AD1606809F05A
:107370007BF918B1664B9B6903B198474FF6FF73D1
:10738000238002B070BD502AFBD1614DC188EA89CB
:107390009142F6D1028A022AF3D15C4C8288268877
:1073A0009642EED1123000F09FFA002800F098804B
:1073B000637A002B40F09B80D5E90113324667E0E9
:1073C00090F80FC0BCF1010FDBD1504C21884FF673
:1073D000FF7291427DD14F4D82882280002121721F
:1073E00003CDC4F80A00C4F80E10598A6089884297
:1073F00060D8A08988425DD3E1899B8A40F2F31569
:10740000A94294BF481A481B984253D8294499422C
:1074100050D33F4D84F809C0EB89002BB1D16B6983
:10742000002BAED001218DF80410ADF8062001A884
:107430009847A6E7354C828821889142A1D140899E
:10744000658985421FD8A58985421CD3E0899B891F
:1074500040F2F31C604594BF051AA0EB0C059D4259
:1074600011D8604498420ED3294B5B694FF4807267
:107470002281002B85D001228DF80420ADF8061062
:1074800001A898477DE7224D002363726968AB68C5
:10749000207A002818BF1946606809F075F800289E
:1074A0003FF46FAFAB69002B3FF46BAF02B0BDE8A8
:1074B00070401847164DEB8900216172002B7FF454
:1074C00060AF6968606809F05FF800283FF459AF61
:1074D000E8E70F4B9B69002B3FF453AF0420E5E72F
:1074E000606809F0C1F800283FF44BAFDAE76B6938
:1074F00000222272002B3FF444AF01228DF80420B9
:10750000ADF8066001A898473BE700BFD0230020F4
:10751000B4230020E423002070B3F8B58646076842
:10752000164E174D0446BEE80F00B446ACE80F00F7
:107530009EE8070035608CE80700BFB13846FFF7CA
:10754000C1FE90B923681868596803C50D4B0E49F0
:107550000E4A18464FF6FF7440F8041F1C800021A5
:1075600008F0FAFF002818BF0320F8BD2846FFF7EF
:10757000ABFE0028EAD0F8BD0E207047B4230020EF
:10758000E4230020D0230020F0230020CD7202004D
:107590002DE9F04F0388B0F80490103B99B00746EE
:1075A0000A2B12D8DFE803F0287111111111111103
:1075B000117814004648494605F0A8F84548494660
:1075C00005F0A4F8FB7B022B7CD019B0BDE8F08F4E
:1075D000037A41483F2B4FEA1314494665D905F019
:1075E00095F83E48494605F091F83D48494619B09E
:1075F000BDE8F04F05F08AB83A4A9368DB43009340
:107600005168684604F070FF009B0193019B9BB397
:107610004FF000084446214601A805F09DF830B11E
:1076200018AB03EB480308F1010823F8284C013498
:10763000142CF0D1CDF834800DAD0FCD02AC0FC4B9
:107640000FCD0FC495E8070084E80700B8F1000FDC
:1076500012D0254E0DF10A0B4FF0000A3BF8025FE5
:107660001C4C20462946043405F06AF8A642F8D19D
:107670000AF1010AC245F1D1B9F1130F9AD90420D8
:1076800009F0BAF919B0BDE8F08F1148494619B0B0
:10769000BDE8F04F05F054B8037A002B95D1437A3A
:1076A0000D481B074946F2D5A1E705F049F8032C20
:1076B00097D00A48494605F043F8022C95D008486F
:1076C0004946E4E70948494605F020F87DE700BF50
:1076D0001824002014240020282400202424002022
:1076E00020240020102400208C2400201C240020B2
:1076F0001328014601D900207047014805F02CB835
:1077000014240020132801D90020704710B5044626
:107710002146074805F020F808B9002010BD214691
:10772000044805F019F8002814BF0220012010BDFC
:10773000142400201C240020132801D900207047A5
:1077400010B504462146074805F006F808B90020A0
:1077500010BD2146044804F0FFFF002814BF02209A
:10776000012010BD1424002018240020132801D962
:107770000020704710B504462146064804F0ECFF8F
:1077800008B9002010BD21460348BDE8104004F0B0
:10779000E3BF00BF1424002020240020132801D9B7
:1077A0000020704710B504462146064804F0D4FF77
:1077B00008B9002010BD21460348BDE8104004F080
:1077C000CBBF00BF1424002024240020132801D99B
:1077D0000020704710B504462146064804F0BCFF5F
:1077E00008B9002010BD21460348BDE8104004F050
:1077F000B3BF00BF142400202824002008B518219E
:10780000024804F0B3FFC0B208BD00BF102400203E
:1078100070B50C4E044630460D4604F09DFF08B18D
:10782000132C01D9002070BD2146301D04F094FFB7
:107830000028F7D0E81D214606EB8000BDE8704027
:1078400004F08ABF10240020F8B50F4F04463846D4
:107850000D46164604F080FF08B1132C00D9F8BD80
:107860002146381D04F078FF0028F8D0E91D07EB09
:10787000810021461EB1BDE8F84004F047BFBDE8D5
:10788000F84004F05DBF00BF10240020F0B5154E95
:1078900083B004460F4601463046154604F05CFFAF
:1078A00018B90026304603B0F0BD063406EB840458
:1078B00063680193002FF4D0019B002BF1D00026C8
:1078C0003446214601A804F047FF03462946A0B2EA
:1078D00001340BB1B8470136142CF2D1304603B055
:1078E000F0BD00BF10240020008800F001007047A8
:1078F00090DF7047A5DF7047B5DF704770B5214B4B
:10790000214CE41AE408002661F30F06240484B035
:107910000A4661F31F4603461C49054644F004002D
:1079200007F0FCFC00236A4602A92846029603934E
:107930000093ADF80430FFF7DBFF064610B9304680
:1079400004B070BD08F0BAFB44F0010403461049CE
:107950002A46204607F0E2FCBDF80020BDF80230C0
:1079600052EA030103D00B49204607F0D7FCBDF8CB
:107970000420002AE3D02046074907F0BBFD30462B
:1079800004B070BDAC6503000C6603007C3A0300D4
:10799000AC3A0300F83A0300383B030008B90E2064
:1079A00070474FF01712002301614FF01B0C41F696
:1079B0001B31026080F804C0C0F806204381818139
:1079C000184670472DE9F041868886B0002E7CD19C
:1079D0000388242B05460C461BD80F2B51D9103B8E
:1079E000142B4ED8DFE813F0AD0068004D004D00B9
:1079F0004D004D004D004D004D004D004D004D001F
:107A00004D004D004D004D004D004D004D00F80063
:107A1000C0003A2B5CD0552B33D1964B964AC78881
:107A200096499D1AED082D0445F004003B46324668
:107A3000039007F073FCA6720096E38803989049C0
:107A4000172F3A4638BF17229A4228BF1A4622817A
:107A500007F07CFBE1883046FFF74EFF002840F03E
:107A6000D280E37A6BB922695AB12189ADF814103A
:107A700040F67720ADF81000ADF8123004A920468A
:107A80009047A37A0BB3E1880020FFF733FF03464A
:107A9000002845D0112818D008F010FB754B794903
:107AA000024675481B1ADB081B0443F0010006B0B0
:107AB000BDE8F04107F01EBD4FF01711002241F65E
:107AC0001B33C4F806106281A38106B0BDE8F081C3
:107AD0006A89E388684967489A4228BF1A46401A6B
:107AE000172A4FEAD00038BF1722000433466649F0
:107AF000228140F0040007F011FC23696BB1E27AA7
:107B00005AB140F677212289ADF81010ADF8126015
:107B1000ADF8142004A92046984700236381D4E7D8
:107B2000554A5448801A4FF48071C0086181E28838
:107B30005649000440F0040006B0BDE8F04107F0EB
:107B4000EDBB09792173C37B012B65D0022B58D182
:107B50006288E2802389934261D3637B8B4290D217
:107B60000020FFF7CBFE8CE706898789B0F80E80EE
:107B70004589414B3F48C01AC008F2B200040023B7
:107B800040F004004A734249039007F0C7FB4149A3
:107B900003982A4607F0AEFC3F490398324607F0A7
:107BA000A9FC3E490398424607F0A4FC3C490398CF
:107BB0003A4607F09FFC2369002B3FF462AF627BDB
:107BC0008DF8142000204DF67A218DF815000491CF
:107BD000204604A9984754E7274B26482E7A314976
:107BE000C01AC008000440F004003346002207F029
:107BF00095FB217BA888B14228BF3146FFF77EFE66
:107C00003FE7E288A6E708F059FA2749024645F01F
:107C1000010007F06FFC24E72288E2809AE716490A
:107C2000144D6D1AED082D0445F004061F49304629
:107C3000002307F073FBE1880020FFF75BFE18B913
:107C40000123217BE37288E7112809D008F036FA76
:107C50000C49024645F0010007F04CFC217B7CE713
:107C600001231349A3720022304607F043FC217B15
:107C700073E700BF0C660300AC650300943C03008F
:107C8000D03C0300243C0300583C0300F83D0300B3
:107C9000403D0300703D0300843D0300983D030018
:107CA000A83D0300B83D0300103D0300903B0300D6
:107CB000D03B0300B0DF704766DF704760B159B159
:107CC0000378DE2B0AD009684160DE224FF6FF738D
:107CD00002704380002070470E20704708207047D4
:107CE00038B10378DE2B02D1418000207047082094
:107CF00070470E20704700BFF9B170B5054684B0DB
:107D000050B10B78DE2B0C4606D180884B88984208
:107D100014D02B88012B01D004B070BD2E7A012E17
:107D2000FAD16388A8889842F6D126720021FFF71D
:107D3000C3FF00284DD12072EEE770470B7AEBB9F4
:107D40002B88112B31D0512BE4D1AB79022BE3D10D
:107D5000AA7B02F0FD0104292ED0052ADCD10022E5
:107D60006946C1E901220092CA608DF80030FFF730
:107D7000A1FF0028D0D063689847CDE70021FFF726
:107D80009BFF0346B0B1112813D0636898472B8836
:107D9000112B06D0512BBDD1A88863888342D4D043
:107DA000BAE7AA8863889A42B6D14FF6FF73638018
:107DB000B2E701232372EAE769460022C1E9012202
:107DC0000092CA604FF4C0728DF80030ADF8042004
:107DD000CDE7112804D0636804B0BDE870401847AF
:107DE000267299E7A0DF7047A1DF7047ADDF7047CB
:107DF000B3DF7047B4DF704730B583B00446042268
:107E0000002168460BF0D2FB0C4A1268019242F640
:107E1000A623012501AA69462046ADF800308DF859
:107E20000250FFF7DFFF08B103B030BD044B2A4614
:107E300019782046FFF708FD03B030BD74410300F8
:107E40009024002070B54FF6FF738AB0002498424A
:107E5000CDE90044CDE902440494ADF8020027D0F6
:107E6000054600F0B9FD112806465DD022D838B38A
:107E70000B2834D12D4A2E482E49801A1023C008D1
:107E800098402A4640F002008DF8003007F032FB9F
:107E9000BDF8020001F00CF803466846ADF8043066
:107EA00002F0CAFA2246244B28461978FFF7CCFC88
:107EB0000AB070BD43F20203984210D12246F2E7A5
:107EC0000F23BDF802008DF8003000F0F1FF0346EB
:107ED0006846ADF8043002F0AFFA3246E3E73046C8
:107EE00008F0ECF8124B154902461048181AC00861
:107EF00000042B4640F0010007F010FA002408238C
:107F00002846CDE90544CDE908448DF81430ADF894
:107F10001650079600F0CCFF034605A8ADF81830C0
:107F200002F08AFA2246BEE70122BCE7AC650300F4
:107F30003C660300503E030093240020D03E030023
:107F400070B5012186B00646384804F0ABFABFF39D
:107F50005F8F08B106B070BD0446304600F0A4FC47
:107F6000112805465BD01ED880B30B2821D02846A7
:107F700008F0A4F82E4B2F4902462F48181AC008C3
:107F80000004334640F0010007F0C8F9002408233C
:107F9000CDE90144CDE904448DF804303046ADF814
:107FA0000660039532E0862819D043F20203984216
:107FB000DDD1224B002219783046FFF745FCBFF394
:107FC0005F8F1A4B00221A6006B070BD1B4B1978E8
:107FD0000246304606B0BDE87040FFF735BC164B90
:107FE000134817490194C01AC008000440F0020069
:107FF00007233246CDE90244CDE904448DF804302C
:10800000ADF8066007F076FABDF8060000F050FF04
:10801000034601A8ADF8083002F00EFAC9E7074B95
:10802000012219783046FFF70FFCC8E78C240020A6
:108030003C6603005C3F0300AC6503009424002011
:10804000243F03002DE9F047DFF8808188B098F8DD
:1080500000100446FFF7DCFB10B108B0BDE8F08764
:108060000546204600F028FD112806460CD81128A8
:1080700025D8DFE800F08C242424242457245E240F
:10808000242424242424244943F2020398423BD08C
:1080900043F20143984212D12046FFF7D3FE012755
:1080A000464B3A4619782046FFF7CEFB98F8001069
:1080B0002A46204608B0BDE8F047FFF7C5BB30466A
:1080C00007F0FCFF3E4B3F4902463F48C01AC0083C
:1080D0000004234640F0010007F020F90023CDE919
:1080E0000333CDE90633204608238DF80C3005967E
:1080F000ADF80E4000F0DCFE034603A8ADF81030EA
:10810000012702F099F9CBE70127C9E701AB314616
:1081100003AA20460493FFF769FE18B9BDF804309E
:10812000002BBDD1204600F0C3FE00F0F3FC002779
:10813000B6E70DF10600FFF75BFEBDF80630012B38
:10814000F0D90027012602A94FF0020942F6021ACF
:1081500009E0BDF808305345D8D0BDF806300136E7
:10816000B6B2B342DED930460022CDE90391FFF723
:1081700041FE42F605230028D4D102A9002FE8D100
:10818000BDF80870FF1AB7FA87F77F09E5E7002303
:1081900011222046CDE90333CDE9053307938DF84D
:1081A0000C20ADF80E4000F083FE0125034603A825
:1081B000ADF810302F4602F03FF971E7952400200A
:1081C000AC6503009C3F03003C660300962400203E
:1081D00070B54FF6FF738AB000249842CDE9004491
:1081E000CDE902440494ADF8020027D0054600F022
:1081F000F3FB112806465DD022D838B30B2834D1C2
:108200002D4A2E482E49801A1023C00898402A462D
:1082100040F002008DF8003007F06CF9BDF8020064
:1082200000F046FE03466846ADF8043002F004F95B
:108230002246244B28461978FFF706FB0AB070BD8A
:1082400043F20203984210D12246F2E70F23BDF811
:1082500002008DF8003000F02BFE03466846ADF8B2
:10826000043002F0E9F83246E3E7304607F026FF33
:10827000124B154902461048181AC00800042B4634
:1082800040F0010007F04AF8002408232846CDE911
:108290000544CDE908448DF81430ADF81650079622
:1082A00000F006FE034605A8ADF8183002F0C4F849
:1082B0002246BEE70122BCE7AC6503003C66030032
:1082C000503E030093240020D03E0300037803B106
:1082D000704730B5044683B04088FFF7B3FD65882A
:1082E000284600F0D3FBA0B96488204600F0E0FDEA
:1082F00000236A46092101F03BF8052818D0104BED
:10830000104918780022FFF7C1FA024640B103B0C5
:1083100030BD0D4B012219782846FFF795FAE3E7A7
:108320000A4B0B49187803B0BDE83040FFF7AEBAEE
:10833000064B012219782046FFF786FADFE700BFD7
:1083400094240020417F02009524002091240020E5
:10835000F97D0200F0B50578092D83B009D0314CC4
:10836000314920780022FFF791FA024650B303B05A
:10837000F0BD477A0446002FF1D1067A072E29D0A6
:10838000082E45D0012EEAD180886A46314601F098
:10839000B1FB05460028E2D1019B1B78002BDED003
:1083A000A08800F04BFE4FF6FF739842D7D01F4CC9
:1083B00032462178FFF748FA1D4920782A46FFF710
:1083C00065FACCE71B4B1C49187803B0BDE8F040B8
:1083D000FFF75CBA8088134C00F030FE4FF6FF7355
:1083E00098420646BCD021780122FFF72DFA30468C
:1083F00000F05EFD3B4629466A4600F0B9FF0528BD
:10840000AED10C4B012219783046FFF71DFAA7E7D1
:108410000A4B1A68012AA2D1BFF35F8F014C1F607B
:108420009EE700BF94240020417F02009524002095
:108430004580020091240020F97D02008C24002058
:108440002DE9F843FFF7DAF9234C244D2070FFF7AC
:10845000D5F92870FFF7D2F9214E224F3070FFF77F
:10846000CDF93870FFF7CAF9DFF89080DFF8909007
:1084700088F80000FFF7C2F989F80000FFF7BEF99D
:108480002378194A182B107019D02B78182B16D076
:108490003378182B13D03B78182B10D098F8003075
:1084A000182B0CD099F80030182B08D0182806D0BB
:1084B0000E4B00201860BFF35F8FBDE8F8830C4BB4
:1084C0000C480D49C01AC008000440F0010007F034
:1084D000F3F80320BDE8F8839424002093240020BF
:1084E0009524002096240020922400208C24002033
:1084F000AC6503003C660300DC3F030091240020D0
:108500009024002070B503888588353B86B00446EA
:108510001F2B65D8DFE813F020009C006400640086
:10852000640064006400640064006400640064002B
:10853000640064006400640064006400640064001B
:108540006400640064006400640064006400C400AB
:108550006400E30064007300854E28463178FFF71D
:1085600057F900283CD0002231782846FFF76CF9F3
:10857000E288B2F5857F1ED0002A40F0DD80628956
:10858000012A09D07B4B7C487C49181AC00800049A
:1085900040F0020006F0AEFFA689012E00F0D78061
:1085A0007448754B7649C01AC0080004324640F042
:1085B000020006F09FFF734B1978734B0022284688
:1085C000CDE90132FFF740F9704B0293284600F0E5
:1085D0006FFC002201A900F047FF002840F08480D2
:1085E0006B4C6C4B6C4918780022FFF74FF96B49C4
:1085F0002078002206B0BDE87040FFF747B900269A
:1086000012232846CDE90166CDE903668DF80430D2
:108610000596ADF8065000F04BFCADF8080000F0F0
:1086200079FA5F4B5A4C197832462846FFF70CF915
:10863000217832462846FFF707F9BDF8060000F01A
:1086400037FC034601A8ADF8083001F0F5FEC8E795
:10865000544E28463178FFF7DBF80028C0D00022BE
:1086600031782846FFF7F0F8E288002A4AD1E389FA
:10867000012B52D0404A3F484149801AC0080004AB
:108680001A4640F0020006F035FF3E493E4B09789D
:1086900000222846CDE90132FFF7D6F83B4B94E79C
:1086A000037B012B9CD1827A012A99D1018942F660
:1086B0000213994294D13C4C28462178FFF7C4F824
:1086C00000223A492078FFF7E1F80246002887D1D6
:1086D0002C4B374918782E4CFFF7D8F881E72846FD
:1086E000FFF7B0FB2A4C7CE707F0E8FC214B31494F
:1086F000024621481B1ADB081B0443F0020006F067
:10870000F9FE6DE71C4B1B482B49C01AC00800043A
:1087100040F0020006F0EEFEB7E71A491A4B09785E
:10872000247C2846CDE90132FFF78EF8234B174A07
:10873000002C08BF134648E70F4B0E481E49C01ACD
:10874000C008000440F0020006F0D4FE33E7E189DF
:1087500000222846FFF748FB00287FF42CAF114B7E
:108760000B4C197832462846FFF76EF839E700BF00
:10877000902400203C660300AC650300E840030041
:1087800024410300912400200100090078410300E6
:108790009524002093240020D1810200458002000E
:1087A000962400209224002094240020417F02007F
:1087B000F97D02004C400300AC4003007C41030003
:1087C000AFDF7047B1DF7047B2DF7047B3DF70478C
:1087D000F0B5264B264D93E803002B8889B04FF661
:1087E000FF7701AEBB4286E8030007D137E0288857
:1087F00000F0BEFEB8420346288030D00022314649
:10880000184600F031FE04460028F0D00023CDE9E0
:108810000333CDE90533079311282B88ADF81030C9
:108820001DD086281DD007F049FC12492B8802462E
:108830001148081AC008000440F001000F4906F072
:108840006DFD0823BDF810008DF80C30059400F084
:10885000F5FB034603A8ADF80E3001F001FE09B0A8
:10886000F0BD072218468DF80C20F0E7684303009E
:108870009824002044660300AC6503008041030097
:10888000044A12884FF6FF739A4200D17047FFF7EF
:108890009FBF00BF98240020024B4FF6FF721A8042
:1088A00000207047982400202DE9F04F85B08146C4
:1088B00000F0FEFA4FF6FF73984274D0424B4349E2
:1088C000A3EB010B4FEADB0B01224FEA0B4B804677
:1088D0004BEA020B4FF0030A6B4608214046541C3A
:1088E00001F00CF90546A4B20323484685BB019F5D
:1088F0003E463A1D46F806AB3146FFF765FF034694
:10890000082140465BB30C2B04D101F0F7F9A8B95C
:108910002246E1E70821052B18BF1D4601F0EEF9BC
:1089200040B107F0CBFB2A4903464246584606F0C1
:10893000F5FC0325284605B0BDE8F08F07F0BEFB27
:10894000424603462249584606F0E8FC2246C3E761
:10895000072D08BF0C25284605B0BDE8F08F0DEBAC
:10896000010201F0C7F858B1052822D1424608217A
:10897000404601F023FA0546284605B0BDE8F08FD1
:108980000399BB888A889A42F0D1063130460AF0B2
:10899000EFFD0028EAD10821404601F0AFF9002898
:1089A000BFD10B25C6E743F20205284605B0BDE856
:1089B000F08F07F083FB074902464B46584606F006
:1089C000ADFC0325B6E700BF44660300AC650300B9
:1089D00010420300D84103002DE9F04383B007465D
:1089E00000F066FA4FF6FF73984230D14FF000085E
:1089F000032546464FF001092B464246314638468C
:108A0000FFF7E0FE042804460BD008280BD00B2803
:108A10000BD0B9F1000F08BF0B24204603B0BDE80E
:108A2000F0831124F5E70024F3E715F0020504D1E3
:108A30003EB1A8464646032500E001254FF0000957
:108A4000DAE7B8F1000F0ED00325B046F6E76A4624
:108A5000082101F04FF80028C8D1019EB6F8048023
:108A600035680636C6E7064B06480749C01AC008EF
:108A700000043A4640F0010006F03CFDCDE700BF9F
:108A8000AC650300446603009042030000B585B066
:108A90000DF10703039300F00BFA02AA012101F084
:108AA00029F820B9039B187805B05DF804FB002075
:108AB00005B05DF804FB00BF70B5124E04463046A9
:108AC000FFF784FE78B9318843F203054FF6FF7251
:108AD0002046FFF775FEA84200D070BD31880131F5
:108AE00089B23180F2E707F0E9FA074B07490246FD
:108AF00007481B1ADB081B0443F0010006F0FAFCD0
:108B0000032070BD9A24002044660300084303003C
:108B1000AC65030000B5084B844693E8030083B0BE
:108B20006B4683E8030000221946604600F09CFC77
:108B300003B05DF804FB00BF7043030046DF7047DD
:108B40000388102B2CD170B500F1040CBCE80F0089
:108B50009EB00DF11C0EAEE80F00BCE80F00AEE8B1
:108B60000F009CE807009DF8203003F0FE03062B61
:108B70008EE8070015D1BDF81C307549BDF82440BA
:108B8000089803EB83035B00CA18D4804FF6FF7488
:108B9000CC529DF826301372C2F802001EB070BD90
:108BA000704700F02DFC9DF82030032B4FEA530254
:108BB00040F29D80022ADED105AE0DF10605324657
:108BC0002946072000F024FC002800F0AB809DF827
:108BD000203003F0FE03042BF1D1069C03220DF19B
:108BE000210102A80AF0D4FC032209A904A80AF072
:108BF000CFFC237C8DF84830E37B8DF84930A37B94
:108C00008DF84A30637B8DF84B30237B8DF84C30E8
:108C1000E37A8DF84D30A37A8DF84E30637A8DF873
:108C20004F30237A8DF85030E3798DF85130A379A5
:108C30008DF8523063798DF8533023798DF85430A4
:108C4000E3788DF85530A3788DF8563063788DF839
:108C500057300D22002116A80AF0A8FC9DF810300C
:108C60008DF867309DF811308DF8663012A89DF8A8
:108C700012308DF86530FFF761FF9DF877209DF881
:108C800076308DF80C208DF80D3003229DF875306C
:108C90008DF80E3003A902A80AF06AFC00288ED1D4
:108CA000BDF81C302A48BDF8061003EB83025200C1
:108CB00084188152BDF824200898E2804FF6FF7294
:108CC000C4F8020091429DF8260020723FF466AF7E
:108CD000002212A8ADF84A30ADF84C108DF84820AB
:108CE00001F0D2FB12A8FFF7F1FA1EB070BD05AE7D
:108CF0000DF1060532462946072000F089FB0622C1
:108D000080B106999DF82030487C434013F0FE0F57
:108D100001F11201EED10DF121000AF029FC002829
:108D2000E8D1BDE7BDF81C300949089803EB83037F
:108D30005B004FF6FF74CA18CC52BDF824109DF8A2
:108D40002630C2F80200D18013721EB070BD00BF81
:108D50009C24002070B5102204460D4601300131DC
:108D60000AF006FC002852D16378FBB9A378EBB96E
:108D7000E378DBB92379CBB96379BBB9A379ABB914
:108D8000E3799BB9237A8BB9637A7BB9A37A6BB900
:108D9000E37A5BB9237B4BB9637B3BB9A37B2BB9EC
:108DA000E37B1BB9237C0646002B31D06B78002B6C
:108DB0005CD1AB78002B59D1EB78002B56D12B79B5
:108DC000002B53D16B79002B50D1AB79002B4DD1B7
:108DD000EB79002B4AD12B7A002B47D16B7A002BF1
:108DE00044D1AB7A002B41D1EB7A002B3ED12B7BC7
:108DF000002B3BD16B7B002B38D1AB7B002B35D1CB
:108E0000EB7B9BBB287C061E18BF012600E00026DA
:108E1000637C6A7C83EA020111F0FE0F0BD003F041
:108E2000FE03042B1ED0062B1CD002F0FC02042AE9
:108E300018D0002070BD062205F1120104F11200C5
:108E40000AF096FB637C03F0FE03042B0AD0062B8A
:108E500008D06B7C03F0FC03042B03D00028E8D17E
:108E6000012070BD002EE4D00120FAE70126CFE7F3
:108E700030B585B005460C4600F0C2FA03E0BDF8F7
:108E80000630A3420BD102AA0DF10601072000F023
:108E9000BFFA0028F3D14FF6FF7005B030BD03993B
:108EA0002846FFF757FF0028EDD0BDF80600F4E78D
:108EB00013280DD810B50446FEF71AFC28B1064B4E
:108EC00004EB840433F8140010BD4FF6FF7010BD9E
:108ED0004FF6FF70704700BF9C240020132816D85F
:108EE00038B504460D46FEF703FC68B1094804EBAB
:108EF000840400EB44040020E388D4F80220AB8013
:108F0000237A2A60AB7138BD43F2020038BD43F2C8
:108F1000020070479C24002008B502887AB9837843
:108F20006BB9C3785BB903794BB943793BB98379A2
:108F30002BB9C3791BB9037A0BB9437A13B10B88E8
:108F4000934201D0002008BD0822023102300AF00D
:108F50000FFBB0FA80F0400908BD00BF30B585B006
:108F6000044600F04DFAA51C02AA0DF106010720E7
:108F700000F04EFA002855D023880399002B34D1F5
:108F8000A278002A52D1E378002B44D12279002A1A
:108F900041D16279002A3ED1A279002A3BD1E279FF
:108FA000002A38D1227A002A35D1627A002A32D1B9
:108FB00023795BB9627952B9A07938B9E379002B8A
:108FC00039D1227A1AB9637A002BCDD000234A8D89
:108FD0009A42C9D108222C3128460AF0C9FA002841
:108FE000C2D1BDF8060005B030BDB1F846209A42A6
:108FF000EDD10822483128460AF0BAFA0028F0D00C
:1090000023880399002BE2D1A278002ADFD1E378EC
:10901000002BCDD0DAE7B1F84620002AE9D0002BAA
:10902000C6D0D3E74FF6FF7005B030BDB1F846208B
:10903000002ACCD1DDE70346C9E700BF4FF6FF7336
:1090400098422DE9F04118D00024DFF83880074617
:10905000254601E0642C10D038F81430BB42AEB283
:1090600004F1050405F10105F4D13046FEF740FB9B
:109070000028EFD03046BDE8F0814FF6FF7630464D
:10908000BDE8F0819C240020132804D8024B00EB9B
:10909000800023F8101070479C240020F8B54FF68C
:1090A000FF7398421FD00024114F0646254603E067
:1090B000642C05F1010515D037F81430B34204F1E2
:1090C0000504A8B2F4D1FEF713FB0028F0D0304617
:1090D00000F03EFC28B905EB85054FF6FF7327F835
:1090E0001530F8BD3046BDE8F84000F031BC00BF97
:1090F0009C2400202DE9F041DFF8C4808AB00021D3
:109100000822684688F800100AF050FA4FF6FF70FF
:1091100000F03CFF4FF6FF76B04220D0044648F204
:10912000096707E000F0DEFE204600F02FFFB042A6
:10913000044614D0A4F58045ADB26A4602A928467B
:1091400005F01CF80346BB422046EBD0284604F04D
:10915000ABFE48F207639842054624D015B90AB021
:10916000BDE8F081134A14481449801AC00800046D
:1091700023462A4640F0010006F0D0F80023CDE94E
:109180000533CDE9083308224FF6FF7305A88DF8A3
:109190001420ADF818400795ADF8163000F07AFAB3
:1091A0000AB0BDE8F081012388F800300AB0BDE8BC
:1091B000F08100BFAC6503006466030090430300C8
:1091C0006C25002010B58389017886B003F58043B3
:1091D00000229BB20429CDE90122CDE903220592A8
:1091E000ADF8083041D02CD84A1E022A37D843F6B1
:1091F000FE729342C38953D8D0E90120A1F1030143
:10920000B1FA81F149098DF80C308DF80D100490F8
:10921000002A4BD19DF8143043F0010309228DF848
:109220001430274C8DF804204FF6FF7301A8ADF8D9
:10923000063000F02FFA2378ABB1FFF75BFF06B0E2
:1092400010BD05290BD143683BBB14224FF0FF33FF
:1092500001A88DF80420CDF8063000F01BFA184C58
:109260002378002BE9D106B010BD43F6FE7293427D
:10927000F5D8C289002AF2D14268D2B10C238DF808
:10928000043003920E4C01224FF6FF7301A82270A6
:10929000ADF8063000F0FEF9E2E703931522D5E7BA
:1092A00003F58044A4B29442A6D9D8E705920A22D5
:1092B000B7E70B2218468DF8042000F013FEE1E713
:1092C0006C25002030B5254889B004F0C9FA38BBB8
:1092D00004F0DEFA0546002831D100F0C7FD08226F
:1092E000294603A80AF062F90CE004F01DFC019B7A
:1092F0009C8804F5804405A8A4B204F043FC2046F1
:1093000000F0BCFD05A903AA4CF2070004F0C2FE60
:10931000034601A905A8002BE7D0284609B030BDB7
:109320000F4A104B10499B1ADB081B04024643F0FE
:10933000010006F0DFF80325284609B030BD084BD0
:1093400008480A49C01AC00800042A4640F0010033
:1093500006F0D0F88625284609B030BDC591020038
:10936000AC65030064660300DC4303002044030093
:10937000F0B5FF2887B008D8012904460D461746E6
:109380001E4606D00B1F052B03D90724204607B025
:10939000F0BD0822002101A80AF008F9A4F58040D8
:1093A000A5F5804180B289B201AB03AA04F0FAFDB1
:1093B000F8B901A903A804F0B7FB0446C8B9019B9A
:1093C000BD705B883B808EB13668786802999D00DD
:1093D000AE4228BF2E4632460AF0DAF8B5420CD823
:1093E00003A804F0CFFB204607B0F0BD029B7B60D2
:1093F000F6E70524204607B0F0BD0C24C6E700BF01
:109400000248082200210AF0D1B800BF64250020DC
:1094100070B5012886B004460E46154602D0031FDB
:10942000052B1CD8A4F580400E4A80B203A904F095
:1094300031FE20B901A903A804F076FB10B1002089
:1094400006B070BD019BAC705A882A80029A6A608F
:109450009B8803F5804303A8338004F093FB01202D
:1094600006B070BD64250020F0B5FF2889B00AD889
:1094700091F802C0BCF1010F0546164607D0ACF1C9
:109480000403052B03D90724204609B0F0BD4B681F
:109490000393ACF5804CA5F580470B8804931FFA25
:1094A0008CF4BFB2082200216846ADF80870ADF810
:1094B0000A400AF07BF86B462146384605AA04F0BC
:1094C00071FD40BB02A905A804F038FC04464CB36A
:1094D000A4F50643023B0B2B09D80B2B07D8DFE87A
:1094E00003F0280606062C16060606060616144B7A
:1094F00014481549C01AC008000422462B4640F003
:10950000010005F00BFF0324204609B0F0BD112433
:10951000204609B0F0BD02A905A804F05DFB044691
:10952000002CD5D1002EAFD0314605A804F09AFE0C
:10953000AAE71024204609B0F0BD8624A4E700BFA6
:10954000AC65030064660300604403004FF6FF70DF
:1095500000F094BCFF2806D808B500F0AFFCFFF778
:10956000C9FD002008BD0720704700BF00F0CEBC39
:1095700000F0D6BC00F00ABD10B582B08278417A06
:10958000044600233D48CDE900338DF8022001F068
:109590007BFE002865D0237AA2788DF8022003EBA9
:1095A00083039B00013A0190ADF80030072A08D8E8
:1095B000DFE802F00407070707043C230123ADF8A6
:1095C00000302246694632F8040BFFF74DFF1128A0
:1095D00020D005D800283ED007282BD102B010BDDE
:1095E000862827D1A37A264A23F0030343F00103F8
:1095F0000121A372117002B010BD83882246093385
:109600009B0832F8040BADF800306946FFF72CFFD9
:109610001128DED1A37A1A4A23F0030343F0020390
:1096200001210020A372117002B010BD1423ADF807
:109630000030C6E706F042FD124923880246124870
:109640000C1AE408240444F00100104905F066FEF9
:10965000032002B010BDA37A23F00303A37202B06B
:1096600010BD094B0748627A0949C01AC0080004B6
:1096700040F0010005F03EFF0320AFE7B4260020D4
:10968000B02600205C660300AC6503000C450300B7
:10969000CC4403002DE9F043764DC3686A689342D9
:1096A00087B0044600F0CA802A69934200F0DB804C
:1096B000EA69934200F0D980AA6A934200F0D78009
:1096C00003780A2B04D00027142B52D0092B7FD00B
:1096D000204600F04DFD204602F036FD664E204645
:1096E000FFF7CEF82046FEF735FE337813B907B002
:1096F000BDE8F08300233370DFF8788100244FF059
:10970000010904EB440305EB830340469B7A13F005
:10971000020F4FEA440708F10C0808D086F80090C1
:10972000FFF72AFF40B90134042CEAD1DFE7D9075B
:1097300048BF86F80090F6E73C44A4004FF6FF725D
:109740002B5BADF806208628ADF8083063D10723DF
:109750008DF8043001A800F00BFD01A802F0F4FC24
:1097600001A8FFF78DF801A8FEF7F4FD07B0BDE8EA
:10977000F083204600F0FCFC204602F0E5FC3E4E63
:109780002046FFF77DF82046FEF7E4FD3378002BF6
:10979000ADD00024DFF8DC8034704FF0010904EB19
:1097A000440305EB830367009B7A9A0701D4DB0728
:1097B00006D5404686F80090FFF7DEFE0028BBD1B4
:1097C0000134042C08F10C08E9D107B0BDE8F0839E
:1097D000667A002E7FF47CAF002F3FF479AF3B7A9E
:1097E0005BB1DFF8A480797A3144C9B2404601F018
:1097F00063FD3B7A01369E42F5D34FF6FF733B8003
:10980000BB70BB7A00227A6023F003034FF47F42DF
:109810003A81BB725CE708238DF80430039006F0B0
:109820004DFC16492B5B024615480C1AE40824042B
:10983000144944F0010005F071FD8BE700272378FF
:1098400007EB47070A2B05EB87077FF43DAF627AEA
:10985000002A7FF43DAFBB7A074E7A6043F00203E3
:10986000BB72327048E70127E9E70227E7E70327E1
:10987000E5E700BFC4260020B02600205C66030098
:10988000AC6503003C450300B426002010B5294C0C
:10989000A07D94F8223094F80AC020F0030082B032
:1098A00023F00303A07594F82E0084F8223050238F
:1098B0004FF6FF7200212CF0030C20F003000193FF
:1098C000042384F80AC022804FF47F4CA2706160A8
:1098D000A281A27321612283A276E1610093A28416
:1098E000154B84F82620A16284F82E0013491448F1
:1098F000A4F808C04FF4A072A4F814C0A4F820C0C3
:10990000A4F82CC001F052FC034610B9184602B06E
:1099100010BD06F0D3FB0B4B0B4902460B481B1A3C
:10992000DB081B0443F0010005F0E4FD03231846A7
:1099300002B010BDC4260020F426002070250020AF
:10994000B42600205C6603009C450300AC65030060
:109950002DE9F8435F4D2B888342064628D0AB891A
:10996000834200F0B2802B8B834200F0B080AB8C3E
:10997000834208BF03271CD03046FFF7EBFD0346A8
:1099800008B1072802D11846BDE8F88306F096FB17
:10999000514C524A5249A41AE40824040346324660
:1099A00044F0010005F0BAFC03231846BDE8F88333
:1099B00000272B88DFF8388107EB4702B34205EB1D
:1099C000820229D0AB89B34279D02B8BB34273D0BA
:1099D000AB8CB34276D0032F07F10103CCD003EB5D
:1099E000430235F82220B24260D0022F07F1020371
:1099F000C2D003EB430235F82220B24256D0002FEA
:109A0000BAD1AB8CB342B7D103272B8807EB4702FF
:109A1000B34205EB8202D5D12E4C00239078A27878
:109A2000824220D0032B03F10101D4D001EB41028B
:109A300035F82220B2423BD0022B03F10202CAD0F9
:109A400002EB420135F82110B14233D0012BC2D0D4
:109A5000AB8CB342BFD1032303EB430405EB840477
:109A6000A2788242DED1A27A9207DBD1D4F80490A8
:109A7000B9F1000FD6D1237A53B1617A49444046F7
:109A8000C9B201F019FC237A09F101099945F4D30F
:109A9000A37A4FF6FF7200204FF47F4123F00303B7
:109AA0002280A27060602181A37294E71F46ACE718
:109AB0000B46D1E71346CFE70A4C0223AEE70A4C28
:109AC0000123ABE7094C0323A8E7012771E702272D
:109AD0006FE700BFC42600205C660300AC6503008E
:109AE000BC450300DC260020D0260020E82600200C
:109AF000B42600200023FFF73BBC00BF002B00F082
:109B00008E802DE9F0419846CB1F012B0E4651D88F
:109B1000531E032B17464DD8DFF8DCC1BCF80020DC
:109B2000904200F0BF80BCF80C30834200F0C98046
:109B3000BCF81830834200F0C680BCF82430834261
:109B400008BF032417D04FF6FF739A426ED0BCF8BB
:109B50000C209A4200F0A280BCF818209A4200F033
:109B60009F80BCF824209A4208BF03235FD01120B5
:109B7000BDE8F0812C4604EB44050CEB850595F817
:109B800002E0B64519D0032C04F10105DBD005EB4A
:109B900045033CF823308342ECD0022C04F102054B
:109BA000D1D005EB45033CF823308342E2D0002CB2
:109BB000C3D0C8E70720BDE8F081AB7A9907E2D1AE
:109BC0006B68002BDFD12B7ABB4225D1697AFF2944
:109BD00018D0002444482F7201F056FB002863D0AF
:109BE00007EB87031B010333C3F38D0388F802607F
:109BF000C8F80400A8F800300CB1082E11D00020DD
:109C0000BDE8F0813946384801F0E6FAFF28014600
:109C100068725AD00124DDE70F20BDE8F0810E20E4
:109C200070479B00063B83800020A1E7002303EBE5
:109C300043050CEB85054FF6FF71AA78FF2A22D069
:109C4000032B03F1010292D002EB42043CF82440C2
:109C50008C4221D0022B03F1020288D002EB420495
:109C60003CF824408C4217D0002B80D1BCF8243023
:109C70008B427FF47CAF032303EB43050CEB85059C
:109C8000AA78FF2ADCD1AA7A9207D9D16A68002A79
:109C9000D6D12880AE7099E71346EDE70123C6E7D9
:109CA0000223C4E7002466E7104B11486A7A114981
:109CB000C01AC008000440F0010005F01BFC03209E
:109CC00056E7012457E7022455E7AB7AA9704FF60F
:109CD000FF72002023F003032A804FF47F42686064
:109CE0002A81AB72112043E7B4260020AC65030043
:109CF0005C66030010460300C4260020F8B52D4D15
:109D00002B8883424FD0AB8983424ED02B8B83422A
:109D10004DD0AB8C834208BF032303D005263046C9
:109D2000F8BD134603EB430405EB8404A2788A4292
:109D300016D0032B03F10102F0D002EB420435F8F8
:109D400024408442EDD0022B03F10202E6D002EB64
:109D5000420435F824408442E3D0002BD9D0DDE71B
:109D6000A27A9207E5D16668002EE2D1237A5BB130
:109D7000114F3546617A29443846C9B201F09CFA40
:109D8000237A01359D42F5D3A37A4FF6FF72002165
:109D900023F003032280A2704FF47F42616022818E
:109DA000A3723046F8BD0023BCE70123BAE70223C3
:109DB000B8E700BFC4260020B4260020CB1F012B2B
:109DC00049D870B5044610460D461646FFF7CEFB3F
:109DD00080B325490B88A3423FD08B89A3423ED054
:109DE0000B8BA3423DD08B8CA34208BF032302D030
:109DF000052070BD034603EB430E01EB8E0E9EF86B
:109E00000200A84218D0032B03F10100F0D000EBB0
:109E1000400231F82220A242ECD0022B03F10200D2
:109E2000E6D000EB400231F82220A242E2D0002B23
:109E3000D9D0DDE7072070BD9EF80A209207E2D155
:109E4000DEF80420002ADED1AEF800607046BDE8DE
:109E50007040FFF791BB072070470023CBE7012339
:109E6000C9E70223C7E700BFC426002002484022FA
:109E7000002109F09BBB00BFF82600204FF6FF73BE
:109E8000984210B50DD0FF28044602D94FF6FF7056
:109E900010BD0948214602F045FC0028F6D12046B5
:109EA00010BD05484FF4807102F060FC80B2B0F53F
:109EB000807FEBD010BD00BFF826002008B54FF61C
:109EC000FF73984202D0FF28014601D9002008BD47
:109ED000034802F027FC0028F8D1012008BD00BF8C
:109EE00018270020FF2800D9704710B504462146E6
:109EF000044802F025FC21460348BDE8104002F06A
:109F00001FBC00BFF826002018270020FF280146AC
:109F100001D900207047014802F01EBCF82600203D
:109F2000F8B54FF6FF7398422AD0013084B2FF2C67
:109F300022D8144D03E09CB2B4F5807F1CD021469A
:109F4000284602F009FC631C0028F4D00E4FA7F14C
:109F500020062146384602F0FFFB78B10134A5B255
:109F600007E02946304602F0F7FBACB20135002885
:109F7000EFD1B5F5807FF4D14FF6FF742046F8BDE0
:109F80000024D6E7F82600201827002038B54FF621
:109F9000FF73984216D0013084B2FF2C0ED80A4DC0
:109FA00003E09CB2B4F5807F08D02146284602F039
:109FB000D3FB631C0028F4D0204638BD4FF6FF7455
:109FC000204638BD0024EAE718270020284B1B78DC
:109FD00003B970472DE9F04103888688102B86B0BD
:109FE000044614D0234B30461978FDF711FC58B9BC
:109FF0002046FEF7A5FD204602F00EF9204606B0E9
:10A00000BDE8F041FEF77EBA06B0BDE8F08100255C
:10A010001422294601A8DFF864808DF8035009F066
:10A02000C5FA01228DF804204FF6FF72ADF8082022
:10A0300098F80030ADF8066004F1080203920DF1C3
:10A04000030204924BB10C4F57F8043B01A8984708
:10A0500098F8003001359D42F6DB064B9DF8032051
:10A0600019783046FDF7F0FB9DF80300BFE700BF0D
:10A070004E27002060220020402700204F2700208C
:10A080002DE9F04F87B083464FF6FF708A46914620
:10A090000193FFF76DFA0423039302AB00250593A8
:10A0A00004AA03AB0621044602950495FFF760F964
:10A0B000072852D04FF6FF770346B8464FF0FF36D9
:10A0C0000AE0052B15D1FFF753FA03AB04AA0621CA
:10A0D0000446FFF74DF903462046002BF1D1029BC1
:10A0E000AB4224BFA0461D46B3423CBF27461E4696
:10A0F000E9E74FF6FF7294421AD1A0452BD0A74250
:10A100000CBF05200020BBF1000F01D0ABF8008090
:10A11000BAF1000F01D0CAF80050B9F1000F01D018
:10A12000A9F80070019B03B11E6007B0BDE8F08F75
:10A13000184605F0C3FF0B4D0B4B0C49ED1AED080B
:10A140002D040246234645F0010005F0E7F8032000
:10A1500007B0BDE8F08F0520D5E7052007B0BDE8C2
:10A16000F08F00BF34660300AC650300984603001F
:10A170002DE9F043044687B08088FEF75FFF23781F
:10A180006080093B032B08D8DFE803F04B3A170245
:10A19000964B1A78002A40F0D880954F3B784BB107
:10A1A000944E002556F8043B204698473B780135ED
:10A1B0009D42F7DB07B0BDE8F0838C4D2B78002B78
:10A1C0007AD18D4D2B78002BE7D08C4EA388328826
:10A1D0009A42E2D18A4B1F78002F48D0DFF82882BC
:10A1E000864800231A464146FFF74AFF052800F03B
:10A1F000E080B0FA80F35B092B70002FDAD0CCE757
:10A20000637A002BC9D17F490A68002AC5D0E0686B
:10A210008242C2D17C480B600268E360013A02606E
:10A22000BBE7667A2EBB774A13681BB1E1688B42A5
:10A2300000F0B980704D2B78002BAED06F4EA28805
:10A2400033889A42A9D1237A062BA6D16C4B1F786A
:10A250006FB1DFF8B48100231A4641463046FFF75C
:10A260000FFF052800F0AD80B0FA80F77F092F704E
:10A2700093E7012E91D1604D2B78002B8DD05F4F4D
:10A28000A2883B889A4288D1237A062B85D15C4BE1
:10A290001B78002B00F0A580DFF86C8100231A46A4
:10A2A00041463846FFF7ECFE052800F09280B0FAF0
:10A2B00080F676092E7070E74FF6FF70FFF758F9B9
:10A2C0004FF6FF73984206467FF47BAFFFF752F9D3
:10A2D000B0427FF476AF00260DF104081422314617
:10A2E0004046434F2E7009F061F90D238DF804307C
:10A2F0004FF0FF33CDF806303B78ABB1DFF8F49088
:10A3000035464E4656F8043B204698473B78013583
:10A310009D42F7DB43B1002559F8043B404698477E
:10A320003B7801359D42F7DB334D2B78002B3FF412
:10A3300041AF324EA38832889A427FF43BAF304B14
:10A340001B78002B50D0002748E700250DF10408AA
:10A350001422294640461D7009F028F90E23244F87
:10A360008DF804304FF0FF33CDF80630A368039327
:10A370003B78002B3FF41EAF1E4EB14659F8043B0C
:10A38000204698473B7801359D42F7DB002B3FF490
:10A3900011AF002456F8043B404698473B780134FF
:10A3A0009C42F7DB06E7154BA18816601980E66032
:10A3B000F3E64FF6FF7333800023C8F80030012323
:10A3C0001AE74FF6FF7333800023C8F800302F7070
:10A3D000E3E64FF6FF733B800023C8F800302E7091
:10A3E000DBE61E462E70D8E62B70E3E63C27002005
:10A3F0004F27002040270020502700204C27002016
:10A400004E270020542700203827002078B1F8B5C7
:10A41000074F3B7853B1074E0546002456F8043BDE
:10A42000284698473B7801349C42F7DBF8BD7047DB
:10A430004F27002040270020F8B5074F3B7853B145
:10A44000064D0646002455F8043B304698473B78B5
:10A4500001349C42F7DBF8BD4F2700204027002045
:10A46000F8B5074F3B7853B1064D0646002455F822
:10A47000043B304698473B7801349C42F7DBF8BDFB
:10A480004F27002040270020F8B5074F3B7853B1F5
:10A49000064D0646002455F8043B304698473B7865
:10A4A00001349C42F7DBF8BD4F27002040270020F5
:10A4B00010B5FEF707FF28BBFFF7E8F9002843D1E6
:10A4C00001F062FE78BB00F083FF00284DD1FDF75C
:10A4D000B7FF00285AD1FEF7DFF90446002865D1FE
:10A4E0003A4A3B4B3B483C4904604FF6FF7CA2F89C
:10A4F00000C001221A700C70FDF780F9374B1870FC
:10A50000204610BD05F0DAFD354C364A3649034683
:10A510003648241AE408240444F00100032404F01B
:10A52000FDFE204610BD05F0C9FD2D4C2D4A3049D9
:10A5300003462E48241AE408240444F001000324AE
:10A5400004F0ECFE204610BD05F0B8FD244C254A71
:10A55000284903462548241AE408240444F001004D
:10A56000032404F0DBFE204610BD05F0A7FD1C4CC3
:10A570001C4A214903461D48241AE408240444F0D7
:10A580000100032404F0CAFE204610BD05F096FD2C
:10A59000134C144A194903461448241AE4082404A5
:10A5A00044F0010004F0BAFE0324A9E705F086FD9B
:10A5B0000B4C0E490B4A641AE40824040346104964
:10A5C00044F0010004F0AAFE032499E74C27002080
:10A5D0004E27002054270020502700206022002012
:10A5E0003466030040480300E0460300AC65030006
:10A5F000384703000C4703006447030090470300FB
:10A60000BC4703000A4B1B786BB10A4A1378022B34
:10A610000BD810B4591C084C117044F823000020CA
:10A620005DF8044B7047082070470420704700BF56
:10A630004E2700204F27002040270020034B1B7887
:10A640000BB101F003BE0820704700BF4E27002069
:10A6500008B5054B1B782BB101F03EFE082808BF5A
:10A66000112008BD082008BD4E270020034B1B7891
:10A670000BB101F0CDBC0820704700BF4E27002071
:10A68000034B1B780BB1FEF709BD0820704700BFD4
:10A690004E27002010B4054C24781CB15DF8044B03
:10A6A000FFF7EEBC08205DF8044B70474E270020F2
:10A6B0002DE9F0434C4B1A7889B0002A57D04B4A09
:10A6C0004B4F064692E803003C7801AD85E8030055
:10A6D000002C35D0474F3C68002C43D1464BDFF867
:10A6E00030811B88B342D8F800304AD05A1C43D07E
:10A6F0000133404AC8F8003029463046FEF7B4FE20
:10A70000044680B3D8F80030013BC8F80030112867
:10A710004FF000033B6025D0862824D0072822D0A4
:10A7200005F0CCFC354C364B3649E41AE4082404D9
:10A730000246334644F0010004F0F0FD032412E029
:10A74000DFF8CC90DFF8B0802346224649464046E9
:10A75000FFF796FC05283ED000280CBF01230023FC
:10A760003B70B7D01124204609B0BDE8F08308241F
:10A77000204609B0BDE8F0831324204609B0BDE8A7
:10A78000F083002BB4D01422214603A808F00EFF5A
:10A79000092330468DF80C30FEF750FC9DF81C3034
:10A7A000194FADF80E0064F300038DF81C303B78B0
:10A7B000ADF810600622ADF814200694002BD2D01C
:10A7C000124E254656F8043B03A898473B780135BE
:10A7D0009D42F7DBC7E701233B704FF6FF73C9F8D3
:10A7E0000040A8F8003075E74E27002038480300E5
:10A7F00050270020542700204C27002034660300F7
:10A80000AC650300E84703004F27002040270020E5
:10A810003827002076DF704730B5027887B00446CD
:10A82000152A00F2AB81DFE812F025002500250093
:10A8300064007F00250025009C001600A800C600CB
:10A84000E400F10004011001250018012500250095
:10A85000250025002601806805F030FCAD4BAE498F
:10A860000246AE481B1ADB081B0443F0010004F04B
:10A8700041FE227822B1082A00F00D8107B030BDD8
:10A88000658805A92846FFF7F1FE43F20204A042BD
:10A8900000D058BB9DF8141011F00201EED12846EB
:10A8A000FFF7D6FE04460028E8D01128E6D00D2890
:10A8B00000F012810B2800F0FD8043F20203984261
:10A8C00000F0068105F0FAFB9249024693482B46B8
:10A8D0000D1AED082D0445F00100914904F01EFD0C
:10A8E000204607B0BDE8304006F086B806F084F890
:10A8F000D0E74088FCF706FF864B884A217AA3EB15
:10A90000020C884B884A53F8213000934FEADC0C44
:10A910004FEA0C4C52F82020844963884CF0030025
:10A9200004F014FC2278A5E74088FCF7EBFE794B95
:10A930007A4A217AA3EB020C7A4B7B4A53F82130F6
:10A9400000934FEADC0C658952F82020638878492F
:10A9500001954FEA0C4C4CF0030004F005FB227803
:10A9600088E76E4B6B487349C01AC008000440F07A
:10A97000020004F0A1FE22787CE7627A6E4B674900
:10A9800053F8223063480093401A217C6B4A6C4B89
:10A9900011F0010F18BF1346A28801936949237A69
:10A9A000C008000451F82330674940F0030004F068
:10A9B000DBFA22785EE7057A5F49407A614BA2882C
:10A9C00053F8253051F8205020690392029305F086
:10A9D00075FB00950190514D4E485C49401BC008E5
:10A9E0000004DDE9023240F0020004F0BDFA2278F2
:10A9F00040E74A4B4748A2885549C01AC00800049E
:10AA000040F0010004F076FD227833E7A2888068E8
:10AA1000029205F053FB3F49029A03463F48081A49
:10AA2000C00800044B4940F0010004F077FC227894
:10AA300020E73A4B37484849C01AC008000440F0A4
:10AA4000030004F039FE227814E7806805F036FB35
:10AA5000304B42490246314804E7304A2D48A3882A
:10AA60003F49801AC0080004628840F0020004F0E8
:10AA700055FC2278FEE6806805F020FB254B39491D
:10AA8000024626481B1ADB081B0443F0020004F0B0
:10AA900031FD2278EEE6214B1E483349C01AC0082A
:10AAA000000440F0010004F007FEA06800283FF415
:10AAB000E5AE16E71748194B2C49C01AC008000428
:10AAC0002A4640F0020007B0BDE8304004F012BD55
:10AAD0001048124B2649F0E7104B0E4C2549E41A5A
:10AAE000E408240444F0020420462A4604F002FD4F
:10AAF00013212846FFF78EFE00283FF4BFAE05F075
:10AB0000DDFA1D4902462B46204607B0BDE830401D
:10AB100004F004BC4C660300F4480300AC65030079
:10AB2000304C0300A04E0300944E0300484803003D
:10AB300088480300DC480300644E03005C4D0300BA
:10AB4000204903006C4E03002C49030070490300A8
:10AB5000BC490300E4490300144A0300284A0300E7
:10AB60004C4A0300884A03006C4C0300844B0300EA
:10AB7000E44B0300D84A03004C4B0300054B064846
:10AB80000649181AC008000440F0020004F0B2FCA4
:10AB900022786FE64C660300AC650300B84A0300F8
:10ABA0002DE9F041037886B00446152B1AD8DFE86A
:10ABB00013F051011900190064011900190019005E
:10ABC0001C001900160019001600190019001900C0
:10ABD0001900190019001900190038003801BE4B7E
:10ABE00001221A7006B0BDE8F081BC4D2B78002B15
:10ABF000F8D1BB4BBB4CB84FBB49E41AE408240462
:10AC000044F00308404604F057FD3B78002B00F069
:10AC1000228203F08BF9002840F03D8201232B7043
:10AC2000E0E7AE4AB14EB24D346800231370AA4A31
:10AC300013701A1B02F0070204F0070358BF5342B7
:10AC40004FF6FF7235F8137097420FD025F8132096
:10AC50003846FFF72DFD862800F08081112800F08E
:10AC60007D81132840F2658205F0C6FE631C5A42BE
:10AC700002F0070203F0070358BF53424FF6FF727A
:10AC800035F8137097420FD025F813203846FFF798
:10AC90000FFD862800F04981112800F04681132815
:10ACA00040F24D8205F0A8FEA31C5A4202F00702B2
:10ACB00003F0070358BF53424FF6FF7235F8137085
:10ACC00097420FD025F813203846FFF7F1FC86286D
:10ACD00000F0A881112800F0A581132840F21D8200
:10ACE00005F08AFEE31C5A4202F0070203F0070354
:10ACF00058BF53424FF6FF7235F8137097420FD08A
:10AD000025F813203846FFF7D3FC862800F0718120
:10AD1000112800F06E81132840F2F38105F06CFEDB
:10AD2000231D5A4202F0070203F0070358BF5342A3
:10AD30004FF6FF7235F8137097420FD025F81320A5
:10AD40003846FFF7B5FC862800F03A81112800F05C
:10AD50003781132840F2CF8105F04EFE631D5A4221
:10AD600002F0070203F0070358BF53424FF6FF7289
:10AD700035F8137097420FD025F813203846FFF7A7
:10AD800097FC862800F00381112800F00081132829
:10AD900040F2BD8105F030FEA31D5A4202F00702C9
:10ADA00003F0070358BF53424FF6FF7235F8137094
:10ADB00097420FD025F813203846FFF779FC8628F4
:10ADC00000F09A80112800F09780132840F2AB81A0
:10ADD00005F012FE0734634203F0070304F0070492
:10ADE00058BF5C424FF6FF7335F814709F423FF432
:10ADF000F9AE25F814303846FFF75AFC862801D002
:10AE000011282ED13268531C594201F0070103F07A
:10AE1000070325F8127058BF4B420022019233609D
:10AE20004EE083682D4948F20D620020934208707D
:10AE300003D0B3F5064F7FF4D5AE0023072201A857
:10AE4000CDE90133CDE9033305938DF80420FFF7F5
:10AE5000A7FEC7E68088FFF72BFC86281ED01128A6
:10AE60001CD0132804D8234BC340DB073FF5BAAEF0
:10AE700006B0BDE8F04105F0BFBD037A012B3FF6F7
:10AE8000B1AE00238288059301A8CDE90133CDE955
:10AE90000333ADF80820FFF783FEA3E613481449F7
:10AEA0000268A48821F81240531C594201F007019E
:10AEB00003F007034FF0000258BF4B4201920360BA
:10AEC000072301A8CDE90222CDE904228DF8043040
:10AED000FFF766FE86E600BF6122002058270020AB
:10AEE000AC6503004C660300784C03005C2700202F
:10AEF00064220020C1000800336825F81370013374
:10AF00005A4202F0070203F0070358BF534233606E
:10AF10000023CDE90133CDE90333059301A80723CD
:10AF20008DF80430FFF73CFE54E7336825F81370C2
:10AF300001335A4202F0070203F0070358BF53429D
:10AF400033600023CDE90133CDE90333059301A834
:10AF500007238DF80430FFF723FEA5E6336825F8B4
:10AF6000137001335A4202F0070203F0070358BF7F
:10AF7000534233600023CDE90133CDE90333059318
:10AF800001A807238DF80430FFF70AFE6EE6336848
:10AF900025F8137001335A4202F0070203F0070349
:10AFA00058BF534233600023CDE90133CDE9033369
:10AFB000059301A807238DF80430FFF7F1FDEBE6B8
:10AFC000336825F8137001335A4202F0070203F088
:10AFD000070358BF534233600023CDE90133CDE965
:10AFE0000333059301A807238DF80430FFF7D8FD3C
:10AFF000B4E6336825F8137001335A4202F00702B1
:10B0000003F0070358BF534233600023CDE90133F7
:10B01000CDE90333059301A807238DF80430FFF72A
:10B02000BFFD7DE6336825F8137001335A4202F004
:10B03000070203F0070358BF534233600023CDE9F2
:10B040000133CDE90333059301A807238DF80430BC
:10B05000FFF7A6FD46E601A803F00EF980BBBDF898
:10B060000A30002B14BF012300233B707FF4D1ADC5
:10B07000002301AA19461846FFF70CFB064680B1CB
:10B08000052E29D0062E2DD0002E3FF4C2AD30461D
:10B0900005F0B2FCA6E548F2076290423FF4A2AD8B
:10B0A000E6E6BDF804202949404604F023FABDF83D
:10B0B0000400FFF7E5FA0646D0B901233B70DFE74D
:10B0C00005F09AFCBDF80A30002B14BF01230023C1
:10B0D0003B707FF487ADCBE71D4944F0010004F0DD
:10B0E000EBFA7FE51B4944F0020004F0E5FA79E54C
:10B0F00005F082FCE1E7184BC340DF077FF52CAE7B
:10B100002CE6154BC340DB077FF508AE08E6124B73
:10B11000C340D9077FF53EAE3EE60F4BC340DA078A
:10B120007FF5DEADDEE50C4BC340DA077FF550AEB0
:10B1300050E6094BC340DF077FF596AD96E5064B19
:10B14000C340D9077FF5AEADAEE500BF944C030018
:10B15000C04C0300E04C0300C10008000378042B3E
:10B1600000D0704710B50E4B0E4904460E48628859
:10B17000C01AC008000440F0020004F0BBF9608867
:10B180001321FFF747FB43F202029042034602D02D
:10B1900033F0080300D110BDBDE8104005F02CBC11
:10B1A000AC650300204D03004C66030030B4DDE9BC
:10B1B000024570B169B163B105FB04FC944508D840
:10B1C0003CB135B1C0E90013C0E90245002030BCF4
:10B1D0007047072030BC70472DE9F04100284FD060
:10B1E00003688046002B4BD04068002848D0D8F830
:10B1F0000830002B44D000250F46FF2429460FE0DD
:10B20000FF2C08BF2C462B1B0133BB4239D0D8F88A
:10B2100008300135EDB29D42294631D2D8F80400FC
:10B2200001F080FABFF35F8F0028E9D0FF2C01D135
:10B23000FF24ECE7AC42FBD20134D8F80020E4B2A2
:10B2400005E0A542F4D9D8F800200134E4B2631E29
:10B25000DEB2002AF5D0D8F804000028F1D0FF2E85
:10B26000F3D0BFF35F8F314601F076FA0028E8D0C3
:10B27000D8F80400BFF35F8F314601F061FAE0E7D0
:10B28000FF242046BDE8F081A0B138B5036804462C
:10B2900073B1406860B1FF290D4609D0BFF35F8FDD
:10B2A00001F05AFA20B1E168206801FB050038BDC1
:10B2B000002038BD0020704748B138B50368044607
:10B2C00023B1406810B1FF290D4601D138BD704748
:10B2D000BFF35F8F01F040FA0028F7D06068BFF33A
:10B2E0005F8F2946BDE8384001F02ABA7EDF7047FB
:10B2F0007FDF704786DF70472DE9F0432F4B87B023
:10B300008846197805461746FCF782FA05F58073DA
:10B3100000284FF0070198B214BF4FF001094FF019
:10B320000209FEF7EBFC10B10528064623D101AC5B
:10B33000234B00221978019204232846C4E90122F4
:10B34000C4E903228DF804308DF80C90ADF80E801E
:10B35000ADF806508DF81070FCF776FABDF80600CF
:10B36000FDF7A6FD03462046ADF8083000F0A4FE28
:10B3700007B0BDE8F08304F0A1FE124B124902466B
:10B380001248C01AC00800042B4640F0010003F028
:10B39000C5FF0023CDE90133CDE904332846082356
:10B3A0000396ADF806508DF80430FDF781FD01AC31
:10B3B000ADF80800204600F07FFEB9E776220020B5
:10B3C00075220020AC650300AC4E030074660300D8
:10B3D000F8B51C4C2378182B30D01B4D2B78182B2C
:10B3E00028D01A4E3378182B20D0194F38781828C7
:10B3F00018D02378182B09D02B78182B06D0337847
:10B40000182B03D0182801D00020F8BD114B12488A
:10B410001249C01AC008000440F0010004F04CF9C1
:10B420000320F8BDFCF7EAF93870E2E7FCF7E6F92B
:10B430003070DAE7FCF7E2F92870D2E7FCF7DEF9C2
:10B440002070CAE775220020772200207622002093
:10B4500074220020AC65030074660300DC3F030027
:10B460002DE9F04190B00C4617460646FCF74AF924
:10B470002022054600210DEB020008F097F8012D6F
:10B480003ED0002D50D0002C43D03046FDF710FDAB
:10B490002378DB0751D503AB06F58070072180B216
:10B4A0000122FEF72BFB1128014639D000287CD160
:10B4B0005022049808F07AF8049B1D700499434BBD
:10B4C0000F9301F13403089301F118030C933046F4
:10B4D0004B1C11310B970D93FDF700FD014680B316
:10B4E00004F0ECFD3A4C3B4B3B49E41AE4082404DD
:10B4F0000246334644F0020003F010FF08210FE03B
:10B50000DFF8DC80002298F800103046FCF79CF948
:10B51000DCB9852108AB22463046FFF7E9FE01463B
:10B52000084610B0BDE8F08143F20201084610B0B1
:10B53000BDE8F0812278D207AED40021234B0B97CF
:10B540000F93012D18BF0024E4E73046FDF7B0FC4F
:10B550004FF6FF7398429BD098F800103046FCF7E6
:10B5600057F9002894D103AB0146142218460193E1
:10B5700008F01CF8052230468DF80C20ADF80E605E
:10B58000FDF796FC019BADF81000184600F094FD05
:10B5900098F800103046FCF73BF9019B0028C9D110
:10B5A0002378D907B5D48521C8E704F087FD084C76
:10B5B000084B0A49E41AE40824040246334644F0DE
:10B5C000010003F0ABFE0321AAE700BF60270020C3
:10B5D00074660300AC6503007C4F0300184F030042
:10B5E0007422002038B505460C46FCF78BF801287C
:10B5F00002D043F2020038BD3CB121462846FFF795
:10B6000075FE042808BF112038BD204638BD00BF94
:10B610002DE9F04F0388113B8DB00446092B25D846
:10B62000DFE803F04F24057024242424BE278088FB
:10B63000FCF768F80128054600F0388207AD34F8B9
:10B64000040F0023062204340793C5E90133C5E93A
:10B6500003338DF81C20ADF81E000994FDF728FC7B
:10B6600003462846ADF8203000F026FD0DB0BDE8B9
:10B67000F08FC94B80881978FCF7CAF80546002876
:10B68000F4D1A088FCF772F80246002840F0AD81A2
:10B69000C24B07921978A088ADF81E0004238DF8DC
:10B6A0001C3041F20603CDE90922ADF82630012312
:10B6B00008920B928DF82830FCF7C6F8BDF81E00F2
:10B6C00088E1037A8588B54E3D2B317841F23D0300
:10B6D00028460CBF1C464FF48854FCF799F8002804
:10B6E000C4D0AD4B28461978FCF792F802460028E2
:10B6F00000F05E810022214628460DB0BDE8F04FE3
:10B70000FFF7FABD00F110094846FDF727FC4FF698
:10B71000FF7306469E428346A08800F0BC80DFF897
:10B720007C823146FDF7B0FCA08898F800100390A9
:10B730000122FCF789F8984B039819780022FCF74E
:10B7400083F8974B039819780022FCF77DF807AD32
:10B75000002307930398C5E90133C5E903330223A6
:10B76000ADF81E008DF81C30FDF7A2FBADF82000EF
:10B77000284600F0A1FC05AA07213046FEF7BAF9D9
:10B78000002840F00681A77E17F0010700F0B38083
:10B79000069F97F84430D90740F1F3803437AAE088
:10B7A000067A8788002E40F0D1807C4B324619788B
:10B7B0003846FCF749F8637A5B0740F1B78107F533
:10B7C00080791FFA89F905AB012207214846FEF767
:10B7D00095F98046002840F017813846FDF768FB50
:10B7E0004FF6FF7398420646054600F0EB81C246CD
:10B7F00007AD484632460721FEF7E0FA80460028AA
:10B8000000F0B281862800F09B8104F057FC654B64
:10B810006549009602466548C01AC00800044FF00A
:10B82000000940F001003B4603F090FCCDF81C906D
:10B830000823C5E90199C5E9039938468DF81C30FC
:10B84000CDF82480ADF81E70FDF732FBADF8200076
:10B85000284600F031FC637AA0888DF8259013F01B
:10B86000040F14BF012302238DF8243003238DF825
:10B870001C30ADF81E00FDF71BFB03462846ADF853
:10B88000203000F019FCBAF1000F3FF4EFAE304663
:10B89000FDF704FCEAE6FDF70BFBDFF80081B4F8E6
:10B8A00004A098F80010064601225046FBF7CCFF92
:10B8B000394B002219785046FBF7C6FF384B07ADCD
:10B8C0001978002200275046FBF7BEFF0797022396
:10B8D000C5E90177C5E9037750468DF81C30ADF80E
:10B8E0001EA0FDF7E5FAADF82000284600F0E4FBC5
:10B8F0005E457FF440AF0023A0881A463946FFF723
:10B90000F9FC0828814600F00681002840F0B0804C
:10B91000A37EDA077FF5AAAE002F7FF4A7AE04233B
:10B920000797A08898F80010C5E90177C5E9037763
:10B930003A468DF81C3041F20603ADF81E00ADF812
:10B940002630FBF781FFBDF81E0087E6134C427AD4
:10B9500021783846C2F3010802F00305FBF758FFCF
:10B9600000283FF483AE0C4B38461978FBF750FFA4
:10B97000B6B20246002800F009812A463146384610
:10B98000BBE6494607F14600FDF7C6FA00287FF4FA
:10B9900005AF0027AFE700BF772200207522002007
:10B9A00076220020AC6503003C510300746603005E
:10B9B00007900990042328463178ADF82640CDE958
:10B9C0000A22ADF81E5008928DF81C30FBF73CFFA0
:10B9D000BDF81E00FDF76CFA034607A8ADF820304D
:10B9E00000F06AFB0DB0BDE8F08FB74BA088197866
:10B9F0002A46FBF729FFA088ADF81E0003238DF827
:10BA00001C30ADF82450E5E704F058FBAF4BB049CB
:10BA10000246B048C01AC008000440F001003B468E
:10BA200003F07CFC08233846CDE90766CDE90A66B9
:10BA30008DF81C30CDF82480ADF81E70FDF738FA73
:10BA400007AD03462846ADF8203000F035FB637A99
:10BA5000A088ADF81E0013F0040F14BF01230223C9
:10BA600003228DF81C208DF824308DF82560F5E533
:10BA700004F024FB9549009602469648A388401A94
:10BA8000C008000440F00100934903F05FFB00236D
:10BA9000A08807930822C5E90133C5E903338DF86F
:10BAA0001C20ADF81E00CDF82490D7E5237A864AF5
:10BAB000A0881178039003F00103C3F102032A4622
:10BAC000DEB2FBF7C1FE854B039819782A46FBF7D7
:10BAD000BBFE834B03981978A6F10102B2FA82F2F9
:10BAE0005209FBF7B1FE0023CDE90733CDE9093355
:10BAF00003980B9302238DF81C30ADF81E008DF8CF
:10BB00002460FDF7D5F907AD03462846ADF820308F
:10BB100000F0D2FA93E56D4B6E487249C01AC00826
:10BB2000000440F0020003F0C7FD9FE5A088ADF8D7
:10BB30001E00032202238DF81C20ADF8243049E7B3
:10BB4000002307930722C5E90133C5E903333846CB
:10BB50008DF81C20ADF81E70FDF7AAF903462846A3
:10BB6000ADF8203000F0A8FA637AA088ADF81E0086
:10BB700013F0040F14BF01220222032101238DF8C8
:10BB80001C108DF824208DF8253067E5079009906A
:10BB90000A9004232178089238460B928DF81C30C5
:10BBA000ADF82660ADF81E708DF82880FBF74CFECE
:10BBB000BDF81E00FDF77CF9ADF8200007A800F0E5
:10BBC0007BFA53E501460698FDF752F9A84206466E
:10BBD00082463BD0DFF814B101463846FDF754FAEF
:10BBE0009BF800103846FBF713FE824600287FF4CE
:10BBF000FEAD07AD01461422284607F0D7FC052309
:10BC000038468DF81C30ADF81E70FDF751F9ADF8CF
:10BC10002000284600F050FA9BF800103846FBF749
:10BC2000F7FD034600287FF4E4AD627AA088ADF802
:10BC30001E0012F0040F14BF0122022203218DF80E
:10BC40001C108DF824208DF8253007E5FDF77EFCCB
:10BC50005045064607D031463846FDF715FA4FF0F5
:10BC6000010A07ADC5E5194B1A481F49C01AC0089B
:10BC7000000440F0010003F01FFD0823CDE9078810
:10BC800038468DF81C3004230993CDE90A88ADF8B5
:10BC90001E70FDF70DF907AD03462846ADF82030BC
:10BCA00000F00AFA637AA088ADF81E0013F0040FC2
:10BCB00014BF0123022303228DF81C208DF82430A9
:10BCC0008DF82580CAE400BF75220020AC65030012
:10BCD000AC500300746603003C5003007722002040
:10BCE00076220020CC4F030008510300742200206C
:10BCF00031F0080335D070B511298AB00C462ED02A
:10BD00000D2906462ED0084604F0D8F9304B3149AB
:10BD100002463148181AC0080004334640F00100BA
:10BD200003F0FCFA00233046CDE90533CDE90733B3
:10BD30000993FDF7BDF80823ADF81660ADF81800BB
:10BD40008DF814300DF1140CBCE80F006D460FC5D2
:10BD5000DCF800302B6068460294FEF757FB0AB00F
:10BD600070BD70471C4B1A481C49C01AC00800041B
:10BD700040F002001546324603F0BCFB002330467B
:10BD8000CDE90533CDE907330993FDF791F8042395
:10BD9000ADF81660ADF818008DF8143005AC0FCC76
:10BDA0006E460FC6236833607DB12B7803F0010324
:10BDB000C3F10203DBB241F2011268468DF808308C
:10BDC000ADF80A20FEF722FBC9E70223F3E700BF24
:10BDD0006C66030060520300AC650300A8510300C9
:10BDE0002DE9F041244B8EB00026CDE90A66CDE95D
:10BDF0000C661B68099309AC0546884694E8070061
:10BE000001AF87E8070009962846A660FDF750F8BD
:10BE10000623ADF82800ADF826508DF824300FCC5D
:10BE20000DF1100CACE80F002368CCF8003004A82A
:10BE3000CDF818800797FEF7E9FA104B01991A68B8
:10BE40002846FFF70DFB0E4BA0F11102B2FA82F269
:10BE50001978044652092846FBF7F6FC094B32468E
:10BE600019782846FBF7F0FC019A21462846FFF78F
:10BE70003FFF0EB0BDE8F081AC270020A0270020D6
:10BE80007B2200207A2200200021FFF7A9BF00BFFB
:10BE90002DE9F04306468FB0174698460C46002918
:10BEA00061D1454B0A91CDE90C111B68099309AD8D
:10BEB0000B9195E807000DF1040989E80700304669
:10BEC0000994FCF7F5FF0623ADF82800ADF82660CD
:10BED0008DF82430AC46BCE80F0004AD0FC5DCF88B
:10BEE0000030CDF81C9004A82B60FEF78FFA334B7E
:10BEF000DDF804901B78002B38D049463A4630468E
:10BF0000FFF770FB2E4B11281978054641D000220F
:10BF10003046FBF799FC112D0AD80D2D0CD8DFE81F
:10BF200005F02B0B0B0B0B0B0B0B2B0B0B2B0B2B02
:10BF300043F202039D421FD0284604F0BFF8214B74
:10BF4000214902462148C01AC008000440F00100FF
:10BF5000334603F0E3F90324B8F1000F10D1204673
:10BF60000FB0BDE8F0834FF00009C6E79DF80D3033
:10BF7000002BC2D10524F2E72C46B8F1000FEED019
:10BF800030464A462946FFF7B3FE20460FB0BDE8CB
:10BF9000F08301223046FBF757FC0D4B22461978FF
:10BFA0003046FBF751FC0B4B3A4619783046FBF70D
:10BFB0004BFC0024D0E700BFAC270020A9270020BD
:10BFC0007A220020AC650300CC5203006C660300AB
:10BFD000792200207822002010B50B4B82B019780E
:10BFE0000446FBF715FC094B0246197801922046DE
:10BFF000FBF70EFC019A01460123204602B0BDE882
:10C000001040FFF745BF00BF7822002079220020B2
:10C0100000294FD0F0B583B006460C46FBF78CFBE9
:10C02000054670B33046FCF743FFA5F1020507460D
:10C030004FF6FF70381A2378B5FA85F518BF01203E
:10C040006D0923F0090345EAC0051D4325703046FC
:10C05000FBF78CFB237860F3410323703046FBF73A
:10C060009DFB237860F3820323703046FBF7AEFB21
:10C07000054650B12378002065F30413237003B004
:10C08000F0BD43F2020003B0F0BD3046FBF76EFB9B
:10C0900006460028EED06A4638460721FDF72AFDFD
:10C0A0000028E7D1019B93F8443013F0010F18BF2B
:10C0B0003546DFE70E20704770B50378062B82B057
:10C0C000044615D0132B0DD11E4B1A68BAB1408807
:10C0D000FBF74CFB0546A0B90246608801232946C0
:10C0E000FFF7D6FE204602B0BDE87040FEF78EB9DD
:10C0F0008168408802B0BDE87040FFF771BE01253D
:10C10000EBE7237A6088C3F34006C3F30002B6006E
:10C1100046EAC206C3F3800346EA031601A9E023F8
:10C120008DF80430FFF774FF06F01C069DF804300C
:10C13000F6B220B936EA030314BF012500252A46CA
:10C140000025CAE7AC27002008B503780C2B02D8DD
:10C15000082B02D808BD142BFCD1074B07491878CF
:10C160000022FBF793FB064B064918780022BDE836
:10C170000840FBF78BBB00BF7B22002089BE02007A
:10C180007A220020D9BF020010B51C4C2378182B4E
:10C190000DD01B4C2378182B10D01A4C2378182B59
:10C1A00013D0194C2378182B16D0002010BDFBF7A4
:10C1B00025FB2070124C2378182BEED1FBF71EFBC9
:10C1C0002070104C2378182BEBD1FBF717FB207055
:10C1D0000D4C2378182BE8D1FBF710FB18282070A2
:10C1E000E3D10A4B0A480B49C01AC008000440F0CA
:10C1F000010003F061FA032010BD00BF7A22002085
:10C2000078220020792200207B220020AC650300E8
:10C210006C660300DC3F030008B5FFF7F9F9074B34
:10C22000074918780022FBF731FB064B06491878BE
:10C230000022BDE80840FBF729BB00BF7B2200209D
:10C2400089BE02007A220020D9BF020003460028DE
:10C2500035D0027802F0820180292ED0C2F302117B
:10C2600004292AD802F0F201322926D041788078B8
:10C27000814222D8062920D910281ED8D97848070B
:10C280001BD4187910F0040F17D10143080714D4F8
:10C29000D00710D58A0710D010B40C4A1868106067
:10C2A0001B790B490B4C137101230B70226000208A
:10C2B0005DF8044B70478907EED0072070470548AA
:10C2C000034A03600121117018467047A42700201B
:10C2D000A9270020AC2700202DE9F0413F4B8EB06C
:10C2E0000025CDE90A55CDE90C551B68099309AC29
:10C2F00006460F4694E807000DF1040888E8070099
:10C3000009953046A560FCF7D3FD0623ADF828005B
:10C31000ADF826608DF824300FCC0DF1100CACE890
:10C320000F002368CCF8003004A8CDF81C80FEF77D
:10C330006DF82B4B01991B781BB99DF80D30002B24
:10C3400047D03A463046FFF74DF91128254B0446B1
:10C3500011D0197800223046FBF776FA112C20D83C
:10C360000D2C22D8DFE804F01921212121212121DF
:10C37000192121192119197801223046FBF764FA95
:10C38000194B002219783046FBF75EFA174B3A46F4
:10C3900019783046FBF758FA002420460EB0BDE865
:10C3A000F08143F202039C42F7D0204603F086FE60
:10C3B0000F4C104902461048241AE408240444F0A3
:10C3C0000100334602F0AAFF032420460EB0BDE868
:10C3D000F081052420460EB0BDE8F081AC27002096
:10C3E000A92700207A22002079220020782200202C
:10C3F0006C660300CC520300AC65030041B130B55C
:10C40000044683B010B10388502B02D003B030BD76
:10C4100070474B7C0D46002BF8D0C2884B899A425E
:10C42000F4D1038A022BF1D10B68002BEED012302D
:10C43000FBF75AFAA2882B68ADF8062080F00100BD
:10C440008DF8040001A928469847DFE710B5038856
:10C45000112B82B00C4605D0502B0CD0102B06D0DF
:10C4600002B010BD4FF6FF730B8402B010BD83887D
:10C470000B8402B010BDC2888B899A42F0D1038A26
:10C48000022BEDD10B68002BEAD01230FBF72CFA0F
:10C4900080F001008DF80400236801A92046984728
:10C4A000DEE700BF034653E8000F0A4643E8002CCE
:10C4B0009CF0000FF7D17047034653E8000F40EAA5
:10C4C000010243E8002C9CF0000FF6D1704700BF3A
:10C4D000034653E8002F42EA010043E8000C9CF0B9
:10C4E000000FF6D1704700BF034653E8002F02EA61
:10C4F000010043E8000C9CF0000FF6D1704700BF2C
:10C50000034653E8000F00EB010243E8002C9CF0C7
:10C51000000FF6D1704700BF034653E8002F02EB2F
:10C52000010043E8000C9CF0000FF6D1704700BFFB
:10C53000034653E8002FA2EB010043E8000C9CF0F7
:10C54000000FF6D1704700BF0346012253E8000FE9
:10C5500040EA020143E8001C9CF0000FF6D170474E
:10C560000346012253E8001F41EA020043E8000CA1
:10C570009CF0000FF6D170470346002253E8000FED
:10C5800000EA020143E8001C9CF0000FF6D170475E
:10C5900099B110B4B2FBF3F403FB1424A4B244B970
:10C5A000C0E9001484608281C38120465DF8044B99
:10C5B000704709205DF8044B70470E20704700BF9C
:10C5C00082B050E8022FC188B2EB324F4FF0000327
:10C5D00017BF92B241EA014142EA014104E04268D8
:10C5E000B2EB324F08BF012340E80212002AE8D123
:10C5F0008DF807309DF80730002B0CBF112000206C
:10C6000002B0704710B483B050E8013F1FFA83FCBA
:10C61000C489A4448489A44528BFACEB040C0489D4
:10C62000A44502BFBFF32F8F002207E0CCEA030C22
:10C6300040E801C4002CE7D14FF001028DF803203F
:10C640000193019C9DF803200C6032B1006810FA40
:10C6500084F003B05DF8044B704702F0FF03184606
:10C6600003B05DF8044B70470A884B889A4201D0AA
:10C670000020704750E8012FC2EA024240E801233F
:10C68000002BF7D10120704710B483B050E8023F6F
:10C690001FFAA3FCC488A44502BFBFF32F8F00225A
:10C6A0000EE0C489A4448489A44528BFACEB040CE3
:10C6B000C3EA0C4C40E802C4002CE7D14FF0010261
:10C6C0008DF803200193019C9DF803200C6032B18A
:10C6D000006800EB144003B05DF8044B704702F0B3
:10C6E000FF03184603B05DF8044B70470A884B8877
:10C6F0009A4201D00020704750E8022FC2EA22423D
:10C7000040E80223002BF7D1012070474B0901F0CC
:10C710001F024FF0010C0CFA02F100EB8300FFF74F
:10C72000D7BE00BF4B0910B501F01F040121A14085
:10C7300000EB8300FFF7C0FEE04000F0010010BDF9
:10C7400001F01F02012303FA02F24B0900EB830000
:10C75000D143FFF7C9BE00BF4B0901F01F0150F8DC
:10C760002300C84000F00100704700BF2DE9F04FE2
:10C7700001F1FF3B83B04FEA5B130F46054601937F
:10C7800000264FF0010A55F8264005EB8608E443E1
:10C7900094FAA4F4FCB1B4FA84F404EB46144FEA1E
:10C7A0004619A74217D904F01F0360090AFA03F1DA
:10C7B00005EB80009B46FFF77FFE20FA0BF0C307D6
:10C7C00011D5D8F80030DB4393FAA3F3B3FA83F41E
:10C7D0004C44002BE5D1019AB24206F1010301D08D
:10C7E0001E46D0E73C46204603B0BDE8F08F00BFB0
:10C7F000D0B110B4D0E90112521A0468D2B2531E5B
:10C800002160DBB252B101680A6803F1FF3C541C9D
:10C810000C6013705FFA8CF3FF2BF4D103680020D7
:10C8200018715DF8044B70470E20704730B583B027
:10C83000044600250DF107008DF8075004F022F999
:10C84000D4E900311A688A4210D9511E1960216852
:10C85000A3680D6812F8012C208A5B1BE56800FBB9
:10C8600002550A79DBB29A4238BF0B719DF8070076
:10C8700004F02EF9284603B030BD00BF30B50546A0
:10C8800083B00DF1070000230C468DF8073004F04B
:10C89000F9F82A681368591C1160E9682A8A641A31
:10C8A000B4FBF2F41C709DF8070004F011F903B01A
:10C8B00030BD00BF032806D8012A06D001291BD0AD
:10C8C000022908D071B107207047012911D002292F
:10C8D0004FF00002F6D10B4B00EB40000344002068
:10C8E0005A707047074B00EB4000034408469A70AB
:10C8F000704700F10E02D2B200EB40030149002064
:10C90000CA547047B027002010B50388102B07D0F9
:10C91000112B04D1254B18680138186030B110BDB7
:10C92000224C216811B30131216010BD0122022186
:10C93000FFF7C0FF40B1072806D01D4B1B68002B36
:10C94000EDD0BDE810401847072202210120FFF773
:10C95000B1FF08B10728F0D100210A220846FFF7ED
:10C96000A9FF0028DBD00728E7D1D8E70122084635
:10C97000FFF7A0FF38B1072805D00D4B1B6803B1A6
:10C9800098472168CFE7072202210120FFF792FF95
:10C9900008B10728F1D1042202210020FFF78AFF05
:10C9A0000028EED00728E8D1EBE700BFC027002021
:10C9B000BC27002038B5174B1D783DB3164A1168C7
:10C9C000C0B200230C4604E00133AB4204F108047A
:10C9D0001CD011F833209042F6D106F0A5F9637807
:10C9E000A3F10103B3FA83F35B09834200D038BD9E
:10C9F0000A4BD3E900231343F9D1094B09481968BD
:10CA00000022BDE83840490803F0BEBD00231B7872
:10CA1000FFDE00BFC4270020F8270020D027002019
:10CA2000C8270020802200202DE9F04FDFF878820F
:10CA300098F8003083B0002B00F02B81DFF86C9267
:10CA4000954F964E00254FF0010AD7F800B01BF81D
:10CA5000350006F069F91BF835400BEBC50361089A
:10CA60005B7816F801C014F0010EA3F10103B3FACC
:10CA700083F314BF4FEA1C120CF00F025B09042A67
:10CA800000F2EA80DFE802F0725F332003008342A5
:10CA900040F09F80BEF1000F0CBFF0230F230CEA83
:10CAA000030C0CBF0323302343EA0C03735498F8A0
:10CAB000002001359542C8DBD9E90023134340F03B
:10CAC000DE8003B0BDE8F08F834200F0C580BEF188
:10CAD000000F0CBFF0230F230CEA030C0CBF042340
